:04000000FEEFFFF020
:10FEF600003C2D20202020332E533320202020208C
:10FF06002000312E4F4E2020322E4F4646202020F4
:10FF16002020003C2D20332E4D542020342E5320FB
:10FF2600202020002020204D454E55204D4F544F77
:10FF36005220202000204D454E552053454355451F
:10FF46004E4349412000312E442020322E492020A4
:10FF5600332E4F46462000204D454E5520505249DF
:10FF66004E434950414C200020204D454E552053CC
:10FF7600454E534F5245532000312E5331202032E7
:10FF86002E5332202020202D3E00312E4C45445346
:10FF96002020322E432020202D3E004D454E552058
:10FFA6002043414C454E5441444F52004D55592033
:10FFB60043455243414E4F20200048415920554E5B
:10FFC600204F424A45544F0054454D5045524154E6
:10FFD60055524100543A2025302E316600454C4595
:10FFE6005641444100443A202530336400696E6628
:09FFF600006E616E00636D0000F5
:020000040001F9
:10000000000E0501816F30C582F531C583F532C51B
:1000100084F533C585F585BF12EF80F010EF80F0D1
:1000200026EF80F0010E816F82C501F583C502F5D0
:1000300084C503F585C504F5B9ECA4F001C582F5C6
:1000400002C583F503C584F504C585F5000E0501D9
:10005000876F000E866FD9C571F5DAC572F58151CB
:10006000D8B435EF80F037EF80F04BEF80F081515E
:10007000D8A43DEF80F03FEF80F045EF80F0000E18
:10008000676F2B0E666F49EF80F0000E676F2D0EC5
:10009000666F66C581F582C501F583C502F584C525
:1000A00003F585C504F59EEC9EF001040210D8A46A
:1000B0005CEF80F05EEF80F091EF80F00501815100
:1000C000D8B465EF80F067EF80F070EF80F081C505
:1000D00000F67107D8A07207000E876F010E866FB9
:1000E000000E8625016E060E8721026EF30E036E4A
:1000F000FF0E046E35ECA4F00501FD0E7127FF0E16
:1001000072232EC511F52FC512F5000E136E060EC3
:10011000146E71C515F572C516F5EEEC9FF031EF52
:1001200085F082C501F583C502F584C503F585C553
:1001300004F59EEC9EF001500210D8A4A2EF80F0CE
:10014000A4EF80F0C4EF80F005018151D8B4ABEF8B
:1001500080F0ADEF80F0B6EF80F081C500F671075A
:10016000D8A07207000E876F010E866F000E8625DD
:10017000016E060E8721026EF70E036EFF0E046EEF
:1001800035ECA4F07CEF80F0000E0501886F000EC6
:10019000896F800E8A6F3F0E8B6F000E706F000E9E
:1001A0006F6F82C501F583C502F584C503F585C56A
:1001B00004F5000E056E000E066E000E076E000EB2
:1001C000086E45ECA0F0D8B0E8EF80F0EAEF80F0E0
:1001D000C9EF81F0F7EF80F073C588F574C589F534
:1001E00075C58AF576C58BF505016F4B702B88C5F3
:1001F00001F589C502F58AC503F58BC504F5000E26
:10020000056E000E066E200E076E410E086E4AEC5B
:100210008AF001C573F502C574F503C575F504C50B
:1002200076F505017351825D016E74518359026E3A
:1002300075518459036E76518559046E75ECA2F0A0
:1002400004BE2EEF81F004500310021009E1020EEB
:10025000015CD8A02EEF81F030EF81F0ECEF80F060
:1002600073C51AF574C51BF575C51CF576C51DF566
:1002700082C51EF583C51FF584C520F585C521F50A
:100280001CEC9EF0D8A047EF81F049EF81F0ECEF35
:1002900080F005018851825D016E89518359026E9B
:1002A0008A518459036E8B518559046E75ECA2F006
:1002B00004BE68EF81F004500310021007E1020E43
:1002C000015CD8B066EF81F068EF81F0B0EF81F0AB
:1002D00088C582F589C583F58AC584F58BC585F502
:1002E000C9EF81F088C501F589C502F58AC503F516
:1002F0008BC504F5000E056E000E066E200E076E0F
:10030000410E086E53EC8EF001C588F502C589F5E3
:1003100003C58AF504C58BF505016F07D8A07007E2
:100320008851825D016E89518359026E8A518459C8
:10033000036E8B518559046E75ECA2F004BEAEEFCE
:1003400081F004500310021007E1020E015CD8B0E6
:10035000ACEF81F0AEEF81F0B0EF81F068EF81F0AB
:1003600082C51AF583C51BF584C51CF585C51DF529
:1003700088C51EF589C51FF58AC520F58BC521F5F1
:100380001CEC9EF0D8A0C7EF81F0C9EF81F072EFAE
:1003900081F034C569F569C56AF50501DCBFD3EFA5
:1003A00081F0D5EF81F0DBEF81F0DBC562F5DCC5D4
:1003B00063F5DFEF81F0000E636F060E626F62C5BA
:1003C0006DF563C56EF56D4B6E2B660E6A19D8A47C
:1003D000ECEF81F0EEEF81F00EEF82F070BFF5EF01
:1003E00081F0F3EF81F001EF82F0000E886F000ED4
:1003F000896F800E8A6F3F0E8B6F000E706F000E3C
:100400006F6F670E6919D8B408EF82F00AEF82F0B7
:100410000EEF82F06F516D2770516E23000E806FCA
:10042000000E7F6F82C577F583C578F584C579F5B1
:1004300085C57AF588C573F589C574F58AC575F5DE
:100440008BC576F59FEF82F077C501F578C502F58B
:1004500079C503F57AC504F588C505F589C506F59E
:100460008AC507F58BC508F553EC8EF001C51AF562
:1004700002C51BF503C51CF504C51DF591EC99F0EB
:100480001AC57BF51BC57CF51CC57DF51DC57EF524
:100490007BC501F57CC502F57DC503F57EC504F578
:1004A00099EC9DF001C56BF502C56CF577C51AF5A1
:1004B00078C51BF579C51CF57AC51DF57BC505F515
:1004C0007CC506F57DC507F57EC508F588C501F52F
:1004D00089C502F58AC503F58BC504F54AEC8AF097
:1004E00001C51EF502C51FF503C520F504C521F59C
:1004F000CCECA3F01AC577F51BC578F51CC579F5CA
:100500001DC57AF588C501F589C502F58AC503F5CB
:100510008BC504F5000E056E000E066E200E076EEC
:10052000410E086E53EC8EF001C588F502C589F5C1
:1005300003C58AF504C58BF505017F4B802B6D51F2
:100540007F5D8051800A356E6E51800A3558D8A083
:10055000ACEF82F0AEEF82F024EF82F088C501F5B7
:1005600089C502F58AC503F58BC504F5000E056E35
:10057000000E066EA00E076E400E086E4AEC8AF062
:1005800001C57BF502C57CF503C57DF504C57EF587
:1005900077C51AF578C51BF579C51CF57AC51DF523
:1005A0007BC51EF57CC51FF57DC520F57EC521F5F3
:1005B0001CEC9EF0D8B0DFEF82F0E1EF82F0ECEFC0
:1005C00082F0000E05017B6F000E7C6F000E7D6FC8
:1005D000000E7E6F15EF83F077C501F578C502F543
:1005E00079C503F57AC504F57BC505F57CC506F527
:1005F0007DC507F57EC508F545ECA0F0D8A003EF52
:1006000083F005EF83F015EF83F005016BB10BEF7D
:1006100083F00DEF83F015EF83F0000E7B6F000E7B
:100620007C6F000E7D6F000E7E6F82C501F583C565
:1006300002F584C503F585C504F57BC505F57CC5C4
:1006400006F57DC507F57EC508F5EAEC87F001C51E
:1006500077F502C578F503C579F504C57AF577C550
:100660001AF578C51BF579C51CF57AC51DF5000E80
:10067000056E000E066E200E076E410E086E73C5E5
:1006800001F574C502F575C503F576C504F54AECA8
:100690008AF001C51EF502C51FF503C520F504C586
:1006A00021F51CEC9EF0D8A058EF83F05AEF83F0B0
:1006B00083EF83F005016F4B702B73C501F574C593
:1006C00002F575C503F576C504F5000E056E000E3E
:1006D000066E200E076E410E086E4AEC8AF001C5C8
:1006E00073F502C574F503C575F504C576F5660E98
:1006F00005016A19D8A47FEF83F081EF83F083EFBF
:1007000083F06D4B6E2B73C588F574C589F575C57F
:100710008AF576C58BF56FC560F570C561F5000E7D
:100720000501686F000E656F000E646F000E806F2C
:10073000000E7F6F81EF84F077C501F578C502F573
:1007400079C503F57AC504F588C505F589C506F5AB
:100750008AC507F58BC508F553EC8EF001C51AF56F
:1007600002C51BF503C51CF504C51DF591EC99F0F8
:100770001AC57BF51BC57CF51CC57DF51DC57EF531
:100780007BC501F57CC502F57DC503F57EC504F585
:1007900099EC9DF002BED8EF83F0025007E10A0EFB
:1007A000015CD8B0D6EF83F0D8EF83F0E8EF83F0A8
:1007B0007BC501F57CC502F57DC503F57EC504F555
:1007C00099EC9DF001C56BF502C56CF5EDEF83F07A
:1007D000000E05016C6F090E6B6F05016851D8A4FE
:1007E000F4EF83F0F6EF83F01EEF84F061BFFDEFCE
:1007F00083F0FBEF83F01EEF84F0000E8625D96EA8
:10080000060E8721DA6E2E0EDF6E864B872B710760
:10081000D8A07207010E686F1EEF84F0000E8625C7
:10082000D96E060E8721DA6E300EDF6E864B872B6F
:100830007107D8A072076407D8A0650764516511D5
:10084000D8A425EF84F027EF84F00EEF84F0000E9B
:100850008625D96E060E8721DA6E6B51300FDF6E5A
:10086000864B872B7107D8A0720777C51AF578C514
:100870001BF579C51CF57AC51DF57BC505F57CC54D
:1008800006F57DC507F57EC508F588C501F589C55E
:1008900002F58AC503F58BC504F54AEC8AF001C55B
:1008A0001EF502C51FF503C520F504C521F5CCECE6
:1008B000A3F01AC577F51BC578F51CC579F51DC5DC
:1008C0007AF588C501F589C502F58AC503F58BC59A
:1008D00004F5000E056E000E066E200E076E410E2A
:1008E000086E53EC8EF001C588F502C589F503C585
:1008F0008AF504C58BF505016007D8A061077F4B19
:10090000802B6D517F5D8051800A356E6E51800A5B
:100910003558D8B08EEF84F090EF84F09EEF84F0DD
:1009200087BF9CEF84F0875109E14B0E865DD8A00C
:100930009CEF84F09EEF84F09CEF83F0000E806FBC
:100940004F0E7F6F000E7F25D96E060E8021DA6E66
:10095000000EDF6E000E356E060E366E8651355E69
:100960008751365A7F513524016E80513620026EF0
:10097000000E036E060E046E86C505F587C506F5E6
:1009800056ECA3F0050186517F5D866F8751805933
:10099000876F8151D8A4CFEF84F0D2EF84F0010E9D
:1009A000D3EF84F0000E7F6F806BE3A3DAEF84F067
:1009B000DCEF84F00AEF85F0ECEF84F08607D8A036
:1009C0008707000E8625D96E060E8721DA6E300E57
:1009D000DF6E7107D8A0720771517F5D8051800A68
:1009E000356E7251800A3558D8B0F9EF84F0FBEFBC
:1009F00084F00AEF85F086517F5D8051800A356E64
:100A00008751800A3558D8A008EF85F00AEF85F0A5
:100A1000DEEF84F08151D8B410EF85F012EF85F04D
:100A20001DEF85F08607D8A08707000E8625D96EB2
:100A3000060E8721DA6E81C5DFF47F51715F805128
:100A4000725B2EC511F52FC512F5000E8625136EAB
:100A5000060E8721146E71C515F572C516F5EEECFC
:100A60009FF0120041C5D9F442C5DAF4DEC4F6F4B1
:100A7000DDC4F7F4000EF86E0800F550250AD8A47E
:100A800044EF85F046EF85F0D3EF87F041C5D9F408
:100A900042C5DAF4DE2A000EDD22000E0501DA6F0F
:100AA000000ED96FD9C5E3F5DB69DC69000E496E2C
:100AB000000E486E89EF85F00501E38341C5D9F446
:100AC00042C5DAF4DE2A000EDD2289EF85F0000E41
:100AD000496E010E486E89EF85F041C5D9F442C5D3
:100AE000DAF4DEC4F6F4DDC4F7F4000EF86E0800A4
:100AF000F550456E466A4650000AD8B482EF85F03C
:100B000067EF85F04550300AD8B45CEF85F067EFA9
:100B100085F048504910D8B490EF85F092EF85F0F9
:100B20006DEF85F041C5D9F442C5DAF4DEC4F6F4C0
:100B3000DDC4F7F4000EF86E0800F5502A0AD8A4B8
:100B4000A4EF85F0A6EF85F0D0EF85F041C5D9F48C
:100B500042C5DAF4DE2A000EDD2243C5D9F444C5CD
:100B6000DAF4DFC445F5020EDE26DFC446F5000EDA
:100B7000DD2245C5D9F446C5DAF4DEC4D9F5DDC4B5
:100B8000DAF50501DABFC9EF85F0C7EF85F005EFAB
:100B900086F0E381D96DDA1FD8B0DA2B05EF86F045
:100BA00041C5D9F442C5DAF4DEC407F5DDC408F561
:100BB000EAEC9CF007C5D9F508C5DAF5E7EF85F052
:100BC00041C5D9F442C5DAF4DE2A000EDD2241C562
:100BD000D9F442C5DAF4DEC4F6F4DDC4F7F4000E4D
:100BE000F86E0800F5C445F5D00E4524466E476AF8
:100BF000FF0E4722475009E10A0E465CD8A003EFDA
:100C000086F005EF86F0E0EF85F041C5D9F442C5E6
:100C1000DAF4DEC4F6F4DDC4F7F4000EF86E080072
:100C2000F5502E0AD8A417EF86F019EF86F08BEF57
:100C300086F0000E0501DC6F000EDB6F41C5D9F4B4
:100C400042C5DAF4DE2A000EDD2241C5D9F442C5E0
:100C5000DAF4DEC4F6F4DDC4F7F4000EF86E080032
:100C6000F5502A0AD8A437EF86F039EF86F056EF10
:100C700086F041C5D9F442C5DAF4DE2A000EDD2241
:100C800043C5D9F444C5DAF4DFC445F5020EDE26C7
:100C9000DFC446F5000EDD2245C5D9F446C5DAF4B9
:100CA000DEC4DBF5DDC4DCF58BEF86F041C5D9F49D
:100CB00042C5DAF4DEC407F5DDC408F5EAEC9CF0C1
:100CC00007C5DBF508C5DCF56DEF86F041C5D9F445
:100CD00042C5DAF4DE2A000EDD2241C5D9F442C550
:100CE000DAF4DEC4F6F4DDC4F7F4000EF86E0800A2
:100CF000F5C445F5D00E4524466E476AFF0E4722DF
:100D0000475009E10A0E465CD8A089EF86F08BEFC8
:100D100086F066EF86F041C5D9F442C5DAF4DEC448
:100D200053F5DDC454F553C5F6F454C5F7F4000E7D
:100D3000F86E0800F550640AD8B4A1EF86F0A3EF6E
:100D400086F0B3EF86F053C5F6F454C5F7F4000E01
:100D5000F86E0800F550690AD8A4B1EF86F0B3EF39
:100D600086F0F6EF86F043C5D9F444C5DAF4DFC463
:100D700045F5020EDE26DFC446F5000EDD2245C530
:100D8000D9F446C5DAF4DEC44AF5DDC44BF5000EED
:100D90004BBEFF0E4C6E4D6E4E6E4F6E506E516ED2
:100DA000010E5324456E000E5420466E41C5D9F401
:100DB00042C5DAF445C5DEF446C5DDF43FC51CF591
:100DC00040C51DF54AC51EF54BC51FF54CC520F5A0
:100DD0004DC521F54EC522F54FC523F550C524F567
:100DE00051C525F5E3EC91F0E9EF87F041C5D9F461
:100DF00042C5DAF4DEC453F5DDC454F553C5F6F448
:100E000054C5F7F4000EF86E0800F5C452F515EF5E
:100E100087F0534A542A2EEF87F06C0E526E2EEF55
:100E200087F0000E526E2EEF87F05250456E466AE4
:100E30004650000AD8B41FEF87F011EF87F04550F5
:100E40004C0AD8B409EF87F02A0AD8B40DEF87F01E
:100E50000A0AD8B409EF87F011EF87F053C5F6F40A
:100E600054C5F7F4000EF86E0800F550660AD8A4D1
:100E70003CEF87F03EEF87F0CAEF87F074EF87F022
:100E800043C5D9F444C5DAF4DFC445F5040EDE26C3
:100E9000DFC446F5000EDD2245C5D9F446C5DAF4B7
:100EA000DEC44AF5DEC44BF5DEC44CF5DEC44DF5B8
:100EB00089EF87F043C5D9F444C5DAF4DFC445F5BA
:100EC000040EDE26DFC446F5000EDD2245C5D9F44A
:100ED00046C5DAF4DEC44AF5DEC44BF5DEC44CF593
:100EE000DEC44DF589EF87F05250456E466A465094
:100EF000000AD8B47EEF87F089EF87F045504C0A9E
:100F0000D8B45AEF87F0200AD8B440EF87F089EFC1
:100F100087F0010E5324456E000E5420466E41C5E5
:100F2000D9F442C5DAF445C5DEF446C5DDF4B2EFC6
:100F300087F03FC52EF540C52FF54AC530F54BC5A6
:100F400031F54CC532F54DC533F553C5F6F454C5EE
:100F5000F7F4000EF86E0800F5C434F500EC80F0EC
:100F6000E9EF87F053C5F6F454C5F7F4000EF86EB8
:100F70000800F550456E466A4650000AD8B4C3EFE3
:100F800087F0CAEF87F04550660AD8B499EF87F02A
:100F9000CAEF87F041C5D9F442C5DAF4DE2A000E63
:100FA000DD22E9EF87F041C5D9F442C5DAF4DEC4A9
:100FB000F6F4DDC4F7F4000EF86E0800F550016E8B
:100FC000026A3FC503F540C504F589EC9FF0CAEFFE
:100FD00087F012000450800B0D6E045004240F6E35
:100FE00003AEF5EF87F0F7EF87F0F8EF87F00F80AB
:100FF0000F50D8B4FEEF87F000EF88F015EF88F0BF
:101000000F28D8A406EF88F008EF88F010EF88F0DA
:10101000000E016E000E026E000E036E000E046ED6
:10102000038E000E046E1DEF88F0000E016E000EA0
:10103000026E000E036E000E046E0850800B0E6EE2
:101040000D500E18D8B427EF88F029EF88F02AEF5A
:1010500088F00D8C085008240E6E07AE32EF88F031
:1010600034EF88F035EF88F00E800E50D8B43BEFA7
:1010700088F03DEF88F052EF88F00E28D8A443EFB7
:1010800088F045EF88F04DEF88F0000E056E000EF9
:10109000066E000E076E000E086E078E000E086EBC
:1010A0005AEF88F0000E056E000E066E000E076EF9
:1010B000000E086E0F500E5CD8B061EF88F063EF41
:1010C00088F08AEF88F00DAC68EF88F06AEF88F05E
:1010D0006CEF88F0800E0D1A0FC510F50EC50FF5D8
:1010E00010C50EF501C510F505C501F510C505F5CE
:1010F00002C510F506C502F510C506F503C510F5C5
:1011000007C503F510C507F504C510F508C504F5B6
:1011100010C508F5000E106E0F500EC509F50A6ACD
:10112000095E000E0A5A0ABE9FEF88F00A5009E1D4
:101130001A0E095CD8A09FEF88F0A1EF88F0D8EFD5
:1011400088F00150021003100410D8A4AAEF88F010
:10115000ADEF88F0010EAEEF88F0000E106E000EBD
:10116000016E000E026E000E036E000E046E0EC5C0
:101170000FF5E1EF88F010A0C0EF88F0C2EF88F023
:10118000C8EF88F0D89010300109106ECAEF88F0CF
:10119000D890103201A0CFEF88F0D1EF88F0D2EFD5
:1011A00088F0108E043404320332023201320F2AE6
:1011B0000E500F5CD8A0DFEF88F0E1EF88F0BBEFB6
:1011C00088F00DBCE6EF88F0E8EF88F028EF89F0B2
:1011D0000F50D8A4EEEF88F0F0EF88F0FAEF88F027
:1011E000000E016E000E026E000E036E000E046E05
:1011F00049EF8AF0055001260650022207500322CB
:101200000850042204A007EF89F009EF89F0B5EF38
:1012100089F010A00EEF89F010EF89F016EF89F039
:10122000D89010300109106E18EF89F0D890103264
:1012300001A01DEF89F01FEF89F020EF89F0108EDB
:10124000043404320332023201320F2AB5EF89F03E
:101250000550015C06500258075003580450800A9C
:10126000096E0850800A0958D8B039EF89F03BEF71
:1012700089F066EF89F00150055C096E025006584E
:101280000A6E035007580B6E045008580C6EFF0E80
:101290000924016EFF0E0A20026EFF0E0B20036E62
:1012A000FF0E0C20046E800E0D1A106C1050D8A486
:1012B0005CEF89F05EEF89F06EEF89F0010E012698
:1012C000000E0222032204226EEF89F00550015E17
:1012D0000650025A0750035A0850045A015002108F
:1012E00003100410D8A477EF89F079EF89F0AEEFFE
:1012F00089F01050D8A47FEF89F081EF89F0AEEF2C
:1013000089F0000E016E000E026E000E036E000EDC
:10131000046E49EF8AF0D89001360236033604365F
:1013200010AE95EF89F097EF89F098EF89F0018082
:1013300010A09DEF89F09FEF89F0A3EF89F0D8808E
:101340001036A5EF89F0D89010360F50D8B4ABEF17
:1013500089F0ADEF89F0AEEF89F00F0603AEB3EF81
:1013600089F0B5EF89F08BEF89F0000E0E6E10AEAC
:10137000BCEF89F0BEEF89F0D6EF89F010C509F512
:101380007F0E0916D8B4C7EF89F0C9EF89F0CDEF09
:1013900089F0010E0E6ED6EF89F001A0D2EF89F030
:1013A000D4EF89F0D6EF89F0C9EF89F00E50D8B4A8
:1013B000DCEF89F0DEEF89F009EF8AF0010E0126FB
:1013C000000E02220322042204A0E9EF89F0EBEFD1
:1013D00089F009EF8AF001C509F502C50AF503C5D0
:1013E0000BF504C50CF50C340C320B320A32093201
:1013F00009C501F50AC502F50BC503F50CC504F5D1
:101400000F28D8B406EF8AF008EF8AF009EF8AF0C7
:101410000F2A0F28D8B40FEF8AF011EF8AF019EFD6
:101420008AF00F50D8A417EF8AF019EF8AF02BEF4B
:101430008AF0000E016E000E026E000E036E000EAA
:10144000046E0F50D8A427EF8AF029EF8AF02BEF13
:101450008AF0000E0D6E0FA030EF8AF032EF8AF0A6
:1014600035EF8AF0038E36EF8AF0039ED8900F3066
:10147000046E0DAE3EEF8AF040EF8AF041EF8AF045
:10148000048E01C501F502C502F503C503F504C5C7
:1014900004F512000450800B0D6E04500424136EEA
:1014A00003AE55EF8AF057EF8AF058EF8AF01380B9
:1014B0001350D8B45EEF8AF060EF8AF073EF8AF0D1
:1014C0001328D8A466EF8AF068EF8AF070EF8AF0EC
:1014D000000E016E000E026E000E036E000E046E12
:1014E000038E7BEF8AF0000E016E000E026E000E7E
:1014F000036E000E046E0850800B0D1A085008246D
:10150000126E07AE86EF8AF088EF8AF089EF8AF0D4
:1015100012801250D8B48FEF8AF091EF8AF0A4EFC6
:101520008AF01228D8A497EF8AF099EF8AF0A1EFF9
:101530008AF0000E056E000E066E000E076E000E9D
:10154000086E078EACEF8AF0000E056E000E066E78
:10155000000E076E000E086E1250D8B4B2EF8AF07B
:10156000B4EF8AF0BCEF8AF01350D8A4BAEF8AF037
:10157000BCEF8AF0C6EF8AF0000E016E000E026E1C
:10158000000E036E000E046E5EEF8CF00750010239
:10159000F3C418F5F4C419F518500E6E0F6A106AEA
:1015A000116A1950146E156A166A176A06500202FB
:1015B000F3C418F5F4C419F518500E26000E0F22C6
:1015C0001022112219501426000E1522162217225D
:1015D00005500302F3C418F5F4C419F518500E268B
:1015E000000E0F221022112219501426000E15226F
:1015F0001622172210C511F50FC510F50EC50FF5EF
:101600000E6A05500202F3C418F5F4C419F5185017
:101610000E2619500F22000E1022000E1122065025
:101620000102F3C418F5F4C419F518500E26195028
:101630000F22000E1022000E112210C511F50FC549
:1016400010F50EC50FF50E6A05500102F3C418F52A
:10165000F4C419F518500E2619500F22000E10224E
:10166000000E112207500202F3C418F5F4C419F554
:101670001850142619501522000E1622000E17229B
:1016800006500302F3C418F5F4C419F518501426D3
:1016900019501522000E1622000E172207500302C1
:1016A000F3C418F5F4C419F51850096E19500A6EF0
:1016B0000B6A0C6A0BC50CF50AC50BF509C50AF5D2
:1016C000096A095014260A5015220B5016220C5094
:1016D00017220EC509F50FC50AF510C50BF511C582
:1016E0000CF5190E79EF8BF0D8900C320B320A32D0
:1016F0000932E82E74EF8BF0095014260A50152297
:101700000B5016220C50172210C511F50FC510F5FD
:101710000EC50FF50E6A125013C509F50A6A09269F
:10172000000E0A22820E0924186EFF0E0A20196E7E
:10173000AFEF8BF0D890143615361636173611AE3B
:10174000A4EF8BF0A6EF8BF0A7EF8BF01480D8906E
:101750000E360F36103611361806D8A0190616AEFA
:10176000B4EF8BF0B6EF8BF09AEF8BF0000E126EA9
:1017700011AEBDEF8BF0BFEF8BF0E3EF8BF0FF0E00
:101780000E14096EFF0E0F140A6EFF0E10140B6E6E
:101790007F0E11140C6E09500A100B100C10D8B4E7
:1017A000D4EF8BF0D6EF8BF0DAEF8BF0010E126EE8
:1017B000E3EF8BF014A0DFEF8BF0E1EF8BF0E3EFC2
:1017C0008BF0D6EF8BF01250D8B4E9EF8BF0EBEF43
:1017D0008BF00FEF8CF0010E1426000E152216224E
:1017E000172217A0F6EF8BF0F8EF8BF00FEF8CF0CD
:1017F00014C509F515C50AF516C50BF517C50CF581
:101800000C340C320B320A32093209C514F50AC500
:1018100015F50BC516F50CC517F5184A192A19BE8A
:101820001AEF8CF0195008E11828D8A01AEF8CF0A4
:101830001CEF8CF026EF8CF0000E146E000E156E6F
:10184000800E166E7F0E176E54EF8CF019BE33EFBC
:101850008CF0195006E11804D8B031EF8CF033EF5A
:101860008CF03FEF8CF0000E146E000E156E000E23
:10187000166E000E176E000E0D6E54EF8CF018C52C
:1018800013F5FF0E1416FF0E15167F0E1616000E1A
:10189000171613A04EEF8CF050EF8CF051EF8CF038
:1018A000168ED8901330176E0D50171214C501F50F
:1018B00015C502F516C503F517C504F51200010E8E
:1018C0000C6E3B0E0D6EFF0E0E6E010E3EECA2F086
:1018D000010E0C6EF70E0D6EFE0E0E6E020E3EEC3D
:1018E000A2F0100E0C6E000E0D6E020E63ECA5F051
:1018F000D1B07DEF8CF07FEF8CF09BEF8CF0D1A01E
:1019000084EF8CF086EF8CF07FEF8CF00501A74B15
:10191000A82BA8BF95EF8CF0A85109E1040EA75D94
:10192000D8A095EF8CF097EF8CF09BEF8CF0000E29
:10193000A86F010EA76FD1B2A0EF8CF0A2EF8CF0D0
:1019400018EF8EF0D1A2A7EF8CF0A9EF8CF0A2EFE8
:101950008CF00501A707D8A0A80718EF8EF0010E9C
:101960000C6E3C0E0D6E020E63ECA5F0020E0C6EBA
:101970002D0E0D6E020E63ECA5F0090E126E1E0EFA
:10198000116EE40EE82EFED7112EFCD7122EFAD7D8
:1019900000D0010E0C6E200E0D6E020E63ECA5F051
:1019A000020E0C6E200E0D6E020E63ECA5F0090EF9
:1019B000126E1E0E116EE40EE82EFED7112EFCD70D
:1019C000122EFAD700D00B0E0C6E200E0D6E020EEA
:1019D00063ECA5F0D1B0EFEF8CF0F1EF8CF0FBEF02
:1019E0008CF0D1A0F6EF8CF0F8EF8CF0F1EF8CF0EA
:1019F0000501A74BA82BD1B200EF8DF002EF8DF0BF
:101A00001EEF8DF0D1A207EF8DF009EF8DF002EF00
:101A10008DF00501A707D8A0A807A8BF1AEF8DF081
:101A2000A85106E1A705D8B018EF8DF01AEF8DF098
:101A30001EEF8DF0000EA86F030EA76FCFB823EF37
:101A40008DF025EF8DF02CEF8DF044ECA5F0000E1D
:101A50000501E06F020EDF6F0501A705A811D8A4EC
:101A600034EF8DF036EF8DF032EF8EF0CFB83BEFE4
:101A70008DF03DEF8DF0AFEF8CF032EF8EF00B0E6E
:101A80000C6E3C0E0D6E020E63ECA5F0CFB84BEF62
:101A90008DF04DEF8DF032EF8EF0CFA852EF8DF03C
:101AA00054EF8DF04DEF8DF0010E0501E56F89EFDC
:101AB0008DF0C00EBE6E87ECA1F0E00EBE6E87EC1E
:101AC000A1F0F00EBE6E87ECA1F0F80EBE6E87ECB2
:101AD000A1F0FC0EBE6E87ECA1F0FE0EBE6E87EC90
:101AE000A1F0FC0EBE6E87ECA1F0F80EBE6E87EC86
:101AF000A1F0F00EBE6E87ECA1F0E00EBE6E87EC9A
:101B0000A1F0C00EBE6E87ECA1F0800EBE6E87EC19
:101B1000A1F00501E505D8B490EF8DF092EF8DF0BE
:101B200059EF8DF032EF8EF00B0E0C6E200E0D6E15
:101B3000020E63ECA5F0100E0C6E000E0D6E020E80
:101B400063ECA5F0090E126E1E0E116EE40EE82E67
:101B5000FED7112EFCD7122EFAD700D0100E0C6E25
:101B6000200E0D6E020E63ECA5F0090E126E1E0E15
:101B7000116EE40EE82EFED7112EFCD7122EFAD7E6
:101B800000D0D1B0C6EF8DF0C8EF8DF0E4EF8DF04E
:101B9000D1A0CDEF8DF0CFEF8DF0C8EF8DF0050126
:101BA000A74BA82BA8BFDEEF8DF0A85109E1040ECA
:101BB000A75DD8A0DEEF8DF0E0EF8DF0E4EF8DF0C3
:101BC000000EA86F010EA76FD1B2E9EF8DF0EBEF19
:101BD0008DF0F6EF8DF0D1A2F0EF8DF0F2EF8DF0F9
:101BE000EBEF8DF00501A707D8A0A807CFB8FBEF52
:101BF0008DF0FDEF8DF004EF8EF044ECA5F0000EBB
:101C00000501E06F000EDF6F030E0501A719A81193
:101C1000D8A40DEF8EF00FEF8EF032EF8EF0CFB82C
:101C200014EF8EF016EF8EF094EF8DF032EF8EF011
:101C3000A7C511F5A8C512F51250000AD8B423EFB4
:101C40008EF032EF8EF01150010AD8B42CEF8DF0E7
:101C5000030AD8B43FEF8DF0010AD8B404EF8EF038
:101C600032EF8EF0CFB837EF8EF039EF8EF052EFC3
:101C70008EF044ECA5F0A7C511F5A8C512F51250D9
:101C8000000AD8B446EF8EF04DEF8EF01150020AE4
:101C9000D8B44DEF8EF04DEF8EF0000E0501A86F19
:101CA000010EA76F12000450800B116E0450042423
:101CB000186E03AE5EEF8EF060EF8EF061EF8EF087
:101CC00018801850D8B467EF8EF069EF8EF07EEF71
:101CD0008EF01828D8A46FEF8EF071EF8EF079EFA8
:101CE0008EF0000E016E000E026E000E036E000EEE
:101CF000046E038E000E046E86EF8EF0000E016EF1
:101D0000000E026E000E036E000E046E0850800B73
:101D1000111A08500824196E07AE91EF8EF093EF58
:101D20008EF094EF8EF019801950D8B49AEF8EF09F
:101D30009CEF8EF0B1EF8EF01928D8A4A2EF8EF0B0
:101D4000A4EF8EF0ACEF8EF0000E056E000E066E66
:101D5000000E076E000E086E078E000E086EB9EFBB
:101D60008EF0000E056E000E066E000E076E000E61
:101D7000086E0550061007100810D8A4C2EF8EF0A8
:101D8000C4EF8EF0DCEF8EF0000E016E000E026EDE
:101D9000000E036E000E046E800E03127F0E0412FE
:101DA0001150041201C501F502C502F503C503F582
:101DB00004C504F51FEF90F01850D8A4E2EF8EF0A0
:101DC000E4EF8EF0EEEF8EF0000E016E000E026E6C
:101DD000000E036E000E046E1FEF90F0195018C530
:101DE00009F50A6A095E000E0A5A7F0E0924126E6E
:101DF000000E0A20136E01C50DF502C50EF503C5D0
:101E00000FF504C510F5000E016E000E026E000EF7
:101E1000036E000E046E000E146E000E156E000EA2
:101E2000166E000E176E000E196E4FEF8FF01950E0
:101E3000D8B41DEF8FF01FEF8FF036EF8FF0D890F2
:101E40000D360E360F361036D89001360236033670
:101E5000043617AE2EEF8FF030EF8FF031EF8FF0AA
:101E60000180D890143615361636173605500D5C9D
:101E700006500E5807500F5808501058D8A043EF7E
:101E80008FF045EF8FF04EEF8FF0178C05500D5E01
:101E900006500E5A07500F5A0850105A192A190E98
:101EA000196455EF8FF057EF8FF017EF8FF00D504B
:101EB0000E100F101010D8B460EF8FF062EF8FF09B
:101EC0007AEF8FF014807AEF8FF0D89001360236D7
:101ED0000336043617AE6FEF8FF071EF8FF072EFAD
:101EE0008FF00180D8901436153616361736120644
:101EF000D8A0130603AE7FEF8FF081EF8FF065EF70
:101F00008FF0000E196E17AE88EF8FF08AEF8FF00A
:101F1000AEEF8FF0FF0E1414096EFF0E15140A6E4B
:101F2000FF0E16140B6E7F0E17140C6E09500A105C
:101F30000B100C10D8B49FEF8FF0A1EF8FF0A5EF2E
:101F40008FF0010E196EAEEF8FF001A0AAEF8FF0A7
:101F5000ACEF8FF0AEEF8FF0A1EF8FF01950D8B447
:101F6000B4EF8FF0B6EF8FF0DAEF8FF0010E0126AD
:101F7000000E02220322042204A0C1EF8FF0C3EF5F
:101F80008FF0DAEF8FF001C509F502C50AF503C538
:101F90000BF504C50CF50C340C320B320A32093245
:101FA00009C501F50AC502F50BC503F50CC504F515
:101FB000124A132A13BEE5EF8FF0135008E11228DE
:101FC000D8A0E5EF8FF0E7EF8FF0F2EF8FF0000E83
:101FD000136E1268000E016E000E026E000E036E8C
:101FE000000E046E13BEFFEF8FF0135006E11204D3
:101FF000D8B0FDEF8FF0FFEF8FF00DEF90F0000EF7
:10200000136E000E126E000E016E000E026E000EB8
:10201000036E000E046E000E116E12C518F518A0A6
:1020200014EF90F016EF90F019EF90F0038E1AEF86
:1020300090F0039ED8901830046ED0EF8EF012000E
:10204000010E0C6E3B0E0D6EFF0E0E6E010E3EEC81
:10205000A2F0010E0C6E7F0E0D6EFF0E0E6E020EC4
:102060003EECA2F0D1B037EF90F039EF90F043EFB3
:1020700090F0D1A03EEF90F040EF90F039EF90F06B
:102080000501A74BA82BD1B248EF90F04AEF90F092
:10209000A4EF91F0D1A24FEF90F051EF90F04AEF02
:1020A00090F00501A707D8A0A807A8BF62EF90F09D
:1020B000A85106E1A705D8B060EF90F062EF90F06C
:1020C000A4EF91F0000EA86F030EA76FA4EF91F09C
:1020D000050E0C6E3C0E0D6E020E63ECA5F00B0EA1
:1020E0000C6E200E0D6E020E63ECA5F0CFB87BEFE8
:1020F00090F07DEF90F0BEEF91F0CFA882EF90F0DE
:1021000084EF90F07DEF90F0010E0501E56FACEFEC
:1021100090F0000EBE6EEDECA0F0810EBE6EEDEC08
:10212000A0F0C30EBE6EEDECA0F0E70EBE6EEDECBF
:10213000A0F0BE68EDECA0F0E70EBE6EEDECA0F0F6
:10214000C30EBE6EEDECA0F0010EBE6EEDECA0F085
:10215000000EBE6EEDECA0F00501E505D8B4B3EFBE
:1021600090F0B5EF90F089EF90F0BEEF91F0050E92
:102170000C6E200E0D6E020E63ECA5F00B0E0C6EB5
:102180003C0E0D6E020E63ECA5F0CFB8CAEF90F0D6
:10219000CCEF90F0BEEF91F0CFA8D1EF90F0D3EF5D
:1021A00090F0CCEF90F0010E0501E56F00EF91F09B
:1021B000AA0EBE6E9AECA0F0550EBE6E9AECA0F080
:1021C000AA0EBE6E9AECA0F0550EBE6E9AECA0F070
:1021D000AA0EBE6E9AECA0F0550EBE6E9AECA0F060
:1021E000AA0EBE6E9AECA0F0550EBE6E9AECA0F050
:1021F000AA0EBE6E9AECA0F0550EBE6E9AECA0F040
:102200000501E505D8B407EF91F009EF91F0D8EF9B
:1022100090F0BEEF91F0050E0C6E200E0D6E020ECA
:1022200063ECA5F00B0E0C6E200E0D6E020E63EC2F
:10223000A5F00F0E0C6E200E0D6E020E63ECA5F0D5
:10224000100E0C6E200E0D6E020E63ECA5F0090E42
:10225000126E1E0E116EE40EE82EFED7112EFCD764
:10226000122EFAD700D00F0E0C6E2D0E0D6E020E30
:1022700063ECA5F0100E0C6E3E0E0D6E020E63ECBC
:10228000A5F0090E126E1E0E116EE40EE82EFED79A
:10229000112EFCD7122EFAD700D0D1B052EF91F008
:1022A00054EF91F070EF91F0D1A059EF91F05BEF06
:1022B00091F054EF91F00501A74BA82BA8BF6AEF4E
:1022C00091F0A85109E1040EA75DD8A06AEF91F042
:1022D0006CEF91F070EF91F0000EA86F010EA76FF8
:1022E000D1B275EF91F077EF91F082EF91F0D1A23A
:1022F0007CEF91F07EEF91F077EF91F00501A70769
:10230000D8A0A807CFB887EF91F089EF91F090EFB0
:1023100091F044ECA5F0000E0501E06F030EDF6FB5
:10232000030E0501A719A811D8A499EF91F09BEF0E
:1023300091F0BEEF91F0CFB8A0EF91F0A2EF91F045
:102340000BEF91F0BEEF91F0A7C511F5A8C512F5FE
:102350001250000AD8B4AFEF91F0BEEF91F01150D7
:10236000010AD8B468EF90F0030AD8B4B7EF90F040
:10237000010AD8B490EF91F0BEEF91F0CFB8C3EF5F
:1023800091F0C5EF91F0E2EF91F044ECA5F0A7C514
:1023900011F5A8C512F51250000AD8B4D2EF91F089
:1023A000DDEF91F01150010AD8B4DDEF91F0030A8E
:1023B000D8B4DDEF91F0DDEF91F0000E0501A86FCC
:1023C000010EA76F12001EC534F51FC535F520C5D7
:1023D00036F521C537F522C538F523C539F524C5AD
:1023E0003AF525C53BF53BBEF8EF91F0FBEF91F0D8
:1023F000010EFCEF91F0000E3E6E3E50D8B403EF9C
:1024000092F005EF92F015EF92F03B1E3A1E391E46
:10241000381E371E361E351E346C000E352236220D
:102420003722382239223A223B220501DCBF1BEF3A
:1024300092F01DEF92F01EEF92F0E393DCBF2BEFD2
:1024400092F0DC5106E1DB05D8B029EF92F02BEFDA
:1024500092F031EF92F0000E316E010E306E35EFDA
:1024600092F0DBC530F5DCC531F5D9C532F5DAC5FA
:1024700033F53E50D8B43FEF92F041EF92F058EF71
:1024800092F03206D8A033063E50D8A44AEF92F01C
:102490004CEF92F052EF92F0000E2F6E2B0E2E6E3C
:1024A00056EF92F0000E2F6E2D0E2E6E2EC53EF5BD
:1024B000000E3D6E4F0E3C6E000E06014F6FDDEFBD
:1024C00092F03C06D8A03D06000E3C24D96E060EC4
:1024D0003D20DA6E34C501F535C502F536C503F584
:1024E00037C504F538C505F539C506F53AC507F50C
:1024F0003BC508F50A0E096E000E0A6E000E0B6E43
:10250000000E0C6E000E0D6E000E0E6E000E0F6EA5
:10251000000E106E38EC9CF001C526F502C527F5BB
:1025200003C528F504C529F505C52AF506C52BF50B
:1025300007C52CF508C52DF526C513F527C514F5D7
:1025400099ECA4F01350300FDF6E3006D8A031069E
:102550003206D8A0330634C501F535C502F536C5B7
:1025600003F537C504F538C505F539C506F53AC58F
:1025700007F53BC508F50A0E096E000E0A6E000E3F
:102580000B6E000E0C6E000E0D6E000E0E6E000E29
:102590000F6E000E106E74EC9BF001C534F502C591
:1025A00035F503C536F504C537F505C538F506C557
:1025B00039F507C53AF508C53BF53DBEE8EF92F0A1
:1025C0003D5008E13C04D8A0E8EF92F0EAEF92F029
:1025D0001BEF93F034503510361037103810391087
:1025E0003A103B10D8A4F7EF92F0F9EF92F061EFB8
:1025F00092F031BE06EF93F0315006E13004D8B0CE
:1026000004EF93F006EF93F061EF92F033BE11EF19
:1026100093F0335008E13204D8A011EF93F013EF98
:1026200093F01BEF93F00501E3B319EF93F01BEF69
:1026300093F061EF92F03E50D8B421EF93F023EF86
:1026400093F02EEF93F03C06D8A03D06000E3C24FC
:10265000D96E060E3D20DA6E3EC5DFF41CC511F5BD
:102660001DC512F5000E3C24136E060E3D20146E9F
:1026700032C515F533C516F5EEEC9FF01200010ECC
:102680000C6E5D0E0D6EFF0E0E6E010E3EECA2F096
:10269000010E0C6E900E0D6EFF0E0E6E020E3EECD5
:1026A000A2F0D290D092000EBE6ED1B05AEF93F04D
:1026B0005CEF93F066EF93F0D1A061EF93F063EFDE
:1026C00093F05CEF93F00501A74BA82BD1B26BEF11
:1026D00093F06DEF93F044EF94F0D1A272EF93F08A
:1026E00074EF93F06DEF93F00501A707D8A0A8074A
:1026F000A8BF85EF93F0A85106E1A705D8B083EFF6
:1027000093F085EF93F044EF94F0000EA86F030E62
:10271000A76F44EF94F0070E0C6E3C0E0D6E020E88
:1027200063ECA5F00C0E0C6E200E0D6E020E63EC29
:10273000A5F05EEF94F0070E0C6E200E0D6E020EEB
:1027400063ECA5F00C0E0C6E3C0E0D6E020E63ECED
:10275000A5F05EEF94F0070E0C6E200E0D6E020ECB
:1027600063ECA5F00C0E0C6E200E0D6E020E63ECE9
:10277000A5F00F0E0C6E200E0D6E020E63ECA5F090
:10278000100E0C6E200E0D6E020E63ECA5F0090EFD
:10279000116E1E0E106EE40EE82EFED7102EFCD722
:1027A000112EFAD700D00F0E0C6E2D0E0D6E020EEC
:1027B00063ECA5F0100E0C6E3E0E0D6E020E63EC77
:1027C000A5F0090E116E1E0E106EE40EE82EFED757
:1027D000102EFCD7112EFAD700D0D1B0F2EF93F023
:1027E000F4EF93F010EF94F0D1A0F9EF93F0FBEF3A
:1027F00093F0F4EF93F00501A74BA82BA8BF0AEFC5
:1028000094F0A85109E1040EA75DD8A00AEF94F056
:102810000CEF94F010EF94F0000EA86F010EA76F6C
:10282000D1B215EF94F017EF94F022EF94F0D1A20B
:102830001CEF94F01EEF94F017EF94F00501A7073A
:10284000D8A0A807CFB827EF94F029EF94F030EF85
:1028500094F044ECA5F0000E0501E06F010EDF6F6F
:10286000030E0501A719A811D8A439EF94F03BEF86
:1028700094F05EEF94F0CFB840EF94F042EF94F014
:10288000ABEF93F05EEF94F0A7C510F5A8C511F576
:102890001150000AD8B44FEF94F05EEF94F010504E
:1028A000010AD8B48BEF93F0030AD8B49BEF93F0EE
:1028B000010AD8B430EF94F05EEF94F0CFB863EF34
:1028C00094F065EF94F092EF94F044ECA5F077EF7C
:1028D00094F0000E0501E06F020EDF6F8DEF94F0B3
:1028E000000E0501E06F040EDF6F8DEF94F0A7C5B9
:1028F00010F5A8C511F51150000AD8B482EF94F074
:102900008DEF94F01050010AD8B469EF94F0030AE7
:10291000D8B470EF94F08DEF94F0000E0501A86F1D
:10292000010EA76F1200010E0C6EA10E0D6EFF0EB0
:102930000E6E010E3EECA2F0010E0C6E080E0D6E36
:10294000FF0E0E6E020E3EECA2F0100E0C6E000E8C
:102950000D6E020E63ECA5F0D1B0B1EF94F0B3EFC1
:1029600094F0BDEF94F0D1A0B8EF94F0BAEF94F0EA
:10297000B3EF94F00501A74BA82BD1B2C2EF94F0AE
:10298000C4EF94F080EF95F0D1A2C9EF94F0CBEFB3
:1029900094F0C4EF94F00501A707D8A0A807A8BF3A
:1029A000DCEF94F0A85106E1A705D8B0DAEF94F077
:1029B000DCEF94F080EF95F0000EA86F030EA76F88
:1029C00080EF95F0050E0C6E3C0E0D6E020E63EC62
:1029D000A5F00C0E0C6E200E0D6E020E63ECA5F031
:1029E0009AEF95F0050E0C6E200E0D6E020E63EC44
:1029F000A5F00C0E0C6E3C0E0D6E020E63ECA5F0F5
:102A00009AEF95F0100E0C6E000E0D6E020E63EC38
:102A1000A5F0090E116E1E0E106EE40EE82EFED704
:102A2000102EFCD7112EFAD700D0100E0C6E200EEF
:102A30000D6E020E63ECA5F0090E116E1E0E106EE7
:102A4000E40EE82EFED7102EFCD7112EFAD700D0B8
:102A5000D1B02DEF95F02FEF95F04BEF95F0D1A081
:102A600034EF95F036EF95F02FEF95F00501A74B79
:102A7000A82BA8BF45EF95F0A85109E1040EA75D6A
:102A8000D8A045EF95F047EF95F04BEF95F0000E8D
:102A9000A86F010EA76FD1B250EF95F052EF95F0ED
:102AA0005DEF95F0D1A257EF95F059EF95F052EF09
:102AB00095F00501A707D8A0A807CFB862EF95F059
:102AC00064EF95F06CEF95F044ECA5F0D396000E12
:102AD0000501E06F000EDF6F030E0501A719A811B5
:102AE000D8A475EF95F077EF95F09AEF95F0CFB801
:102AF0007CEF95F07EEF95F002EF95F09AEF95F070
:102B0000A7C510F5A8C511F51150000AD8B48BEF70
:102B100095F09AEF95F01050010AD8B4E2EF94F0D6
:102B2000030AD8B4F2EF94F0010AD8B46CEF95F030
:102B30009AEF95F0CFB89FEF95F0A1EF95F0C5EF24
:102B400095F0AFEF95F0D386010E0501E46FC5EF68
:102B500095F0D396000E0501E46FC5EF95F0A7C57B
:102B600010F5A8C511F51150000AD8B4BAEF95F0C8
:102B7000C5EF95F01050010AD8B4A3EF95F0030A01
:102B8000D8B4A9EF95F0C5EF95F00501E405D8A4F8
:102B9000CCEF95F0CEEF95F0D5EF95F00E0E0C6ED4
:102BA000010E0D6E020E63ECA5F00501E451D8A4F0
:102BB000DCEF95F0DEEF95F0E5EF95F00E0E0C6E84
:102BC000060E0D6E020E63ECA5F01200010E0C6EE7
:102BD0005D0E0D6EFF0E0E6E010E3EECA2F0010EAC
:102BE0000C6E190E0D6EFF0E0E6E020E3EECA2F074
:102BF000D1B0FDEF95F0FFEF95F01BEF96F0D1A06F
:102C000004EF96F006EF96F0FFEF95F00501A74B65
:102C1000A82BA8BF15EF96F0A85109E1040EA75DF7
:102C2000D8A015EF96F017EF96F01BEF96F0000E78
:102C3000A86F010EA76FD1B220EF96F022EF96F0A9
:102C4000F4EF96F0D1A227EF96F029EF96F022EF5D
:102C500096F00501A707D8A0A807F4EF96F0010E9B
:102C60000C6E3C0E0D6E020E63ECA5F0020E0C6EA7
:102C70002D0E0D6E020E63ECA5F0090E116E1E0EE8
:102C8000106EE40EE82EFED7102EFCD7112EFAD7C8
:102C900000D0010E0C6E200E0D6E020E63ECA5F03E
:102CA000020E0C6E200E0D6E020E63ECA5F0090EE6
:102CB000116E1E0E106EE40EE82EFED7102EFCD7FD
:102CC000112EFAD700D0080E0C6E200E0D6E020EDB
:102CD00063ECA5F00D0E0C6E200E0D6E020E63EC73
:102CE000A5F0D1B076EF96F078EF96F082EF96F0FF
:102CF000D1A07DEF96F07FEF96F078EF96F005018A
:102D0000A74BA82BD1B287EF96F089EF96F0A5EFED
:102D100096F0D1A28EEF96F090EF96F089EF96F0B4
:102D20000501A707D8A0A807A8BFA1EF96F0A85152
:102D300006E1A705D8B09FEF96F0A1EF96F0A5EFBA
:102D400096F0000EA86F030EA76FCFB8AAEF96F00B
:102D5000ACEF96F0B3EF96F044ECA5F0000E050151
:102D6000E06F000EDF6F0501A705A811D8A4BBEF27
:102D700096F0BDEF96F00EEF97F0CFB8C2EF96F059
:102D8000C4EF96F02FEF96F00EEF97F0080E0C6E52
:102D90003C0E0D6E020E63ECA5F00D0E0C6E200EB7
:102DA0000D6E020E63ECA5F0CFB8D9EF96F0DBEF15
:102DB00096F00EEF97F044ECA5F0000E0501E06FE1
:102DC000050EDF6F0EEF97F0080E0C6E200E0D6EE5
:102DD000020E63ECA5F00D0E0C6E3C0E0D6E020E95
:102DE00063ECA5F00EEF97F0A7C510F5A8C511F597
:102DF0001150000AD8B4FFEF96F00EEF97F0105084
:102E0000010AD8B4B3EF96F0030AD8B4C6EF96F02F
:102E1000010AD8B4E4EF96F00EEF97F0CFB813EFB5
:102E200097F015EF97F037EF97F044ECA5F020EF0F
:102E300097F0000E0501E06F060EDF6F32EF97F09E
:102E4000A7C510F5A8C511F51150000AD8B42BEF8D
:102E500097F032EF97F01050030AD8B419EF97F0BB
:102E600032EF97F0000E0501A86F010EA76F120058
:102E7000010E0C6E2A0E0D6EFF0E0E6E010E3EEC54
:102E8000A2F0010E0C6E4C0E0D6EFF0E0E6E020EB9
:102E90003EECA2F0100E0C6E000E0D6E010E63ECF7
:102EA000A5F0D1B056EF97F058EF97F062EF97F09A
:102EB000D1A05DEF97F05FEF97F058EF97F0050125
:102EC000A74BA82BD1B267EF97F069EF97F02FEFE0
:102ED00098F0D1A26EEF97F070EF97F069EF97F04E
:102EE0000501A707D8A0A807A8BF81EF97F0A851B0
:102EF00006E1A705D8B07FEF97F081EF97F02FEFAD
:102F000098F0000EA86F040EA76F2FEF98F0040E34
:102F10000C6E3C0E0D6E020E63ECA5F0090E0C6EED
:102F2000200E0D6E020E63ECA5F04DEF98F0040E2E
:102F30000C6E200E0D6E020E63ECA5F0090E0C6EE9
:102F40003C0E0D6E020E63ECA5F04DEF98F0100EE6
:102F50000C6E3C0E0D6E020E63ECA5F04DEF98F07A
:102F6000100E0C6E000E0D6E010E63ECA5F0090E36
:102F7000116E1E0E106EE40EE82EFED7102EFCD73A
:102F8000112EFAD700D0100E0C6E200E0D6E010E11
:102F900063ECA5F0090E116E1E0E106EE40EE82E05
:102FA000FED7102EFCD7112EFAD700D0D1B0DBEF10
:102FB00097F0DDEF97F0F9EF97F0D1A0E2EF97F0FF
:102FC000E4EF97F0DDEF97F00501A74BA82BA8BF22
:102FD000F3EF97F0A85109E1050EA75DD8A0F3EF34
:102FE00097F0F5EF97F0F9EF97F0000EA86F010E4C
:102FF000A76FD1B2FEEF97F000EF98F00BEF98F0CB
:10300000D1A205EF98F007EF98F000EF98F00501D6
:10301000A707D8A0A807CFB810EF98F012EF98F044
:103020001BEF98F044ECA5F0D290D092000E050171
:10303000E06F000EDF6F040E0501A719A811D8A4D8
:1030400024EF98F026EF98F04DEF98F0CFB82BEFE3
:1030500098F02DEF98F0B0EF97F04DEF98F0A7C5EE
:1030600010F5A8C511F51150000AD8B43AEF98F040
:103070004DEF98F01050010AD8B487EF97F0030A8B
:10308000D8B497EF97F0010AD8B4A7EF97F0070AE2
:10309000D8B41BEF98F04DEF98F0CFB852EF98F0FE
:1030A00054EF98F07CEF98F062EF98F0D280D092D5
:1030B0007CEF98F0D290D0827CEF98F0D290D092B2
:1030C0007CEF98F0A7C510F5A8C511F51150000ABE
:1030D000D8B46DEF98F07CEF98F01050010AD8B496
:1030E00056EF98F0030AD8B45AEF98F0010AD8B412
:1030F0005EEF98F07CEF98F0120038ECA5F0C780F6
:1031000004010881189118930899000E006F000EB1
:10311000286F28972091109310971095C898C88A07
:103120001099109BC894C886C980C982C788000EB0
:10313000C66ECB96CA90C89219811983098940EC52
:10314000A1F029ECA5F0C50E086E050E096E000E63
:10315000D9ECA2F0BD0E086E050E096E010ED9EC79
:10316000A2F059ECA5F04FECA5F0080ED5ECA4F0B8
:1031700001C506F502C507F5086A096A000E9AEC52
:103180009AF006C55BF507C55CF508C55DF509C590
:103190005EF55BC501F55CC502F55DC503F55EC571
:1031A00004F5030E056E780E066ECB0E076E3D0E0F
:1031B000086E4AEC8AF001C5D5F502C5D6F503C5FF
:1031C000D7F504C5D8F57EECA3F001C5E1F502C53D
:1031D000E2F50501E25107E1050EE15DD8B0F3EF3C
:1031E00098F0F5EF98F0FFEF98F044ECA5F0D39647
:1031F000D290D092000E0501E06F090EDF6F000E35
:103200001A6E000E1B6E8C0E1C6E420E1D6ED5C506
:103210001EF5D6C51FF5D7C520F5D8C521F51CEC80
:103220009EF0D8B016EF99F018EF99F04CEF99F0A6
:1032300044ECA5F0D396D290D092000E0501E06F39
:10324000080EDF6F4CEF99F03FEC93F082EF99F0AE
:10325000E6EC95F082EF99F020EC90F082EF99F097
:103260005FEC8CF082EF99F093EC94F082EF99F0A0
:1032700038EC97F082EF99F01DEC9FF082EF99F017
:103280007EECA3F082EF99F0A8ECA2F082EF99F027
:1032900012ECA4F082EF99F0DFC559F5E0C55AF5BC
:1032A0005A50000AD8B457EF99F082EF99F059506C
:1032B000000AD8B424EF99F0010AD8B428EF99F0A5
:1032C000030AD8B42CEF99F0010AD8B430EF99F082
:1032D000070AD8B434EF99F0010AD8B438EF99F05E
:1032E000030AD8B43CEF99F0010AD8B440EF99F042
:1032F0000F0AD8B444EF99F0010AD8B448EF99F016
:1033000082EF99F00D0E5A6E2D0E596ED80EE82EE2
:10331000FED7592EFCD75A2EFAD7B5EF98F0FEEF0C
:10332000FFF0CDC52AF5CEC52BF5CFC52CF5D0C500
:103330002DF51AC52AF51BC52BF51CC52CF51DC589
:103340002DF5810E1E6EFF0E1F6E2AC520F52BC5B2
:1033500021F52CC522F52DC523F5180EB5EF99F0F2
:10336000D8902332223221322032E82EB0EF99F069
:1033700020501E24286E000E1F20296E29BECAEF81
:1033800099F0295009E1170E285CD8A0CAEF99F0EE
:10339000CCEF99F0D6EF99F01AC51AF51BC51BF5BD
:1033A0001CC51CF51DC51DF599EF9AF029BEDBEF74
:1033B00099F0DDEF99F04DEF9AF028C51EF5FF0E5C
:1033C0001F6EFF0E206E7F0E216E000E226E1E6697
:1033D000ECEF99F0F4EF99F02234223221322032CE
:1033E0001F321E2EE7EF99F01FC524F520C525F5E5
:1033F00021C526F522C527F524502A141E6E255016
:103400002B141F6E26502C14206E27502D14216E65
:103410001E501F1020102110D8A411EF9AF013EFA6
:103420009AF015EF9AF0CCEF99F02AC51EF52BC54E
:103430001FF52CC520F52DC521F5200E25EF9AF09E
:10344000D890213220321F321E32E82E20EF9AF01F
:103450001E501F1020102110D8B431EF9AF033EF16
:103460009AF03BEF9AF024502A2625502B22265022
:103470002C2227502D22241C1E6E251C1F6E261C5C
:10348000206E271C216E1E502A161F502B1620500E
:103490002C1621502D1691EF9AF02AC51EF52BC53A
:1034A0001FF52CC520F52DC521F5200E5DEF9AF0F6
:1034B000D890213220321F321E32E82E58EF9AF077
:1034C0001E501F1020102110D8A469EF9AF06BEF46
:1034D0009AF075EF9AF0000E2A6E000E2B6E000E19
:1034E0002C6E000E2D6E91EF9AF0D8902A341E6E3D
:1034F0002B341F6E2C34206E2D34216E1E501F1065
:1035000020102110D8B487EF9AF089EF9AF091EF4C
:103510009AF0000E2A6E000E2B6E800E2C6EBF0EDF
:103520002D6E2AC51AF52BC51BF52CC51CF52DC50E
:103530001DF512000E6E0E50D8B4A1EF9AF0A3EF55
:103540009AF0C5EF9AF009BEAAEF9AF0A8EF9AF0A8
:10355000C5EF9AF006C50AF507C50BF508C50CF5C9
:1035600009C50DF50A1E0B1E0C1E0D1E0A2A000EA3
:103570000B220C220D220AC510F50BC511F50CC546
:1035800012F50DC513F5CDEF9AF006C510F507C578
:1035900011F508C512F509C513F5065007100810F6
:1035A0000910D8A4D6EF9AF0D8EF9AF0E2EF9AF08B
:1035B000000E066E000E076E000E086E000E096EFD
:1035C00073EF9BF0960E0F6EECEF9AF00F2AD890E7
:1035D0001332123211321032000E10140A6E000E25
:1035E00011140B6E000E12140C6EFE0E13140D6EE1
:1035F0000A500B100C100D10D8A401EF9BF003EF34
:103600009BF0E6EF9AF011EF9BF00F2A010E1026C7
:10361000000E112212221322D890133212321132CC
:103620001032000E10140A6E000E11140B6E000EF4
:1036300012140C6EFF0E13140D6E0A500B100C10AA
:103640000D10D8A426EF9BF028EF9BF005EF9BF020
:1036500030EF9BF00F06D890103611361236133625
:1036600012BE35EF9BF037EF9BF03FEF9BF0020E61
:103670000F603DEF9BF03FEF9BF02AEF9BF00FB008
:1036800044EF9BF046EF9BF047EF9BF0129ED890E3
:103690000F320FC50AF50B6A0C6A0D6A0AC50DF5E3
:1036A0000C6A0B6A0A6A0A5010120B5011120C5065
:1036B00012120D5013120E50D8B461EF9BF063EF4D
:1036C0009BF06BEF9BF009BE6AEF9BF068EF9BF0FD
:1036D0006BEF9BF0138E10C506F511C507F512C5EB
:1036E00008F513C509F51200000E126E10BE7DEF2D
:1036F0009BF07BEF9BF08FEF9BF0101E0F1E0E1EBA
:103700000D1E0C1E0B1E0A1E096C000E0A220B2237
:103710000C220D220E220F221022010E126E08BE64
:1037200096EF9BF094EF9BF0A8EF9BF0081E071E0E
:10373000061E051E041E031E021E016C000E022240
:10374000032204220522062207220822010E121A51
:1037500021EE13F1070EDE6AE806FDE209500A10B9
:103760000B100C100D100E100F101010D8B4BBEF72
:103770009BF0BDEF9BF00FEF9CF0010E116ECBEFB5
:103780009BF0D89009360A360B360C360D360E36BD
:103790000F361036112A10AED0EF9BF0D2EF9BF00F
:1037A000C1EF9BF0D89013361436153616361736FF
:1037B000183619361A360950015C0A5002580B5057
:1037C00003580C5004580D5005580E5006580F5011
:1037D000075810500858D8A0F0EF9BF0F2EF9BF07C
:1037E00003EF9CF00950015E0A50025A0B50035A35
:1037F0000C50045A0D50055A0E50065A0F50075AD5
:103800001050085A1380D89010320F320E320D32F9
:103810000C320B320A320932112ED2EF9BF01250C9
:10382000D8B415EF9CF017EF9CF027EF9CF01A1E10
:10383000191E181E171E161E151E141E136C000EC0
:103840001422152216221722182219221A2213C511
:1038500001F514C502F515C503F516C504F517C520
:1038600005F518C506F519C507F51AC508F51200BE
:10387000000E126E08BE41EF9CF03FEF9CF053EF3C
:103880009CF0081E071E061E051E041E031E021EB7
:10389000016C000E022203220422052206220722C6
:1038A0000822010E126E10BE5AEF9CF058EF9CF0E9
:1038B0006AEF9CF0101E0F1E0E1E0D1E0C1E0B1E1E
:1038C0000A1E096C000E0A220B220C220D220E2267
:1038D0000F22102209500A100B100C100D100E10A0
:1038E0000F101010D8B477EF9CF079EF9CF0C1EF77
:1038F0009CF0010E116E87EF9CF0D89009360A36C5
:103900000B360C360D360E360F361036112A10AE29
:103910008CEF9CF08EEF9CF07DEF9CF00950015CE9
:103920000A5002580B5003580C5004580D500558BB
:103930000E5006580F50075810500858D8A0A3EF43
:103940009CF0A5EF9CF0B5EF9CF00950015E0A5089
:10395000025A0B50035A0C50045A0D50055A0E507F
:10396000065A0F50075A1050085AD89010320F328A
:103970000E320D320C320B320A320932112E8EEF1A
:103980009CF01250D8B4C7EF9CF0C9EF9CF0D9EF6F
:103990009CF0081E071E061E051E041E031E021EA6
:1039A000016C000E022203220422052206220722B5
:1039B000082201C501F502C502F503C503F504C5DA
:1039C00004F505C505F506C506F507C507F508C5DF
:1039D00008F51200000E0F6E000E0E6E000E0D6E3A
:1039E000000E0C6EF6EF9CF0074A082A07C5F6F4A5
:1039F00008C5F7F4000EF86E0800F550200AD8B498
:103A000004EF9DF006EF9DF0F4EF9CF007C5F6F48F
:103A100008C5F7F4000EF86E0800F5C409F5F70EB6
:103A200009240A6E0B6AFF0E0B220B5009E1050EEA
:103A30000A5CD8A01EEF9DF020EF9DF0F4EF9CF003
:103A40002AEF9DF0000E0D6E010E0C6E074A082A3B
:103A500063EF9DF007C5F6F408C5F7F4000EF86EA5
:103A60000800F550096E0A6A0A50000AD8B43BEF04
:103A70009DF063EF9DF009502B0AD8B426EF9DF01E
:103A8000060AD8B422EF9DF063EF9DF00EC501F554
:103A90000FC502F5000E046E0A0E036E16ECA5F0BB
:103AA00007C5F6F408C5F7F4000EF86E0800F550E7
:103AB000015E000E025A300E01240E6E000E02202E
:103AC0000F6E26EF9DF007C5F6F408C5F7F4000E5B
:103AD000F86E0800F5C409F5D00E09240A6E0B6AC9
:103AE000FF0E0B220B5009E10A0E0A5CD8A07BEFF7
:103AF0009DF07DEF9DF046EF9DF00C500D10D8A489
:103B000084EF9DF086EF9DF094EF9DF00EC509F5D2
:103B10000FC50AF5091E0A1E094A0A2A09C507F532
:103B20000AC508F598EF9DF00EC507F50FC508F515
:103B30001200033404340A6E0A50D8A4A2EF9DF098
:103B4000A4EF9DF0AEEF9DF0000E016E000E026E30
:103B5000000E036E000E046E1BEF9EF001C505F50E
:103B600002C506F503C507F504C508F5200EBEEF2E
:103B70009DF0D8900832073206320532E82EB9EFB0
:103B80009DF00550096E038EFF0E0116FF0E021602
:103B9000FF0E0316000E0416960E0A5E0ABED5EF3F
:103BA0009DF0D3EF9DF0EBEF9DF00A50800A970F48
:103BB000D8B0DDEF9DF0DFEF9DF0E1EF9DF0A4EFD9
:103BC0009DF0D89004320332023201320A3EE1EF16
:103BD0009DF003EF9EF01F0E0A64F1EF9DF0F3EFEE
:103BE0009DF0FBEF9DF0A4EF9DF0D89001360236DA
:103BF000033604360A060A50D8A401EF9EF003EFFC
:103C00009EF0F5EF9DF00950D8B409EF9EF00BEF50
:103C10009EF013EF9EF0041E031E021E016C000EA8
:103C200002220322042201C501F502C502F503C5E3
:103C300003F504C504F51200000E1A14226E000EDE
:103C40001B14236E800E1C14246E7F0E1D14256E13
:103C50002250231024102510D8A431EF9EF033EF0A
:103C60009EF03BEF9EF0000E1A6E000E1B6E000ED3
:103C70001C6E000E1D6E000E1E14226E000E1F1410
:103C8000236E800E2014246E7F0E2114256E225088
:103C9000231024102510D8A450EF9EF052EF9EF070
:103CA0005AEF9EF0000E1E6E000E1F6E000E206E6C
:103CB000000E216E1DAE5FEF9EF061EF9EF06AEF89
:103CC0009EF01A6C1B1ED8B01B2A1C1ED8B01C2AD2
:103CD000800E1D5621AE6FEF9EF071EF9EF07AEFD1
:103CE0009EF01E6C1F1ED8B01F2A201ED8B0202A9E
:103CF000800E2156000E1A1A000E1B1A000E1C1AF6
:103D0000800E1D1A000E1E1A000E1F1A000E201A19
:103D1000800E211A1E501A5C1F501B5820501C5830
:103D200021501D58D8B097EF9EF099EF9EF09CEF70
:103D30009EF0D8909DEF9EF0D8801200D1C50BF573
:103D4000D2C50CF5D3C50DF5D4C50EF501C50BF5DF
:103D500002C50CF503C50DF504C50EF50BC505F53B
:103D60000CC506F50DC507F50EC508F5180EBEEF16
:103D70009EF0D8900832073206320532E82EB9EFAD
:103D80009EF00550096E0A6A09500A10D8A4CBEFBC
:103D90009EF0CDEF9EF0EDEF9EF0D8900B34056EC7
:103DA0000C34066E0D34076E0E34086E0550061086
:103DB00007100810D8A4DFEF9EF0E1EF9EF0E7EFC8
:103DC0009EF0000E026E020E016E1CEF9FF0000EC0
:103DD000026E030E016E1CEF9FF009280A10D8A492
:103DE000F4EF9EF0F6EF9EF018EF9FF00BC505F58F
:103DF0000CC506F50DC507F50EC508F5090ED890DA
:103E00000536063607360836E82EFFEF9EF00550D9
:103E1000061007100810D8B410EF9FF013EF9FF0B2
:103E2000010E14EF9FF0000E016E026A1CEF9FF06E
:103E3000000E026E040E016E1200090E586E1E0E68
:103E4000576EE40EE82EFED7572EFCD7582EFAD721
:103E500000D0010E0C6E6E0E0D6EFF0E0E6E010E7A
:103E60003EECA2F0100E0C6E000E0D6E020E63EC16
:103E7000A5F0A90E0501926F050E936FEB0E946FDE
:103E8000FF0E956FE1C596F5E2C597F52DECA3F011
:103E9000010E0C6EA90E0D6E050E0E6E020E3EEC9E
:103EA000A2F0070E0C6EFB0E0D6EFF0E0E6E020ED4
:103EB0003EECA2F0A90E0501926F050E936FDA0E8B
:103EC000946FFF0E956FD5C596F5D6C597F5D7C5F6
:103ED00098F5D8C599F52DECA3F00A0E0C6EA90E35
:103EE0000D6E050E0E6E020E3EECA2F0CFB87BEF0B
:103EF0009FF07DEF9FF088EF9FF044ECA5F0000E5F
:103F00000501A86F010EA76F000EE06F000EDF6FB6
:103F1000120003500410D8B490EF9FF092EF9FF07E
:103F20009BEF9FF003500410D8A499EF9FF09BEFF4
:103F30009FF0A0EF9FF001507BECA5F0EDEF9FF01C
:103F400020EE09F00350D9260450DA22DE50DE10AC
:103F5000D8B4ADEF9FF0AFEF9FF0CAEF9FF020EE27
:103F600009F00350D9260450DA2210EE03F0035072
:103F7000E1260450E222DE50E65CE650800A096E3B
:103F8000DE50800A0958D8B0C8EF9FF0CAEF9FF002
:103F9000EDEF9FF020EE03F00350D9260450DA2213
:103FA000DEC405F5DDC406F503C5D9F404C5DAF4AD
:103FB000DEC407F5DDC408F505500724D96E0650A8
:103FC0000820DA6E01C5DFF420EE03F00350D92695
:103FD0000450DA22DE2A000EDD2212000501E3A1E0
:103FE000F4EF9FF0F6EF9FF000EFA0F013C50AF595
:103FF00014C50BF511C50CF512C50DF557ECA4F061
:1040000016BE05EFA0F007EFA0F00DEFA0F015C56C
:104010001AF516C51BF511EFA0F0000E1B6E000E71
:104020001A6E000E196E000E186E23EFA0F0000E2F
:10403000026E200E016E11C503F512C504F589EC60
:104040009FF0184A192A1A50185C1950800A176EE6
:104050001B50800A1758D8A030EFA0F032EFA0F024
:1040600017EFA0F00501E3B138EFA0F03AEFA0F0B0
:1040700044EFA0F013C50AF514C50BF511C50CF5F6
:1040800012C50DF557ECA4F01200000E0114096ED4
:10409000000E02140A6E800E03140B6E7F0E0414C1
:1040A0000C6E09500A100B100C10D8A45AEFA0F097
:1040B0005CEFA0F064EFA0F0000E016E000E026E47
:1040C000000E036E000E046E000E0514096E000E45
:1040D00006140A6E800E07140B6E7F0E08140C6E09
:1040E00009500A100B100C10D8A479EFA0F07BEF48
:1040F000A0F083EFA0F0000E056E000E066E000E1D
:10410000076E000E086E055001180FE106500218E8
:104110000CE10750031809E108500418D8B493EFD4
:10412000A0F095EFA0F098EFA0F0D89099EFA0F054
:10413000D8801200CFB89FEFA0F0A1EFA0F0ADEFB4
:10414000A0F0CFA8A6EFA0F0A8EFA0F0A1EFA0F0FC
:10415000000E0501E56F000EBE6E0501E551D8A405
:10416000B4EFA0F0B6EFA0F0B8EFA0F0000EBE6E76
:10417000050E0C6E200E0D6E020E63ECA5F00B0EFC
:104180000C6E200E0D6E020E63ECA5F0090E106E83
:104190001E0E0F6EE40EE82EFED70F2EFCD7102E4B
:1041A000FAD700D0050E0C6E200E0D6E020E63ECD9
:1041B000A5F00B0E0C6E3C0E0D6E020E63ECA5F01E
:1041C000090E106E1E0E0F6EE40EE82EFED70F2E97
:1041D000FCD7102EFAD700D01200CFB8F2EFA0F023
:1041E000F4EFA0F000EFA1F0CFA8F9EFA0F0FBEF03
:1041F000A0F0F4EFA0F0000E0501E56F000EBE6E1A
:104200000501E551D8A407EFA1F009EFA1F00BEFEC
:10421000A1F0000EBE6E050E0C6E3C0E0D6E020E71
:1042200063ECA5F00B0E0C6E200E0D6E020E63EC0F
:10423000A5F0090E106E1E0E0F6EE40EE82EFED7CE
:104240000F2EFCD7102EFAD700D0050E0C6E200EC4
:104250000D6E020E63ECA5F00B0E0C6E200E0D6EB3
:10426000020E63ECA5F0090E106E1E0E0F6EE40E2A
:10427000E82EFED70F2EFCD7102EFAD700D0120052
:104280000C0ECB160C0ED316020E096E380E086EED
:10429000AD0EE82EFED7082EFCD7092EFAD700F077
:1042A000030E05ECA2F0680E086EE40EE82EFED7B1
:1042B000082EFCD700D0030E05ECA2F0E40E00D0CF
:1042C00000D0E82EFCD700D000D0030E05ECA2F001
:1042D000020E05ECA2F0280E74ECA5F0C50EE82E37
:1042E000FED700F0070E5F6E5F50080974ECA5F072
:1042F000C50EE82EFED700F0010E74ECA5F02A0ED4
:10430000086E8E0EE82EFED7082EFCD71200CFB80E
:104310008CEFA1F08EEFA1F09AEFA1F0CFA893EF70
:10432000A1F095EFA1F08EEFA1F0000E0501E56F71
:10433000000EBE6E0501E551D8A4A1EFA1F0A3EFD8
:10434000A1F0A5EFA1F0000EBE6E0B0E0C6E200EBC
:104350000D6E020E63ECA5F0090E106E1E0E0F6EB0
:10436000E40EE82EFED70F2EFCD7102EFAD700D081
:104370000B0E0C6E3C0E0D6E020E63ECA5F0090EDA
:10438000106E1E0E0F6EE40EE82EFED70F2EFCD719
:10439000102EFAD700D012000B6EE7EFA1F00850F4
:1043A0007F0F74ECA5F004EFA2F00850BF0F74EC7F
:1043B000A5F004EFA2F00850930F74ECA5F004EF01
:1043C000A2F00850D30F74ECA5F004EFA2F00B504C
:1043D000096E0A6A0A50000AD8B4F1EFA1F004EF9E
:1043E000A2F00950010AD8B4CFEFA1F0030AD8B463
:1043F000D5EFA1F0010AD8B4DBEFA1F0070AD8B4D9
:10440000E1EFA1F004EFA2F01200026E02B00BEF98
:10441000A2F00DEFA2F010EFA2F0D39811EFA2F0EE
:10442000D38802B216EFA2F018EFA2F01BEFA2F0B1
:10443000D39A1CEFA2F0D38A02B421EFA2F023EFAB
:10444000A2F026EFA2F0D39C27EFA2F0D38C02B605
:104450002CEFA2F02EEFA2F031EFA2F0D39E32EFBC
:10446000A2F0D38ED392D382D392070E016E3A0E6E
:10447000E82EFED7012EFCD700D012000F6E0CC51F
:1044800008F50F50CCECA1F05BEFA2F00DC5F6F4EF
:104490000EC5F7F4000EF86E250EF76403D0080081
:1044A000F55005D0F6C4E1F4F7C4E2F4E7506DEC42
:1044B000A5F00D4A0E2A0DC5F6F40EC5F7F4000E50
:1044C000F86E250EF76403D00800F55005D0F6C449
:1044D000E1F4F7C4E2F4E7500009D8A472EFA2F0C7
:1044E00074EFA2F046EFA2F0120004BE84EFA2F037
:1044F00004500310021006E10104D8B082EFA2F0CC
:1045000084EFA2F09FEFA2F001C505F502C506F504
:1045100003C507F504C508F5051E061E071E081E7F
:10452000052A000E06220722082205C501F506C548
:1045300002F507C503F508C504F5A7EFA2F001C50C
:1045400001F502C502F503C503F504C504F5120023
:10455000010E0C6ECE0E0D6EFF0E0E6E010E3EECB9
:10456000A2F0010E0C6EE30E0D6EFF0E0E6E020E2B
:104570003EECA2F0D5C51AF5D6C51BF5D7C51CF57E
:10458000D8C51DF5000E1E6E000E1F6E8C0E206E1F
:10459000420E216E1CEC9EF0D8B0D1EFA2F0D3EF0A
:1045A000A2F0D8EFA2F0000E0501E06F000EDF6F61
:1045B00012000B6E0BC50AF5070E0A16D8900A36C4
:1045C000D8900A36D8900A34400974ECA5F0000E51
:1045D0000C6E0C500824D96E000E0920DA6EDF50E4
:1045E0006DECA5F00C2A070E0C64F9EFA2F0FBEFBE
:1045F000A2F0E9EFA2F0800E74ECA5F0C50EE82E53
:10460000FED700F012008EC555F58FC556F517EF91
:10461000A3F08CC53FF58DC540F5550E416E050ED6
:10462000426E90C543F591C544F532EC85F055C511
:10463000F6F456C5F7F4000EF86E0800F5500009C0
:10464000D8A425EFA3F027EFA3F009EFA3F0000E05
:1046500005018D6F000E8C6F1200960E05019A6F8A
:10466000050E9B6F92C59CF593C59DF5000EA06F3E
:10467000000E9F6F000EA66F000EA56F9C0E8C6F34
:10468000050E8D6F94C58EF595C58FF59A0E906FBA
:10469000050E916F03ECA3F005019F519225D96E91
:1046A000A0519321DA6E000EDF6E120003C509F5EA
:1046B00004C50AF501C507F502C508F570EFA3F0BA
:1046C00009C5D9F40AC5DAF4DF500B6E094A0A2A83
:1046D00007C5D9F408C5DAF40BC5DFF4074A082A80
:1046E0000506D8A00606052806E10628D8A47BEF13
:1046F000A3F07DEFA3F060EFA3F01200000E046EB4
:10470000000E036ED088350EE82EFED700F0D0984C
:10471000D0AA8DEFA3F08FEFA3F088EFA3F099EF6D
:10472000A3F0034A042AB90E00D0E82EFDD700D02A
:1047300000F0D0BA9EEFA3F0A0EFA3F091EFA3F0AA
:1047400003C501F504C502F51200066EAEEFA3F035
:10475000D390C3EFA3F0D380C3EFA3F00350046E54
:10476000056A0550000AD8B4B8EFA3F0C3EFA3F070
:104770000450000AD8B4A8EFA3F0010AD8B4ABEFF4
:10478000A3F0C3EFA3F006380F0B05ECA2F0065020
:104790000F0B05ECA2F01200000E1E1A000E1F1ADD
:1047A000000E201A800E211A1AC501F51BC502F54C
:1047B0001CC503F51DC504F51EC505F51FC506F589
:1047C00020C507F521C508F5EAEC87F001C51AF503
:1047D00002C51BF503C51CF504C51DF51200010E2D
:1047E000056E200E01180210D8B4F9EFA3F0FBEF0C
:1047F000A3F00EEFA4F0F70E0124036EFF0E0220CB
:10480000046E045009E1050E035CD8A00AEFA4F081
:104810000CEFA4F00EEFA4F0000E056E05C501F537
:10482000026A1200010E0C6EC00E0D6EFF0E0E6EAF
:10483000010E3EECA2F0010E0C6EB20E0D6EFF0EDC
:104840000E6E020E3EECA2F00501E25109E1060EE9
:10485000E15DD8A02EEFA4F030EFA4F034EFA4F087
:10486000000EE06F000EDF6F120003C505F504C5F2
:1048700006F501C507F502C508F505C5F6F406C538
:10488000F7F4054A062A000EF86E07C5D9F408C5E4
:10489000DAF4074A082A0800F5C4DFF4DF50D8A488
:1048A00054EFA4F056EFA4F03DEFA4F01200000E78
:1048B000106E000E0F6E68EFA4F00EC501F5026ACF
:1048C0000CC503F50DC504F589EC9FF00F4A102ABD
:1048D0000F500A24D96E10500B20DA6EDF500E6E86
:1048E0000E50D8A476EFA4F078EFA4F05DEFA4F01A
:1048F0001200060EF66E4A0EF76E010EF86E01EE0D
:10490000A7F110EE26F00900F5C4EEF4E550E150F1
:10491000FAE101EE00F2500EEE6AE806FDE101EE6A
:10492000CDF1190EEE6AE806FDE15F6A00017DEF48
:1049300098F014BEA6EFA4F0145006E11304D8B00A
:10494000A4EFA4F0A6EFA4F0B4EFA4F013C515F5FE
:1049500014C516F5151E161E154A162A15C513F58B
:1049600016C514F5B8EFA4F013C513F514C514F566
:1049700012000150021003100410D8B4C2EFA4F0CA
:10498000C4EFA4F0CCEFA4F0000E011A000E021A3E
:10499000000E031A800E041A01C501F502C502F5C6
:1049A00003C503F504C504F51200056E05C5ECF357
:1049B0000301F381F3B1DFEFA4F0E1EFA4F0DAEF4C
:1049C000A4F0EA51EBC303F5046A03C504F5036AD6
:1049D0000310016E0450026E1200D00E0124036E0B
:1049E000FF0E0220046E04500AE10A0E035CD8A0F8
:1049F000FCEFA4F0FFEFA4F0010E00EFA5F0000E15
:104A0000016E026A12000100200000000000000098
:104A100000000000000000000000000004040C0F73
:104A20001E060404040E1F0E1F1B1B000150030270
:104A3000F3C405F5F4C406F501500402F35006264C
:104A400002500302F350062605C501F506C502F51E
:104A50001200F80E0301F517F351F30B0409F36F7D
:104A6000F389F39D0F0EF817F00EF817F38F12006D
:104A7000F00E0001AD17AD518F0B6009AD6FB15154
:104A8000F00B0809B16F1200010E74ECA5F02A0EAC
:104A9000086E8E0EE82EFED7082EFCD712005F920D
:104AA0005F50080974ECA5F0C50EE82EFED700F0A3
:104AB00012005F905F50080974ECA5F0C50EE82E57
:104AC000FED700F012000E6E0CC508F50E50CCECAF
:104AD000A1F00D506DECA5F01200076E010E036EF3
:104AE0000750A5ECA3F01200076E000E036E0750EE
:084AF000A5ECA3F01200120076
:04FFFC0079EFA4F005
:020000040020DA
:10000000FF0FFF0FFF0FFF0FFF0FFF0FFF0FFF0F80
:10001000FF0FFF0FFF0FFF0FFF0FFF0FFF0FFF0F70
:10002000FF0FFF0FFF0FFF0FFF0FFF0FFF0FFF0F60
:10003000FF0FFF0FFF0FFF0FFF0FFF0FFF0FFF0F50
:020000040030CA
:0A0000008FDFFFDF9FFFDFFFFFFF30
:00000001FF
