:040000000DEF00F010
:04000800B4EF14F04D
:06001800FF00B5EF15F03A
:1026000000494E46494E49545900696E66696E69E3
:102610007479006C65643123006C65643223006C4E
:1026200065643323004E414E00696E66006E616E34
:102630000000010E2524D96EDA6A050EDA22000E9A
:10264000DF6E0201B2A727EF13F029EF13F03DEF81
:1026500013F0010E2524D96EDA6A050EDA22DF8224
:1026600002D83DEF13F00500FA6E4D50FD6E4E504E
:10267000FE6E4F50FF6EFA5012000201B2A343EFFC
:1026800013F045EF13F059EF13F0010E2524D96E26
:10269000DA6A050EDA22DF8402D859EF13F005005A
:1026A000FA6E4A50FD6E4B50FE6E4C50FF6EFA5063
:1026B0001200010E2524D96EDA6A050EDA22DF50E7
:1026C000D8B465EF13F067EF13F076EF13F002D88C
:1026D00074EF13F00500FA6E4750FD6E4850FE6E21
:1026E0004950FF6EFA50120078EF13F098EC15F095
:1026F0001200A290320E2A6E260E2B6E000E2C6E49
:1027000010EC16F0A292EE0E2A6E2A0E2B6E000E20
:102710002C6E09EC16F0000E0201A56F000EA66FDC
:10272000000EA76F000EA86F000EA96F000EAA6F13
:10273000B00EAB6F800EAC6F000EAD6F820EAE6F41
:10274000060EAF6F000EB06F000EB16F000EB26FCD
:10275000000EB36F6E0E2A6E2C0E2B6E000E2C6EBA
:102760001EEC16F06C0E2A6E2C0E2B6E000E2C6ECC
:1027700017EC16F0620E2A6E2C0E2B6E000E2C6ECD
:1027800025EC16F0000E226E000E276E000E266E4F
:10279000080E566E000E256E000E246E000E236E7F
:1027A000A2801200000EC26E000EC16E000EBE6E40
:1027B000000EC36E000EBF6E000EC06E070ECA6E16
:1027C000FE0ECB6EC668C768C868C9680401186980
:1027D0001069F80E086F070E206FFD0E286F006954
:1027E000000E196F000E296F000E216F070E096F82
:1027F000000E016F000E116F000E0201896F000EB6
:10280000886F000E876F000E866F000E0401226F26
:10281000000E2A6F000E026F000E0A6F000E126F7C
:10282000000E1A6F03690B6913691B69070E236F8A
:102830002B6904690C6914691C690F0E246F2C69DB
:10284000200E0201296F290E726F12002E502F10D8
:10285000D8B42DEF14F02FEF14F038EF14F02E5001
:102860002F10D8A436EF14F038EF14F03DEF14F029
:102870002C502CEC16F070EF14F020EE09F02E50D6
:10288000D9262F50DA22DE50DE10D8B44AEF14F0E9
:102890004CEF14F067EF14F020EE09F02E50D9261B
:1028A0002F50DA2210EE03F02E50E1262F50E222B4
:1028B000DE50E65CE650800A346EDE50800A345802
:1028C000D8B065EF14F067EF14F070EF14F020EE5D
:1028D00003F02E50D9262F50DA22DE2A000EDD22F8
:1028E000120037C5D9F438C5DAF4DEC4F6F4DDC415
:1028F000F7F4000EF86E0800F550250AD8A483EF0F
:1029000014F085EF14F09DEF14F037C5D9F438C5F5
:10291000DAF4DE2A000EDD22000E1C6E000E1B6EA5
:102920001BC521F51D681E6837C5D9F438C5DAF412
:10293000DE2A000EDD22B3EF14F037C5D9F438C516
:10294000DAF4DEC4F6F4DDC4F7F4000EF86E080025
:10295000F5502C6E2D6A35C52EF536C52FF526ECB3
:1029600014F094EF14F01200FAC428F5FBC429F512
:10297000A2A2BDEF14F0BFEF14F0D5EF14F0B2A295
:10298000C4EF14F0C6EF14F0D5EF14F002D8D3EF73
:1029900014F00500FA6E5050FD6E5150FE6E52500C
:1029A000FF6EFA501200F0EF14F0A2A0DAEF14F06C
:1029B000DCEF14F0F0EF14F0B2A0E1EF14F0E3EF6D
:1029C00014F0F0EF14F002D8F0EF14F00500FA6EF6
:1029D0005350FD6E5450FE6E5550FF6EFA5012006B
:1029E00029C5FBF428C5FAF41100FEEC15F0D68ECB
:1029F000CFB0FDEF14F0FFEF14F005EF15F0130E5C
:102A0000436E260E446ECBEC15F0CFB20AEF15F0F4
:102A10000CEF15F012EF15F0190E436E260E446EF2
:102A2000CBEC15F0CFB417EF15F019EF15F0F8EF68
:102A300014F01F0E436E260E446ECBEC15F0F8EF2B
:102A400014F00DEF00F02A6E5650D8B42AEF15F0AE
:102A50002CEF15F024EF15F0A2B231EF15F033EFA3
:102A600015F037EF15F02AC5A3F24CEF15F0A2923E
:102A7000110E2724D96EDA6A050EDA222AC5DFF490
:102A8000272A070E276447EF15F049EF15F04BEFA3
:102A900015F0000E276E5606A28212003DC541F5C4
:102AA0003EC542F562EF15F03BC535F53CC536F540
:102AB000410E376E050E386E3FC539F540C53AF503
:102AC00071EC14F041C5F6F442C5F7F4000EF86E4F
:102AD0000800F5500009D8A470EF15F072EF15F05A
:102AE00054EF15F0000E3C6E000E3B6E1200080E07
:102AF00056607DEF15F07FEF15F096EF15F0110E93
:102B00002624D96EDA6A050EDA22DF500201A36F9D
:102B1000262A070E26648FEF15F091EF15F093EF3C
:102B200015F0000E266E562A97EF15F0A2921200AD
:102B3000800E1F24D96E050E2020DA6EA1C2DFF4AC
:102B40001F4A202A20BEAEEF15F0205009E1110ED9
:102B50001F5CD8A0AEEF15F0B0EF15F0B4EF15F094
:102B6000000E206E000E1F6E120001EE60F1300E9E
:102B7000EE6AE806FDE101EE01F1270EEE6AE806D5
:102B8000FDE10401080E5D6F000E5E6F000E5F6FC9
:102B90000001F5EF14F0450E456E050E466E000E71
:102BA0003B6E000E3C6E43C53DF544C53EF5450EFB
:102BB0003F6E050E406E4EEC15F01200000E000147
:102BC000606F000E616F000E636F000E646F000E89
:102BD000656F000E666F000E676F000E686F120063
:102BE000600E0001AD6F000EAF6F000EB36F080EE8
:102BF000B16F000EB06F000EAC6F120034EC16F027
:102C0000DEEC15F0D2EC13F0F0EC15F079EC13F0EB
:102C100012002AC550F52BC551F52CC552F51200EE
:102C20002AC553F52BC554F52CC555F512002AC5F8
:102C30004AF52BC54BF52CC54CF512002AC54DF5B0
:102C40002BC54EF52CC54FF512002AC547F52BC5EF
:102C500048F52CC549F512002B6E2B5023EC15F0CE
:102C6000120098EC15F01200D69A12001200120011
:020000040020DA
:10000000FF0FFF0FFF0FFF0FFF0FFF0FFF0FFF0F80
:10001000FF0FFF0FFF0FFF0FFF0FFF0FFF0FFF0F70
:10002000FF0FFF0FFF0FFF0FFF0FFF0FFF0FFF0F60
:10003000FF0FFF0FFF0FFF0FFF0FFF0FFF0FFF0F50
:020000040030CA
:0A0000008CFFF7FF9FFFFFFFFFFFDB
:00000001FF
