:040000000DEF00F010
:0400080000EF34F0E1
:06001800FF005EEF36F070
:1026000000506172746520616C666162E97469638F
:10261000613A2025730A00506172746520666C6F00
:1026200074616E74653A2025660A00546F6B656E9E
:102630002025643A2025730A00436164656E613A7F
:102640002025730A00496E646963652025640A00C9
:10265000494E46494E49545900696E66696E69741F
:1026600079004E414E00696E66006E616E006C6CC2
:052670007300230000CF
:102676002A502B10D8B442EF13F044EF13F050EF6A
:1026860013F02AC5D9F42BC5DAF428C5DEF429C51A
:10269600DDF450EF13F0284A292A28C5D9F429C5B4
:1026A600DAF4200EDE18D8B45BEF13F05EEF13F009
:1026B600010E5FEF13F0000E366E376A3650371094
:1026C600D8A468EF13F06AEF13F04EEF13F028C5A5
:1026D600D9F429C5DAF4DF502C6E2C50366E376AE1
:1026E600F70E36242D6EFF0E37202E6E2E5009E182
:1026F600050E2D5CD8A082EF13F084EF13F04EEF99
:1027060013F0000E336E2D0E36183710D8A48EEF48
:1027160013F090EF13F096EF13F0010E336E284A84
:10272600292AA2EF13F02B0E36183710D8A49EEFE5
:1027360013F0A0EF13F0A2EF13F092EF13F0000ED8
:102746003C6EA7EF13F03C2A3C502824D96E000EAD
:102756002920DA6EDF50D8B4B3EF13F0B5EF13F0DB
:10276600EBEF13F03C502824D96E000E2920DA6EC8
:10277600DF502C6E590E3C24F66EF76A260EF722B1
:10278600F86A000EF8220800F5502C18D8B4CEEFDF
:1027960013F0D0EF13F0A6EF13F03C502824D96EB7
:1027A600000E2920DA6EDF502C6E500E3C24F66E99
:1027B600F76A260EF722F86A000EF8220800F5508E
:1027C6002C18D8B4E9EF13F0EBEF13F0A6EF13F0E3
:1027D600020E3C64F1EF13F0F3EF13F01FEF14F069
:1027E600000E386E000E396E800E3A6E7F0E3B6E0E
:1027F6002A502B10D8B402EF14F004EF14F047EF70
:102806001BF0080E3C18D8B40BEF14F00DEF14F0C3
:102816000FEF14F0030E3C6E3C5028242C6E000E75
:1028260029202D6E2AC5D9F42BC5DAF42CC5DEF481
:102836002DC5DDF447EF1BF0000E3C6E24EF14F0BF
:102846003C2A3C502824D96E000E2920DA6EDF502F
:10285600D8B430EF14F032EF14F068EF14F03C50B7
:102866002824D96E000E2920DA6EDF502C6E6A0EEF
:102876003C24F66EF76A260EF722F86A000EF82256
:102886000800F5502C18D8B44BEF14F04DEF14F0A7
:1028960023EF14F03C502824D96E000E2920DA6E5E
:1028A600DF502C6E620E3C24F66EF76A260EF72277
:1028B600F86A000EF8220800F5502C18D8B466EF16
:1028C60014F068EF14F023EF14F0030E3C18D8A4AC
:1028D6006FEF14F071EF14F0DFEF14F04F0E036E8C
:1028E600260E046E42EC38F003C538F504C539F5FA
:1028F60005C53AF506C53BF52A502B10D8B486EF28
:1029060014F088EF14F047EF1BF03C502826000E19
:10291600292228C5D9F429C5DAF4280EDE18D8A448
:1029260097EF14F099EF14F0D5EF14F0000E3C6E0B
:102936009EEF14F03C2A3C502824D96E000E292024
:10294600DA6EDF50D8B4AAEF14F0ACEF14F0BBEF98
:1029560014F03C502824D96E000E2920DA6E290E78
:10296600DE18D8A4B9EF14F0BBEF14F09DEF14F005
:102976003C502824D96E000E2920DA6E290EDE1866
:10298600D8A4C8EF14F0CAEF14F0D5EF14F03C50F9
:102996002C6E2D6A010E2C26000E2D222C50282678
:1029A6002D5029222AC5D9F42BC5DAF428C5DEF420
:1029B60029C5DDF447EF1BF0000E376E000E366EAC
:1029C600000E386E000E396E000E3A6E000E3B6E2B
:1029D600000E356E000E346E000E3C6EF4EF14F0F1
:1029E6003C2A3C502824D96E000E2920DA6E300E7F
:1029F600DE18D8B401EF15F003EF15F0F3EF14F07D
:102A06003C50D8B409EF15F00BEF15F06FEF18F046
:102A16003C502824D96E000E2920DA6E780EDE1876
:102A2600D8B418EF15F01AEF15F029EF15F03C5051
:102A36002824D96E000E2920DA6E580EDE18D8A486
:102A460027EF15F029EF15F06FEF18F03C502C6EBC
:102A56002D6A010E2C26000E2D222C5028262D50D4
:102A66002922000E3C6E39EF15F03C2A3C502824F2
:102A7600D96E000E2920DA6E300EDE18D8B446EF75
:102A860015F048EF15F038EF15F0000E3C6E3C508F
:102A96002824D96E000E2920DA6E700EDE18D8B4FE
:102AA60057EF15F059EF15F0C5EF16F03C502824F6
:102AB600D96E000E2920DA6E500EDE18D8A466EF05
:102AC60015F068EF15F06AEF15F0C5EF16F03C50FB
:102AD6002824D96E000E2920DA6E2E0EDE18D8A410
:102AE60077EF15F079EF15F07DEF15F033883C2A76
:102AF600C5EF16F03C502824D96E000E2920DA6E58
:102B0600DF502C6E2C50076E086A4EEC35F00750DD
:102B16000810D8B491EF15F093EF15F0FEEF15F00D
:102B2600000E326E3C502824D96E000E2920DA6E33
:102B3600DF502C6ED00E2C242D6E2E6AFF0E2E2208
:102B46002E5007E10A0E2D5CD8B0ACEF15F0AEEFB3
:102B560015F0B9EF15F03C502824D96E000E292047
:102B6600DA6EDF50D00F326EC9EF15F03C502824D4
:102B7600D96E000E2920DA6EDF502C6E2C50076EAF
:102B8600086A77EC37F00750C90F326E37BED7EFB9
:102B960015F0375007E1080E365CD8B0D5EF15F0C2
:102BA600D7EF15F0F6EF15F0365007082C6ED890D3
:102BB6002C36D8902C3632C52DF52E6A2F6A306AFF
:102BC6002C2AEBEF15F0D8902D362E362F363036D0
:102BD6002C2EE6EF15F02D5038122E5039122F50AC
:102BE6003A1230503B12364A372A040E3426000E6B
:102BF600352208EF16F0000E286E000E296E000E24
:102C06002A6E000E2B6E68EF1BF03C2A4AEF15F079
:102C16003C502824D96E000E2920DA6E700EDE187C
:102C2600D8B418EF16F01AEF16F0CCEF16F03C50A9
:102C36002824D96E000E2920DA6E500EDE18D8A48C
:102C460027EF16F029EF16F02BEF16F0CCEF16F063
:102C56003C502824D96E000E2920DA6E300EDE187C
:102C6600D8A438EF16F03AEF16F049EF16F03650C2
:102C76003710D8A441EF16F043EF16F049EF16F0DF
:102C8600FC0E3426FF0E3522C4EF16F03C502824E5
:102C9600D96E000E2920DA6EDF502C6E2C50076E8E
:102CA600086A4EEC35F007500810D8B45DEF16F000
:102CB6005FEF16F0C4EF16F0000E326E3C5028247B
:102CC600D96E000E2920DA6EDF502C6ED00E2C2421
:102CD6002D6E2E6AFF0E2E222E5007E10A0E2D5C57
:102CE600D8B078EF16F07AEF16F085EF16F03C5074
:102CF6002824D96E000E2920DA6EDF50D00F326EEE
:102D060095EF16F03C502824D96E000E2920DA6E75
:102D1600DF502C6E2C50076E086A77EC37F00750A0
:102D2600C90F326E37BEA3EF16F0375007E1080E13
:102D3600365CD8B0A1EF16F0A3EF16F0C2EF16F08E
:102D4600365007082C6ED8902C36D8902C3632C5C3
:102D56002DF52E6A2F6A306A2C2AB7EF16F0D89016
:102D66002D362E362F3630362C2EB2EF16F02D504D
:102D760038122E5039122F503A1230503B12364A22
:102D8600372A3C2A33B8CAEF16F0CCEF16F00BEF11
:102D960016F03C502824D96E000E2920DA6E700EEB
:102DA600DE18D8B4D9EF16F0DBEF16F0F4EF16F014
:102DB6003C502824D96E000E2920DA6E500EDE18FB
:102DC600D8B4E8EF16F0EAEF16F0F4EF16F0000EBE
:102DD600286E000E296E000E2A6E000E2B6E68EF0E
:102DE6001BF03C2A3C502824D96E000E2920DA6EAE
:102DF6002B0EDE18D8A402EF17F004EF17F007EF3A
:102E060017F03C2A18EF17F03C502824D96E000E14
:102E16002920DA6E2D0EDE18D8A414EF17F016EF5F
:102E260017F018EF17F033863C2A3C502826000E80
:102E36002922000E3C6E21EF17F03C2A3C50282434
:102E4600D96E000E2920DA6E300EDE18D8B42EEFB9
:102E560017F030EF17F020EF17F0000E376E000E68
:102E6600366E5FEF17F03C50D8B43CEF17F03EEFEC
:102E760017F04CEF17F036C503F537C504F5000E0D
:102E8600066E0A0E056E1DEC38F003C536F504C550
:102E960037F53C502824D96E000E2920DA6EDF5013
:102EA6002C6ED00E2C242D6E2E6AFF0E2E222D5047
:102EB60036262E5037223C2A3C502824D96E000E46
:102EC6002920DA6EDF502C6ED00E2C242D6E2E6A41
:102ED600FF0E2E222E5009E10A0E2D5CD8A076EFA9
:102EE60017F078EF17F036EF17F03C50D8A47EEFC6
:102EF60017F080EF17F08AEF17F0000E286E000E1D
:102F0600296E000E2A6E000E2B6E68EF1BF033A69C
:102F16008FEF17F091EF17F095EF17F0366C371E1D
:102F2600D8B0372A36503426375035222A502B103F
:102F3600D8B4A0EF17F0A2EF17F0B0EF17F03C509F
:102F460028242C6E000E29202D6E2AC5D9F42BC5F7
:102F5600DAF42CC5DEF42DC5DDF4385039103A10FC
:102F66003B10D8A4B9EF17F0BBEF17F0C5EF17F079
:102F7600000E286E000E296E000E2A6E000E2B6EB5
:102F860068EF1BF0FF0E38142C6E000E39142D6EF0
:102F9600000E3A142E6E000E3B142F6E2F502E107C
:102FA6002D1009E1810E2C5CD8A0DCEF17F0DEEFC6
:102FB60017F0F0EF17F0000E3826010E3922000E3A
:102FC6003A22000E3B22F0EF17F0D8903836393609
:102FD6003A363B363406D8A035063BAEF5EF17F049
:102FE600F7EF17F0E8EF17F035AE03EF18F0830EA2
:102FF600345CFF0E3558D8B003EF18F005EF18F023
:1030060011EF18F0FF0E356E810E346E000E386E1D
:10301600000E396E000E3A6E000E3B6E810E3418AD
:1030260008E13528D8B41AEF18F01CEF18F024EF91
:1030360018F0D890383639363A363B363406D8A0AA
:10304600350635BE30EF18F0355009E1800E345C98
:10305600D8A030EF18F032EF18F03EEF18F0000E5F
:10306600386E000E396E000E3A6E000E3B6E000E84
:10307600356E800E346E090E2C6ED8903B323A3285
:10308600393238322C2E40EF18F0FF0E3816FF0E6C
:1030960039167F0E3A16000E3B167F0E34242C6E20
:1030A600000E35202D6EFF0E2C142E6E2F6A306A00
:1030B600316A170ED8902E362F3630363136E82E36
:1030C6005DEF18F02E5038122F50391230503A1248
:1030D60031503B1247EF1BF033B874EF18F076EF20
:1030E60018F088EF18F028C5D9F429C5DAF42E0EA1
:1030F600DE18D8A481EF18F083EF18F088EF18F0E7
:103106003388284A292A6FEF18F028C5D9F429C52B
:10311600DAF4DF502C6ED00E2C242D6E2E6AFF0EA4
:103126002E222E5009E10A0E2D5CD8A09DEF18F034
:103136009FEF18F0A1EF18F0EFEF18F03382090EA9
:1031460036183710D8B4AAEF18F0ACEF18F0E2EF43
:1031560018F033A8B1EF18F0B3EF18F0B6EF18F087
:103166003406D8A03506364A372A38C503F539C598
:1031760004F53AC505F53BC506F50A0E076E000EC1
:10318600086E000E096E000E0A6E80EC34F003C560
:1031960038F504C539F505C53AF506C53BF528C524
:1031A600D9F429C5DAF4DF502C6ED00E2C262C501B
:1031B6003826000E39223A223B22EBEF18F033B8BC
:1031C600E7EF18F0E9EF18F0EBEF18F0344A352A7C
:1031D600284A292A6FEF18F0000E376E000E366E59
:1031E60028C5D9F429C5DAF4650EDE18D8B4FEEF81
:1031F60018F000EF19F00DEF19F028C5D9F429C51C
:10320600DAF4450EDE18D8A40BEF19F00DEF19F01D
:10321600CCEF19F0284A292A28C5D9F429C5DAF4A9
:103226002D0EDE18D8A41AEF19F01CEF19F021EFB5
:1032360019F03386284A292A30EF19F028C5D9F41F
:1032460029C5DAF42B0EDE18D8A42CEF19F02EEFD0
:1032560019F030EF19F0284A292A28C5D9F429C5CA
:10326600DAF4300EDE18D8B43BEF19F03DEF19F062
:103276002EEF19F028C5D9F429C5DAF4DF502C6EE3
:10328600D00E2C242D6E2E6AFF0E2E222E5007E114
:103296000A0E2D5CD8B052EF19F054EF19F0C1EFB9
:1032A60019F028C5D9F429C5DAF4DF502C6ED00EF2
:1032B6002C262C50366E376A284A292A28C5D9F476
:1032C60029C5DAF4DF502C6ED00E2C242D6E2E6A12
:1032D600FF0E2E222E5007E10A0E2D5CD8B076EF97
:1032E60019F078EF19F0C1EF19F028C5D9F429C5FE
:1032F600DAF4DF502C6ED00E2C2636C503F537C512
:1033060004F5000E066E0A0E056E1DEC38F02C5004
:103316000324366E000E0420376E284A292A28C553
:10332600D9F429C5DAF4DF502C6ED00E2C242D6E7C
:103336002E6AFF0E2E222E5007E10A0E2D5CD8B003
:10334600A7EF19F0A9EF19F0C1EF19F028C5D9F4C4
:1033560029C5DAF4DF502C6ED00E2C2636C503F5BF
:1033660037C504F5000E066E0A0E056E1DEC38F024
:103376002C500324366E000E0420376E33A6C6EF9B
:1033860019F0C8EF19F0CCEF19F0366C371ED8B02B
:10339600372A36503426375035222A502B10D8B4C7
:1033A600D7EF19F0D9EF19F0E8EF19F033A2DEEFF5
:1033B60019F0E0EF19F0E8EF19F02AC5D9F42BC59A
:1033C600DAF428C5DEF429C5DDF438C503F539C5B8
:1033D60004F53AC505F53BC506F5000E0FEC2CF0D5
:1033E60003C538F504C539F505C53AF506C53BF5F7
:1033F60038C503F539C504F53AC505F53BC506F5E7
:10340600000E076E000E086E000E096E000E0A6EA4
:10341600BFEC32F0D8A012EF1AF014EF1AF01EEF3C
:103426001AF0000E286E000E296E000E2A6E000E8F
:103436002B6E68EF1BF035BE25EF1AF023EF1AF05E
:10344600B3EF1AF0346C351ED8B0352A49EF1AF0AE
:1034560038C503F539C504F53AC505F53BC506F586
:10346600F90E076E020E086E150E096E500E0A6EE4
:10347600E2EC26F003C538F504C539F505C53AF57D
:1034860006C53BF5F60E3426FF0E352235BE57EF40
:103496001AF0355007E10A0E345CD8B055EF1AF031
:1034A60057EF1AF02BEF1AF076EF1AF038C503F53E
:1034B60039C504F53AC505F53BC506F5000E076E98
:1034C600000E086E200E096E410E0A6EE2EC26F022
:1034D60003C538F504C539F505C53AF506C53BF506
:1034E6003406D8A0350634503510D8A47DEF1AF02E
:1034F6007FEF1AF059EF1AF038C51CF539C51DF5DE
:103506003AC51EF53BC51FF5000E206E000E216E56
:10351600800E226E000E236E13EC30F0D8B096EFBC
:103526001AF098EF1AF047EF1BF033A09DEF1AF050
:103536009FEF1AF0A9EF1AF0000E286E000E296E02
:10354600800E2A6E800E2B6E68EF1BF0000E286E22
:10355600000E296E800E2A6E000E2B6E68EF1BF091
:1035660035BEBEEF1AF0355008E13404D8A0BEEFE0
:103576001AF0C0EF1AF047EF1BF0E0EF1AF038C56B
:1035860003F539C504F53AC505F53BC506F5F90E4B
:10359600076E020E086E150E096E500E0A6ED9ECF5
:1035A60022F003C538F504C539F505C53AF506C553
:1035B6003BF5F60E3426FF0E3522355007E10A0E8E
:1035C600345CD8B0E9EF1AF0EBEF1AF0C2EF1AF05C
:1035D6000AEF1BF038C503F539C504F53AC505F5FC
:1035E6003BC506F5000E076E000E086E200E096E2E
:1035F600410E0A6ED9EC22F003C538F504C539F53B
:1036060005C53AF506C53BF53406D8A0350634504F
:103616003510D8A411EF1BF013EF1BF0EDEF1AF0E5
:10362600FF0E1C6EFF0E1D6E7F0E1E6E7F0E1F6E32
:1036360038C520F539C521F53AC522F53BC523F530
:1036460013EC30F0D8B02AEF1BF02CEF1BF047EF4D
:103656001BF033A031EF1BF033EF1BF03DEF1BF0F7
:10366600000E286E000E296E800E2A6E800E2B6EBE
:1036760068EF1BF0000E286E000E296E800E2A6E73
:10368600000E2B6E68EF1BF033A04CEF1BF04EEFD5
:103696001BF060EF1BF038C503F539C504F53AC5D4
:1036A60005F53BC506F593EC37F003C538F504C5BB
:1036B60039F505C53AF506C53BF538C528F539C5CA
:1036C60029F53AC52AF53BC52BF51200000E050172
:1036D600816F32C582F533C583F534C584F535C5AA
:1036E60085F585BF7BEF1BF079EF1BF08FEF1BF0A5
:1036F600010E816F82C503F583C504F584C505F502
:1037060085C506F593EC37F003C582F504C583F548
:1037160005C584F506C585F5000E0501876F000E03
:10372600866FB4C571F5B5C572F58151D8B49EEFF3
:103736001BF0A0EF1BF0B4EF1BF08151D8A4A6EF4D
:103746001BF0A8EF1BF0AEEF1BF0000E676F2B0E01
:10375600666FB2EF1BF0000E676F2D0E666F66C5C3
:1037660081F582C503F583C504F584C505F585C5D0
:1037760006F595EC30F003040410D8A4C5EF1BF051
:10378600C7EF1BF0FAEF1BF005018151D8B4CEEF5D
:103796001BF0D0EF1BF0D9EF1BF081C508F67107BF
:1037A600D8A07207000E876F010E866F080E862559
:1037B600036E060E8721046E660E056E260E066ED5
:1037C6007EEC35F00501FD0E7127FF0E722330C524
:1037D60015F531C516F5080E176E060E186E71C56D
:1037E60019F572C51AF543EC34F078EF20F082C56E
:1037F60003F583C504F584C505F585C506F595EC81
:1038060030F003500410D8A40BEF1CF00DEF1CF0A1
:1038160040EF1CF005018151D8B414EF1CF016EFEF
:103826001CF01FEF1CF081C508F67107D8A07207BF
:10383600000E876F010E866F080E8625036E060E34
:103846008721046E6A0E056E260E066E7EEC35F036
:103856000501FD0E7127FF0E722330C515F531C522
:1038660016F5080E176E060E186E71C519F572C597
:103876001AF543EC34F078EF20F0000E0501886F5E
:10388600000E896F800E8A6F3F0E8B6F000E706F71
:10389600000E6F6F82C503F583C504F584C505F573
:1038A60085C506F5000E076E000E086E000E096E41
:1038B600000E0A6EBFEC32F0D8B064EF1CF066EF73
:1038C6001CF045EF1DF073EF1CF073C588F574C549
:1038D60089F575C58AF576C58BF505016F4B702B95
:1038E60088C503F589C504F58AC505F58BC506F5B2
:1038F600000E076E000E086E200E096E410E0A6E4F
:10390600D9EC22F003C573F504C574F505C575F544
:1039160006C576F505017351825D036E74518359B0
:10392600046E75518459056E76518559066E1BECE9
:1039360035F006BEAAEF1CF006500510041009E18A
:10394600020E035CD8A0AAEF1CF0ACEF1CF068EFE7
:103956001CF073C51CF574C51DF575C51EF576C539
:103966001FF582C520F583C521F584C522F585C5D9
:1039760023F513EC30F0D8A0C3EF1CF0C5EF1CF014
:1039860068EF1CF005018851825D036E89518359E9
:10399600046E8A518459056E8B518559066E1BEC4F
:1039A60035F006BEE4EF1CF006500510041007E1E2
:1039B600020E035CD8B0E2EF1CF0E4EF1CF02CEF33
:1039C6001DF088C582F589C583F58AC584F58BC542
:1039D60085F545EF1DF088C503F589C504F58AC54B
:1039E60005F58BC506F5000E076E000E086E200E57
:1039F600096E410E0A6EE2EC26F003C588F504C591
:103A060089F505C58AF506C58BF505016F07D8A0AA
:103A160070078851825D036E89518359046E8A51FD
:103A26008459056E8B518559066E1BEC35F006BE22
:103A36002AEF1DF006500510041007E1020E035C84
:103A4600D8B028EF1DF02AEF1DF02CEF1DF0E4EFA3
:103A56001CF082C51CF583C51DF584C51EF585C5FC
:103A66001FF588C520F589C521F58AC522F58BC5C0
:103A760023F513EC30F0D8A043EF1DF045EF1DF011
:103A8600EEEF1CF036C569F569C56AF50501B7BFE5
:103A96004FEF1DF051EF1DF057EF1DF0B6C562F563
:103AA600B7C563F55BEF1DF0000E636F060E626F20
:103AB60062C56DF563C56EF56D4B6E2B660E6A19A4
:103AC600D8A468EF1DF06AEF1DF08AEF1DF070BFF5
:103AD60071EF1DF06FEF1DF07DEF1DF0000E886F8A
:103AE600000E896F800E8A6F3F0E8B6F000E706F0F
:103AF600000E6F6F670E6919D8B484EF1DF086EF5C
:103B06001DF08AEF1DF06F516D2770516E23000E68
:103B1600786F000E776F82C579F583C57AF584C50F
:103B26007BF585C57CF588C573F589C574F58AC5A9
:103B360075F58BC576F51BEF1EF079C503F57AC5CD
:103B460004F57BC505F57CC506F588C507F589C569
:103B560008F58AC509F58BC50AF5E2EC26F003C51A
:103B66001CF504C51DF505C51EF506C51FF506ECB5
:103B76002BF01CC57DF51DC57EF51EC57FF51FC541
:103B860080F57DC503F57EC504F57FC505F580C5C1
:103B960006F590EC2FF003C56BF504C56CF579C5F9
:103BA6001CF57AC51DF57BC51EF57CC51FF57DC5C3
:103BB60007F57EC508F57FC509F580C50AF588C5F0
:103BC60003F589C504F58AC505F58BC506F5D9EC57
:103BD60022F003C520F504C521F505C522F506C565
:103BE60023F5AEEC36F01CC579F51DC57AF51EC574
:103BF6007BF51FC57CF588C503F589C504F58AC51F
:103C060005F58BC506F5000E076E000E086E200E34
:103C1600096E410E0A6EE2EC26F003C588F504C56E
:103C260089F505C58AF506C58BF50501774B782B11
:103C36006D51775D7851800A376E6E51800A37581C
:103C4600D8A028EF1EF02AEF1EF0A0EF1DF088C5C1
:103C560003F589C504F58AC505F58BC506F5000E7D
:103C6600076E000E086EA00E096E400E0A6ED9ECA5
:103C760022F003C57DF504C57EF505C57FF506C5AD
:103C860080F579C51CF57AC51DF57BC51EF57CC585
:103C96001FF57DC520F57EC521F57FC522F580C5BA
:103CA60023F513EC30F0D8B05BEF1EF05DEF1EF09D
:103CB60068EF1EF0000E05017D6F000E7E6F000E90
:103CC6007F6F000E806F91EF1EF079C503F57AC500
:103CD60004F57BC505F57CC506F57DC507F57EC5EE
:103CE60008F57FC509F580C50AF5BFEC32F0D8A006
:103CF6007FEF1EF081EF1EF091EF1EF005016BB114
:103D060087EF1EF089EF1EF091EF1EF0000E7D6F1B
:103D1600000E7E6F000E7F6F000E806F82C503F56A
:103D260083C504F584C505F585C506F57DC507F586
:103D36007EC508F57FC509F580C50AF579EC20F042
:103D460003C579F504C57AF505C57BF506C57CF589
:103D560079C51CF57AC51DF57BC51EF57CC51FF515
:103D6600000E076E000E086E200E096E410E0A6EDA
:103D760073C503F574C504F575C505F576C506F571
:103D8600D9EC22F003C520F504C521F505C522F5B9
:103D960006C523F513EC30F0D8A0D4EF1EF0D6EF0D
:103DA6001EF0FFEF1EF005016F4B702B73C503F578
:103DB60074C504F575C505F576C506F5000E076EDE
:103DC600000E086E200E096E410E0A6ED9EC22F026
:103DD60003C573F504C574F505C575F506C576F511
:103DE600660E05016A19D8A4FBEF1EF0FDEF1EF062
:103DF600FFEF1EF06D4B6E2B73C588F574C589F504
:103E060075C58AF576C58BF56FC560F570C561F524
:103E1600000E0501686F000E656F000E646F000EE0
:103E2600786F000E776FFDEF1FF079C503F57AC541
:103E360004F57BC505F57CC506F588C507F589C576
:103E460008F58AC509F58BC50AF5E2EC26F003C527
:103E56001CF504C51DF505C51EF506C51FF506ECC2
:103E66002BF01CC57DF51DC57EF51EC57FF51FC54E
:103E760080F57DC503F57EC504F57FC505F580C5CE
:103E860006F590EC2FF004BE54EF1FF0045007E146
:103E96000A0E035CD8B052EF1FF054EF1FF064EF28
:103EA6001FF07DC503F57EC504F57FC505F580C504
:103EB60006F590EC2FF003C56BF504C56CF569EFBC
:103EC6001FF0000E05016C6F090E6B6F050168513E
:103ED600D8A470EF1FF072EF1FF09AEF1FF061BFCA
:103EE60079EF1FF077EF1FF09AEF1FF0080E862587
:103EF600D96E060E8721DA6E2E0EDF6E864B872B65
:103F06007107D8A07207010E686F9AEF1FF0080EAE
:103F16008625D96E060E8721DA6E300EDF6E864B49
:103F2600872B7107D8A072076407D8A0650764516C
:103F36006511D8A4A1EF1FF0A3EF1FF08AEF1FF0C1
:103F4600080E8625D96E060E8721DA6E6B51300F64
:103F5600DF6E864B872B7107D8A0720779C51CF5D3
:103F66007AC51DF57BC51EF57CC51FF57DC507F514
:103F76007EC508F57FC509F580C50AF588C503F530
:103F860089C504F58AC505F58BC506F5D9EC22F079
:103F960003C520F504C521F505C522F506C523F59B
:103FA600AEEC36F01CC579F51DC57AF51EC57BF558
:103FB6001FC57CF588C503F589C504F58AC505F5D1
:103FC6008BC506F5000E076E000E086E200E096EF4
:103FD600410E0A6EE2EC26F003C588F504C589F5A4
:103FE60005C58AF506C58BF505016007D8A06107EA
:103FF600774B782B6D51775D7851800A376E6E510D
:10400600800A3758D8B00AEF20F00CEF20F01AEFEC
:1040160020F087BF18EF20F0875109E14B0E865D2F
:10402600D8A018EF20F01AEF20F018EF1FF0000EBE
:10403600786F4F0E776F080E7725D96E060E7821AA
:10404600DA6E000EDF6E080E376E060E386E86517B
:10405600375E8751385A77513724036E78513820A6
:10406600046E080E056E060E066E86C507F587C534
:1040760008F586EC36F005018651775D866F875127
:104086007859876F8151D8A44BEF20F04EEF20F07E
:10409600010E4FEF20F0000E776F786B8151D8B488
:1040A60057EF20F059EF20F064EF20F08607D8A0F4
:1040B6008707080E8625D96E060E8721DA6E81C51A
:1040C600DFF47751715F7851725B30C515F531C5F4
:1040D60016F5080E8625176E060E8721186E71C511
:1040E60019F572C51AF543EC34F012000650800B30
:1040F6000F6E06500624116E05AE84EF20F086EF93
:1041060020F087EF20F011801150D8B48DEF20F009
:104116008FEF20F0A4EF20F01128D8A495EF20F01F
:1041260097EF20F09FEF20F0000E036E000E046E56
:10413600000E056E000E066E058E000E066EACEFC6
:1041460020F0000E036E000E046E000E056E000ECB
:10415600066E0A50800B106E0F501018D8B4B6EFCA
:1041660020F0B8EF20F0B9EF20F00F8C0A500A24A7
:10417600106E09AEC1EF20F0C3EF20F0C4EF20F0BF
:1041860010801050D8B4CAEF20F0CCEF20F0E1EF49
:1041960020F01028D8A4D2EF20F0D4EF20F0DCEFE6
:1041A60020F0000E076E000E086E000E096E000E5F
:1041B6000A6E098E000E0A6EE9EF20F0000E076EF9
:1041C600000E086E000E096E000E0A6E1150105C8D
:1041D600D8B0F0EF20F0F2EF20F019EF21F00FAC9D
:1041E600F7EF20F0F9EF20F0FBEF20F0800E0F1A2A
:1041F60011C512F510C511F512C510F503C512F556
:1042060007C503F512C507F504C512F508C504F57B
:1042160012C508F505C512F509C505F512C509F556
:1042260006C512F50AC506F512C50AF5000E126E88
:10423600115010C50BF50C6A0B5E000E0C5A0CBE25
:104246002EEF21F00C5009E11A0E0B5CD8A02EEFD0
:1042560021F030EF21F067EF21F003500410051034
:104266000610D8A439EF21F03CEF21F0010E3DEF06
:1042760021F0000E126E000E036E000E046E000E8C
:10428600056E000E066E10C511F570EF21F012A036
:104296004FEF21F051EF21F057EF21F0D890123077
:1042A6000109126E59EF21F0D890123203A05EEF89
:1042B60021F060EF21F061EF21F0128E0634063214
:1042C600053204320332112A1050115CD8A06EEF69
:1042D60021F070EF21F04AEF21F00FBC75EF21F0CD
:1042E60077EF21F0B7EF21F01150D8A47DEF21F040
:1042F6007FEF21F089EF21F0000E036E000E046EB1
:10430600000E056E000E066ED8EF22F0075003264B
:1043160008500422095005220A50062206A096EFEC
:1043260021F098EF21F044EF22F012A09DEF21F04A
:104336009FEF21F0A5EF21F0D89012300109126EFF
:10434600A7EF21F0D890123203A0ACEF21F0AEEF28
:1043560021F0AFEF21F0128E063406320532043218
:104366000332112A44EF22F00750035C0850045828
:10437600095005580650800A0B6E0A50800A0B58E1
:10438600D8B0C8EF21F0CAEF21F0F5EF21F00350C5
:10439600075C0B6E045008580C6E055009580D6EDC
:1043A60006500A580E6EFF0E0B24036EFF0E0C20ED
:1043B600046EFF0E0D20056EFF0E0E20066E800E9B
:1043C6000F1A126C1250D8A4EBEF21F0EDEF21F08A
:1043D600FDEF21F0010E0326000E0422052206221F
:1043E600FDEF21F00750035E0850045A0950055AA4
:1043F6000A50065A0350041005100610D8A406EFFA
:1044060022F008EF22F03DEF22F01250D8A40EEF72
:1044160022F010EF22F03DEF22F0000E036E000EA8
:10442600046E000E056E000E066ED8EF22F0D890D0
:10443600033604360536063612AE24EF22F026EF92
:1044460022F027EF22F0038012A02CEF22F02EEFAD
:1044560022F032EF22F0D880123634EF22F0D890D4
:1044660012361150D8B43AEF22F03CEF22F03DEF6D
:1044760022F0110605AE42EF22F044EF22F01AEFC9
:1044860022F0000E106E12AE4BEF22F04DEF22F02E
:1044960065EF22F012C50BF57F0E0B16D8B456EF5A
:1044A60022F058EF22F05CEF22F0010E106E65EF5D
:1044B60022F003A061EF22F063EF22F065EF22F015
:1044C60058EF22F01050D8B46BEF22F06DEF22F0C7
:1044D60098EF22F0010E0326000E04220522062282
:1044E60006A078EF22F07AEF22F098EF22F003C5CB
:1044F6000BF504C50CF505C50DF506C50EF50E3410
:104506000E320D320C320B320BC503F50CC504F519
:104516000DC505F50EC506F51128D8B495EF22F0A0
:1045260097EF22F098EF22F0112A1128D8B49EEFC7
:1045360022F0A0EF22F0A8EF22F01150D8A4A6EFA7
:1045460022F0A8EF22F0BAEF22F0000E036E000E62
:10455600046E000E056E000E066E1150D8A4B6EF5E
:1045660022F0B8EF22F0BAEF22F0000E0F6E11A083
:10457600BFEF22F0C1EF22F0C4EF22F0058EC5EFA7
:1045860022F0059ED8901130066E0FAECDEF22F0C8
:10459600CFEF22F0D0EF22F0068E03C503F504C557
:1045A60004F505C505F506C506F512000650800B8F
:1045B6000F6E06500624156E05AEE4EF22F0E6EF08
:1045C60022F0E7EF22F015801550D8B4EDEF22F077
:1045D600EFEF22F002EF23F01528D8A4F5EF22F032
:1045E600F7EF22F0FFEF22F0000E036E000E046ECE
:1045F600000E056E000E066E058E0AEF23F0000E05
:10460600036E000E046E000E056E000E066E0A5056
:10461600800B0F1A0A500A24106E09AE15EF23F00C
:1046260017EF23F018EF23F010801050D8B41EEFC8
:1046360023F020EF23F033EF23F01028D8A426EF41
:1046460023F028EF23F030EF23F0000E076E000E64
:10465600086E000E096E000E0A6E098E3BEF23F0FF
:10466600000E076E000E086E000E096E000E0A6E32
:104676001050D8B441EF23F043EF23F04BEF23F073
:104686001550D8A449EF23F04BEF23F055EF23F054
:10469600000E036E000E046E000E056E000E066E12
:1046A600EDEF24F009500302F3C41AF5F4C41BF528
:1046B6001A50116E126A136A146A1B50166E176A24
:1046C600186A196A08500402F3C41AF5F4C41BF5F3
:1046D6001A501126000E1222132214221B501626DF
:1046E600000E17221822192207500502F3C41AF5E4
:1046F600F4C41BF51A501126000E1222132214229E
:104706001B501626000E17221822192213C514F55F
:1047160012C513F511C512F5116A07500402F3C448
:104726001AF5F4C41BF51A5011261B501222000E5E
:104736001322000E142208500302F3C41AF5F4C41F
:104746001BF51A5011261B501222000E1322000EC2
:10475600142213C514F512C513F511C512F5116A05
:1047660007500302F3C41AF5F4C41BF51A501126B8
:104776001B501222000E1322000E142209500402AE
:10478600F3C41AF5F4C41BF51A5016261B5017224B
:10479600000E1822000E192208500502F3C41AF55D
:1047A600F4C41BF51A5016261B501722000E1822A9
:1047B600000E192209500502F3C41AF5F4C41BF5BC
:1047C6001A500B6E1B500C6E0D6A0E6A0DC50EF557
:1047D6000CC50DF50BC50CF50B6A0B5016260C50C7
:1047E60017220D5018220E50192211C50BF512C5AD
:1047F6000CF513C50DF514C50EF5190E08EF24F0CA
:10480600D8900E320D320C320B32E82E03EF24F024
:104816000B5016260C5017220D5018220E50192236
:1048260013C514F512C513F511C512F5116A10500A
:1048360015C50BF50C6A0B26000E0C22820E0B24F6
:104846001A6EFF0E0C201B6E3EEF24F0D890163623
:1048560017361836193614AE33EF24F035EF24F038
:1048660036EF24F01680D8901136123613361436E9
:104876001A06D8A01B0618AE43EF24F045EF24F025
:1048860029EF24F0000E106E14AE4CEF24F04EEF1C
:1048960024F072EF24F0FF0E11140B6EFF0E1214AB
:1048A6000C6EFF0E13140D6E7F0E14140E6E0B504D
:1048B6000C100D100E10D8B463EF24F065EF24F041
:1048C60069EF24F0010E106E72EF24F016A06EEF61
:1048D60024F070EF24F072EF24F065EF24F010500E
:1048E600D8B478EF24F07AEF24F09EEF24F0010E8E
:1048F6001626000E17221822192219A085EF24F079
:1049060087EF24F09EEF24F016C50BF517C50CF5BE
:1049160018C50DF519C50EF50E340E320D320C32D2
:104926000B320BC516F50CC517F50DC518F50EC5DA
:1049360019F51A4A1B2A1BBEA9EF24F01B5008E1E1
:104946001A28D8A0A9EF24F0ABEF24F0B5EF24F095
:10495600000E166E000E176E800E186E7F0E196E04
:10496600E3EF24F01BBEC2EF24F01B5006E11A044D
:10497600D8B0C0EF24F0C2EF24F0CEEF24F0000E42
:10498600166E000E176E000E186E000E196E000ED3
:104996000F6EE3EF24F01AC515F5FF0E1616FF0E7F
:1049A60017167F0E1816000E191615A0DDEF24F047
:1049B600DFEF24F0E0EF24F0188ED8901530196E52
:1049C6000F50191216C503F517C504F518C505F5D8
:1049D60019C506F5120045C5D9F446C5DAF4DEC494
:1049E600F6F4DDC4F7F4000EF86E0800F550250A5B
:1049F600D8A400EF25F002EF25F0CBEF26F045C551
:104A0600D9F446C5DAF4DE2A000EDD22000E0501D1
:104A1600B56F000EB46FB4C5BAF5B669B76945C5CA
:104A2600D9F446C5DAF4DEC456F5DDC457F556C5E5
:104A3600F6F457C5F7F4000EF86E0800F550640A50
:104A4600D8B428EF25F02AEF25F03AEF25F056C521
:104A5600F6F457C5F7F4000EF86E0800F550690A2B
:104A6600D8A438EF25F03AEF25F07DEF25F047C5BD
:104A7600D9F448C5DAF4DFC449F5020EDE26DFC4F0
:104A86004AF5000EDD2249C5D9F44AC5DAF4DEC47A
:104A96004DF5DDC44EF5000E4EBEFF0E4F6E506E48
:104AA600516E526E536E546E010E5624496E000EB0
:104AB60057204A6E45C5D9F446C5DAF449C5DEF431
:104AC6004AC5DDF443C520F544C521F54DC522F59B
:104AD6004EC523F54FC524F550C525F551C526F518
:104AE60052C527F553C528F554C529F5AFEC28F06E
:104AF600E1EF26F045C5D9F446C5DAF4DEC4F6F48E
:104B0600DDC4F7F4000EF86E0800F550730AD8B449
:104B16008FEF25F091EF25F0ACEF25F045C5D9F4E0
:104B260046C5DAF4DEC403F5DDC404F56E0E056E83
:104B3600260E066E000E086E030E076E14EC31F09C
:104B460003500410D8A4AAEF25F0ACEF25F0EEEF41
:104B560025F045C5D9F446C5DAF4DEC4F6F4DDC45D
:104B6600F7F4000EF86E0800F550730AD8B4BEEFDD
:104B760025F0C0EF25F0C6EF25F0000E4C6E030EB3
:104B86004B6ECAEF25F0000E4C6E010E4B6E45C5FE
:104B9600D9F446C5DAF44B50DE264C50DD2243C527
:104BA6000EF544C50FF547C5D9F448C5DAF4DFC498
:104BB60049F5020EDE26DFC44AF5000EDD2249C5A0
:104BC600D9F44AC5DAF4DEC410F5DDC411F5FEECFD
:104BD6002EF0E1EF26F045C5D9F446C5DAF4DEC479
:104BE60056F5DDC457F556C5F6F457C5F7F4000E6D
:104BF600F86E0800F5C455F50DEF26F0564A572A0B
:104C060026EF26F06C0E556E26EF26F0000E556E3A
:104C160026EF26F05550496E4A6A4A50000AD8B423
:104C260017EF26F009EF26F049504C0AD8B401EFE9
:104C360026F02A0AD8B405EF26F00A0AD8B401EFFE
:104C460026F009EF26F056C5F6F457C5F7F4000E20
:104C5600F86E0800F550660AD8A434EF26F036EF51
:104C660026F0C2EF26F06CEF26F047C5D9F448C50A
:104C7600DAF4DFC449F5040EDE26DFC44AF5000E79
:104C8600DD2249C5D9F44AC5DAF4DEC44DF5DEC4E1
:104C96004EF5DEC44FF5DEC450F581EF26F047C56C
:104CA600D9F448C5DAF4DFC449F5040EDE26DFC4BC
:104CB6004AF5000EDD2249C5D9F44AC5DAF4DEC448
:104CC6004DF5DEC44EF5DEC44FF5DEC450F581EF7A
:104CD60026F05550496E4A6A4A50000AD8B476EF13
:104CE60026F081EF26F049504C0AD8B452EF26F050
:104CF600200AD8B438EF26F081EF26F0010E5624AC
:104D0600496E000E57204A6E45C5D9F446C5DAF4F9
:104D160049C5DEF44AC5DDF4AAEF26F043C530F5F1
:104D260044C531F54DC532F54EC533F54FC534F59D
:104D360050C535F556C5F6F457C5F7F4000EF86EAE
:104D46000800F5C436F569EC1BF0E1EF26F056C510
:104D5600F6F457C5F7F4000EF86E0800F550496EE4
:104D66004A6A4A50000AD8B4BBEF26F0C2EF26F0D2
:104D76004950660AD8B491EF26F0C2EF26F045C531
:104D8600D9F446C5DAF4DE2A000EDD22E1EF26F07C
:104D960045C5D9F446C5DAF4DEC4F6F4DDC4F7F445
:104DA600000EF86E0800F550056E066A43C507F555
:104DB60044C508F5B5EC33F0C2EF26F012000650F4
:104DC600800B136E065006241A6E05AEEDEF26F024
:104DD600EFEF26F0F0EF26F01A801A50D8B4F6EF6F
:104DE60026F0F8EF26F00DEF27F01A28D8A4FEEFEC
:104DF60026F000EF27F008EF27F0000E036E000EF6
:104E0600046E000E056E000E066E058E000E066E12
:104E160015EF27F0000E036E000E046E000E056EF1
:104E2600000E066E0A50800B131A0A500A241B6ED7
:104E360009AE20EF27F022EF27F023EF27F01B80A3
:104E46001B50D8B429EF27F02BEF27F040EF27F0BF
:104E56001B28D8A431EF27F033EF27F03BEF27F0DC
:104E6600000E076E000E086E000E096E000E0A6E2A
:104E7600098E000E0A6E48EF27F0000E076E000E30
:104E8600086E000E096E000E0A6E07500810091013
:104E96000A10D8A451EF27F053EF27F06BEF27F055
:104EA600000E036E000E046E000E056E000E066EFA
:104EB600800E05127F0E06121350061203C503F567
:104EC60004C504F505C505F506C506F5AEEF28F0DB
:104ED6001A50D8A471EF27F073EF27F07DEF27F073
:104EE600000E036E000E046E000E056E000E066EBA
:104EF600AEEF28F01B501AC50BF50C6A0B5E000EC0
:104F06000C5A7F0E0B24146E000E0C20156E03C572
:104F16000FF504C510F505C511F506C512F5000E09
:104F2600036E000E046E000E056E000E066E000E79
:104F3600166E000E176E000E186E000E196E000E1D
:104F46001B6EDEEF27F01B50D8B4ACEF27F0AEEFA8
:104F560027F0C5EF27F0D8900F36103611361236E7
:104F6600D890033604360536063619AEBDEF27F05F
:104F7600BFEF27F0C0EF27F00380D890163617361C
:104F86001836193607500F5C08501058095011583A
:104F96000A501258D8A0D2EF27F0D4EF27F0DDEF51
:104FA60027F0198C07500F5E0850105A0950115AF5
:104FB6000A50125A1B2A190E1B64E4EF27F0E6EF7B
:104FC60027F0A6EF27F00F50101011101210D8B4CA
:104FD600EFEF27F0F1EF27F009EF28F0168009EF41
:104FE60028F0D890033604360536063619AEFEEF9D
:104FF60027F000EF28F001EF28F00380D89016364E
:105006001736183619361406D8A0150605AE0EEF53
:1050160028F010EF28F0F4EF27F0000E1B6E19AE03
:1050260017EF28F019EF28F03DEF28F0FF0E1614C1
:105036000B6EFF0E17140C6EFF0E18140D6E7F0EFE
:1050460019140E6E0B500C100D100E10D8B42EEF56
:1050560028F030EF28F034EF28F0010E1B6E3DEFFC
:1050660028F003A039EF28F03BEF28F03DEF28F0B9
:1050760030EF28F01B50D8B443EF28F045EF28F066
:1050860069EF28F0010E0326000E042205220622EF
:1050960006A050EF28F052EF28F069EF28F003C57C
:1050A6000BF504C50CF505C50DF506C50EF50E3454
:1050B6000E320D320C320B320BC503F50CC504F55E
:1050C6000DC505F50EC506F5144A152A15BE74EF6D
:1050D60028F0155008E11428D8A074EF28F076EFD0
:1050E60028F081EF28F0000E156E1468000E036E8E
:1050F600000E046E000E056E000E066E15BE8EEFD7
:1051060028F0155006E11404D8B08CEF28F08EEF85
:1051160028F09CEF28F0000E156E000E146E000E9F
:10512600036E000E046E000E056E000E066E000E77
:10513600136E14C51AF51AA0A3EF28F0A5EF28F0F0
:10514600A8EF28F0058EA9EF28F0059ED8901A3012
:10515600066E5FEF27F0120022C538F523C539F534
:1051660024C53AF525C53BF526C53CF527C53DF5CD
:1051760028C53EF529C53FF53FBEC4EF28F0C7EF69
:1051860028F0010EC8EF28F0000E406E4050D8B44B
:10519600CFEF28F0D1EF28F0E1EF28F03F1E3E1EBA
:1051A6003D1E3C1E3B1E3A1E391E386C000E39222F
:1051B6003A223B223C223D223E223F220501B7BF36
:1051C600EFEF28F0B75106E1B605D8B0EDEF28F0BD
:1051D600EFEF28F0F5EF28F0000E356E010E346E75
:1051E600F9EF28F0B6C534F5B7C535F5B4C536F5CB
:1051F600B5C537F54050D8B403EF29F005EF29F0CF
:105206001CEF29F03606D8A037064050D8A40EEF7A
:1052160029F010EF29F016EF29F0000E336E2B0E51
:10522600326E1AEF29F0000E336E2D0E326E32C535
:1052360040F5000E426E4F0E416E000E0601576F8E
:10524600A1EF29F04106D8A04206080E4124D96EE6
:10525600060E4220DA6E38C503F539C504F53AC59F
:1052660005F53BC506F53CC507F53DC508F53EC544
:1052760009F53FC50AF50A0E0B6E000E0C6E000E00
:105286000D6E000E0E6E000E0F6E000E106E000EEE
:10529600116E000E126EADEC2DF003C52AF504C595
:1052A6002BF505C52CF506C52DF507C52EF508C544
:1052B6002FF509C530F50AC531F52AC515F52BC5F3
:1052C60016F539EC37F01550300FDF6E3406D8A0DE
:1052D60035063606D8A0370638C503F539C504F5B0
:1052E6003AC505F53BC506F53CC507F53DC508F5C8
:1052F6003EC509F53FC50AF50A0E0B6E000E0C6E8B
:10530600000E0D6E000E0E6E000E0F6E000E106E6D
:10531600000E116E000E126EE9EC2CF003C538F586
:1053260004C539F505C53AF506C53BF507C53CF58F
:1053360008C53DF509C53EF50AC53FF542BEACEFC9
:1053460029F0425008E14104D8A0ACEF29F0AEEFB5
:1053560029F0CAEF29F0385039103A103B103C10AA
:105366003D103E103F10D8A4BBEF29F0BDEF29F049
:1053760025EF29F035BECAEF29F0355006E1340491
:10538600D8B0C8EF29F0CAEF29F025EF29F0405030
:10539600D8B4D0EF29F0D2EF29F0DDEF29F041069D
:1053A600D8A04206080E4124D96E060E4220DA6EB7
:1053B60040C5DFF420C515F521C516F5080E4124B4
:1053C600176E060E4220186E36C519F537C51AF542
:1053D60043EC34F01200000E0501796F000E786F71
:1053E600000E776F000E766F0BEF2AF0785141248E
:1053F600D96E79514220DA6E76514324E16E7751A7
:105406004420E26EDFC4E7F4784B792B764B772B9A
:1054160078514124D96E79514220DA6E3D0EDE185C
:10542600D8B418EF2AF01AEF2AF028EF2AF07851AC
:105436004124D96E79514220DA6EDF50D8A426EF86
:105446002AF028EF2AF0F9EF29F076514324D96E95
:1054560077514420DA6E000EDF6E34EF2AF0784B77
:10546600792B78514124D96E79514220DA6E3D0E5E
:10547600DE18D8B441EF2AF043EF2AF051EF2AF0B4
:1054860078514124D96E79514220DA6EDF50D8A482
:105496004FEF2AF051EF2AF032EF2AF0784B792BB2
:1054A600000E776F000E766F6BEF2AF0785141246D
:1054B600D96E79514220DA6E640E7625E16E050EBC
:1054C6007721E26EDFC4E7F4784B792B764B772BA6
:1054D60078514124D96E79514220DA6EDF50D8B422
:1054E60077EF2AF079EF2AF0B3EF2AF078514124CA
:1054F600D96E79514220DA6E2F0EDF6485EF2AF0DD
:1055060087EF2AF095EF2AF078514124D96E795128
:105516004220DA6E390EDF6493EF2AF095EF2AF017
:1055260059EF2AF078514124D96E79514220DA6E2A
:105536002C0EDE18D8B4A2EF2AF0A4EF2AF059EF09
:105546002AF078514124D96E79514220DA6E2E0E16
:10555600DE18D8B4B1EF2AF0B3EF2AF059EF2AF0EB
:10556600640E7625D96E050E7721DA6E000EDF6E93
:10557600000E756F000E746FDCEF2AF0640E742552
:10558600D96E050E7521DA6E2C0EDE18D8A4CEEF74
:105596002AF0D0EF2AF0DAEF2AF0640E7425D96EDD
:1055A600050E7521DA6E2E0EDF6EEBEF2AF0744BC8
:1055B600752B7651745D7551800A476E7751800A56
:1055C6004758D8A0E9EF2AF0EBEF2AF0C1EF2AF00E
:1055D600640E3D6E050E3E6E0AEC38F03DC560F574
:1055E6003EC561F53FC562F540C563F545C5D9F4CD
:1055F60046C5DAF460C5DEF461C5DEF462C5DEF4E4
:1056060063C5DEF41200AAC52CF5ABC52DF5ACC5F5
:105616002EF5ADC52FF51CC52CF51DC52DF51EC5E2
:105626002EF51FC52FF5810E206EFF0E216E2CC59F
:1056360022F52DC523F52EC524F52FC525F5180E03
:105646002AEF2BF0D8902532243223322232E82E4C
:1056560025EF2BF0225020242A6E000E21202B6EDF
:105666002BBE3FEF2BF02B5009E1170E2A5CD8A07A
:105676003FEF2BF041EF2BF04BEF2BF01CC51CF549
:105686001DC51DF51EC51EF51FC51FF50EEF2CF019
:105696002BBE50EF2BF052EF2BF0C2EF2BF02AC5AA
:1056A60020F5FF0E216EFF0E226E7F0E236E000E7A
:1056B600246E206661EF2BF069EF2BF02434243240
:1056C600233222322132202E5CEF2BF021C526F523
:1056D60022C527F523C528F524C529F526502C14FF
:1056E600206E27502D14216E28502E14226E29501C
:1056F6002F14236E2050211022102310D8A486EFD9
:105706002BF088EF2BF08AEF2BF041EF2BF02CC516
:1057160020F52DC521F52EC522F52FC523F5200E22
:105726009AEF2BF0D8902332223221322032E82E03
:1057360095EF2BF02050211022102310D8B4A6EF9D
:105746002BF0A8EF2BF0B0EF2BF026502C2627508D
:105756002D2228502E2229502F22261C206E271C4F
:10576600216E281C226E291C236E20502C162150D7
:105776002D1622502E1623502F1606EF2CF02CC570
:1057860020F52DC521F52EC522F52FC523F5200EB2
:10579600D2EF2BF0D8902332223221322032E82E5B
:1057A600CDEF2BF02050211022102310D8A4DEEFCD
:1057B6002BF0E0EF2BF0EAEF2BF0000E2C6E000E34
:1057C6002D6E000E2E6E000E2F6E06EF2CF0D8906A
:1057D6002C34206E2D34216E2E34226E2F34236EFF
:1057E6002050211022102310D8B4FCEF2BF0FEEF2E
:1057F6002BF006EF2CF0000E2C6E000E2D6E800E98
:105806002E6EBF0E2F6E2CC51CF52DC51DF52EC593
:105816001EF52FC51FF512000B6E0B50D8B416EFF0
:105826002CF018EF2CF03AEF2CF006BE1FEF2CF000
:105836001DEF2CF03AEF2CF003C507F504C508F56B
:1058460005C509F506C50AF5071E081E091E0A1E26
:10585600072A000E082209220A2207C50DF508C5E7
:105866000EF509C50FF50AC510F542EF2CF003C574
:105876000DF504C50EF505C50FF506C510F5035063
:10588600041005100610D8A44BEF2CF04DEF2CF0A9
:1058960057EF2CF0000E036E000E046E000E056E20
:1058A600000E066EE8EF2CF0960E0C6E61EF2CF0F3
:1058B6000C2AD89010320F320E320D32000E0D1413
:1058C600076E000E0E14086E000E0F14096EFE0E03
:1058D60010140A6E0750081009100A10D8A476EFA3
:1058E6002CF078EF2CF05BEF2CF086EF2CF00C2AE6
:1058F600010E0D26000E0E220F221022D890103215
:105906000F320E320D32000E0D14076E000E0E14FD
:10591600086E000E0F14096EFF0E10140A6E075063
:10592600081009100A10D8A49BEF2CF09DEF2CF05C
:105936007AEF2CF0A5EF2CF00C06D8900D360E362B
:105946000F3610360FBEAAEF2CF0ACEF2CF0B4EFEA
:105956002CF0020E0C60B2EF2CF0B4EF2CF09FEF9F
:105966002CF00CB0B9EF2CF0BBEF2CF0BCEF2CF008
:105976000F9ED8900C320CC507F5086A096A0A6AA8
:1059860007C50AF5096A086A076A07500D12085022
:105996000E1209500F120A5010120B50D8B4D6EF3F
:1059A6002CF0D8EF2CF0E0EF2CF006BEDFEF2CF059
:1059B600DDEF2CF0E0EF2CF0108E0DC503F50EC5D3
:1059C60004F50FC505F510C506F51200000E146E98
:1059D60012BEF2EF2CF0F0EF2CF004EF2DF0121EB9
:1059E600111E101E0F1E0E1E0D1E0C1E0B6C000E21
:1059F6000C220D220E220F22102211221222010E3B
:105A0600146E0ABE0BEF2DF009EF2DF01DEF2DF0F1
:105A16000A1E091E081E071E061E051E041E036C0E
:105A2600000E0422052206220722082209220A2243
:105A3600010E141A21EE15F1070EDE6AE806FDE2E4
:105A46000B500C100D100E100F101010111012101C
:105A5600D8B430EF2DF032EF2DF084EF2DF0010E9B
:105A6600136E40EF2DF0D8900B360C360D360E36F1
:105A76000F36103611361236132A12AE45EF2DF0B8
:105A860047EF2DF036EF2DF0D8901536163617362F
:105A9600183619361A361B361C360B50035C0C505A
:105AA60004580D5005580E5006580F500758105000
:105AB60008581150095812500A58D8A065EF2DF011
:105AC60067EF2DF078EF2DF00B50035E0C50045A63
:105AD6000D50055A0E50065A0F50075A1050085AC4
:105AE6001150095A12500A5A1580D89012321132A2
:105AF60010320F320E320D320C320B32132E47EFAC
:105B06002DF01450D8B48AEF2DF08CEF2DF09CEFC9
:105B16002DF01C1E1B1E1A1E191E181E171E161EE1
:105B2600156C000E16221722182219221A221B2281
:105B36001C2215C503F516C504F517C505F518C5C8
:105B460006F519C507F51AC508F51BC509F51CC5DF
:105B56000AF51200000E146E0ABEB6EF2DF0B4EF71
:105B66002DF0C8EF2DF00A1E091E081E071E061E80
:105B7600051E041E036C000E0422052206220722BF
:105B8600082209220A22010E146E12BECFEF2DF052
:105B9600CDEF2DF0DFEF2DF0121E111E101E0F1E81
:105BA6000E1E0D1E0C1E0B6C000E0C220D220E225C
:105BB6000F221022112212220B500C100D100E1063
:105BC6000F10101011101210D8B4ECEF2DF0EEEFEC
:105BD6002DF036EF2EF0010E136EFCEF2DF0D8905F
:105BE6000B360C360D360E360F361036113612368B
:105BF600132A12AE01EF2EF003EF2EF0F2EF2DF086
:105C06000B50035C0C5004580D5005580E500658A6
:105C16000F500758105008581150095812500A587A
:105C2600D8A018EF2EF01AEF2EF02AEF2EF00B5018
:105C3600035E0C50045A0D50055A0E50065A0F506A
:105C4600075A1050085A1150095A12500A5AD89039
:105C56001232113210320F320E320D320C320B323A
:105C6600132E03EF2EF01450D8B43CEF2EF03EEF77
:105C76002EF04EEF2EF00A1E091E081E071E061EE7
:105C8600051E041E036C000E0422052206220722AE
:105C9600082209220A2203C503F504C504F505C531
:105CA60005F506C506F507C507F508C508F509C5CE
:105CB60009F50AC50AF5120061EC38F08C0E036E80
:105CC600060E046E580E056E060E066E7EEC35F058
:105CD600390E0501926F260E936F8C0E946F060E89
:105CE600956FF6EC37F08C0E416E060E426E680E1E
:105CF600436E060E446E9E0E456E060E466EEEEC26
:105D060029F0010E0501926F260E936F680E946FAF
:105D1600060E956FF6EC37F0170E0501926F260EFC
:105D2600936F9EC694F59FC695F5A0C696F5A1C637
:105D360097F5F6EC37F0450E0501926F260E936F38
:105D4600B8C594F5B9C595F5F6EC37F08C0E126E1C
:105D5600060E136E230E146E780E156E060E166E54
:105D660068EC33F012C59CF613C59DF6000E0601CD
:105D7600A36F000EA26FDBEF2EF02B0E926F260E96
:105D8600936FA2C694F5A3C695F5D8900601A235E1
:105D9600D96EA335DA6E780ED926060EDA22DEC45F
:105DA60096F5DDC497F5F6EC37F00601A24BA32B6A
:105DB6009C51A25DA351800A0501986F06019D5171
:105DC600800A05019859D8A0EBEF2EF0EDEF2EF0E2
:105DD600C0EF2EF0520E0501996F2B0E986F000E34
:105DE600E82EFED7982FFCD7992FFAD700F061EF4F
:105DF6002EF00DEF00F021EEADF211EE13F1060ECE
:105E0600DBC4E3F4E806FCE210C51EF511C51FF578
:105E16001E501F10D8A412EF2FF014EF2FF018EF1A
:105E26002FF0130E1E6E050E1F6E1EC503F51FC541
:105E360004F5AFEC37F003C520F504C521F5B6C56A
:105E460022F5B7C523F523BE2BEF2FF02DEF2FF04C
:105E560042EF2FF02050225C2350800A126E215010
:105E6600800A1258D8A03AEF2FF03CEF2FF03EEF01
:105E76002FF042EF2FF022C520F523C521F520C5CE
:105E860022F521C523F5B4C51AF5B5C51BF558EF9E
:105E96002FF0000E066E200E056E0EC507F50FC517
:105EA60008F5B5EC33F0204A212A1A50205C21501F
:105EB600800A126E1B50800A1258D8A065EF2FF088
:105EC60067EF2FF04CEF2FF0000E1D6E000E1C6ECC
:105ED60080EF2FF01EC5D9F41FC5DAF4DF50126E1D
:105EE6001250056E066A0EC507F50FC508F5B5EC26
:105EF60033F01E4A1F2A1C4A1D2A22501C5C1D50C4
:105F0600800A126E2350800A1258D8A08DEF2FF007
:105F16008FEF2FF06DEF2FF01200053406340C6E64
:105F26000C50D8A499EF2FF09BEF2FF0A5EF2FF090
:105F3600000E036E000E046E000E056E000E066E59
:105F460012EF30F003C507F504C508F505C509F5D8
:105F560006C50AF5200EB5EF2FF0D8900A320932A1
:105F660008320732E82EB0EF2FF007500B6E058E81
:105F7600FF0E0316FF0E0416FF0E0516000E06167C
:105F8600960E0C5E0CBECCEF2FF0CAEF2FF0E2EFB0
:105F96002FF00C50800A970FD8B0D4EF2FF0D6EF21
:105FA6002FF0D8EF2FF09BEF2FF0D8900632053266
:105FB600043203320C3ED8EF2FF0FAEF2FF01F0E0B
:105FC6000C64E8EF2FF0EAEF2FF0F2EF2FF09BEFE3
:105FD6002FF0D89003360436053606360C060C50DC
:105FE600D8A4F8EF2FF0FAEF2FF0ECEF2FF00B50CC
:105FF600D8B400EF30F002EF30F00AEF30F0061EB2
:10600600051E041E036C000E04220522062203C58B
:1060160003F504C504F505C505F506C506F5120024
:10602600000E1C14246E000E1D14256E800E1E1408
:10603600266E7F0E1F14276E24502510261027105B
:10604600D8A428EF30F02AEF30F032EF30F0000E0F
:106056001C6E000E1D6E000E1E6E000E1F6E000ED4
:106066002014246E000E2114256E800E2214266E36
:106076007F0E2314276E2450251026102710D8A42F
:1060860047EF30F049EF30F051EF30F0000E206E60
:10609600000E216E000E226E000E236E1FAE56EF0E
:1060A60030F058EF30F061EF30F01C6C1D1ED8B0A8
:1060B6001D2A1E1ED8B01E2A800E1F5623AE66EF5E
:1060C60030F068EF30F071EF30F0206C211ED8B060
:1060D600212A221ED8B0222A800E2356000E1C1A10
:1060E600000E1D1A000E1E1A800E1F1A000E201A10
:1060F600000E211A000E221A800E231A20501C5C54
:1061060021501D5822501E5823501F58D8B08EEFCC
:1061160030F090EF30F093EF30F0D89094EF30F00D
:10612600D8801200AEC50DF5AFC50EF5B0C50FF59A
:10613600B1C510F503C50DF504C50EF505C50FF57A
:1061460006C510F50DC507F50EC508F50FC509F509
:1061560010C50AF5180EB5EF30F0D8900A3209329C
:1061660008320732E82EB0EF30F007500B6E0C6A9B
:106176000B500C10D8A4C2EF30F0C4EF30F0E4EFAF
:1061860030F0D8900D34076E0E34086E0F34096E59
:1061960010340A6E0750081009100A10D8A4D6EF5A
:1061A60030F0D8EF30F0DEEF30F0000E046E020E65
:1061B600036E13EF31F0000E046E030E036E13EF41
:1061C60031F00B280C10D8A4EBEF30F0EDEF30F0E7
:1061D6000FEF31F00DC507F50EC508F50FC509F52A
:1061E60010C50AF5090ED8900736083609360A365C
:1061F600E82EF6EF30F00750081009100A10D8B450
:1062060007EF31F00AEF31F0010E0BEF31F0000E1F
:10621600036E046A13EF31F0000E046E040E036E73
:10622600120003C50AF504C50BF505C50CF506C530
:106236000DF50706D8A00806072806E10828D8A401
:1062460027EF31F029EF31F036EF31F0000E046E12
:10625600000E036E8EEF31F00A4A0B2A0C4A0D2A05
:106266000706D8A008060AC5F6F40BC5F7F4000E13
:10627600F86E0800F5500009D8B444EF31F046EF47
:1062860031F078EF31F00CC5F6F40DC5F7F4000ED9
:10629600F86E0800F5500009D8B454EF31F056EF07
:1062A60031F078EF31F007500810D8B45DEF31F0D7
:1062B6005FEF31F078EF31F00AC5F6F40BC5F7F46D
:1062C600000EF86E0800F5C409F50CC5F6F40DC508
:1062D600F7F4000EF86E0800F5500918D8B476EFFA
:1062E60031F078EF31F02FEF31F00AC5F6F40BC537
:1062F600F7F4000EF86E0800F5C409F50CC5F6F4BF
:106306000DC5F7F4000EF86E0800F550095C036E33
:10631600046AD8A0040612000E500F10D8A496EFF7
:1063260031F098EF31F0ABEF31F0B2C50EF5B3C5F1
:106336000FF50E500F10D8A4A3EF31F0A5EF31F0F2
:10634600ABEF31F0000E0E6E000E0F6EFFEF31F068
:106356000EC507F50FC508F510C509F511C50AF5EF
:10636600B5EC34F007500E2608500F220EC5D9F4AE
:106376000FC5DAF4DF50D8A4C3EF31F0C5EF31F022
:10638600D0EF31F0000E0501B26F000EB36FB2C54B
:106396000EF5B3C50FF5FFEF31F00EC507F50FC5C6
:1063A60008F510C509F511C50AF5E8EC34F00750F3
:1063B6000E240501B26F08500F20B36FB2C5D9F491
:1063C600B3C5DAF4DF50D8B4EBEF31F0EDEF31F0CE
:1063D600F7EF31F0B2C5D9F4B3C5DAF4000EDF6ECB
:1063E600B24BB32BFBEF31F0000EB26F000EB36F62
:1063F6000EC50EF50FC50FF512009A0E5D24D96E67
:10640600DA6A050EDA22000EDF6E0201B2A70EEF7F
:1064160032F010EF32F026EF32F09A0E5D24D96E8C
:10642600DA6A050EDA220501DF8202D826EF32F09B
:106436000500FA6E0601AA51FD6EAB51FE6EAC5117
:10644600FF6EFA5012000201B2A32CEF32F02EEFCB
:1064560032F044EF32F09A0E5D24D96EDA6A050EF8
:10646600DA220501DF8402D844EF32F00500FA6E25
:106476000601A751FD6EA851FE6EA951FF6EFA5096
:1064860012009A0E5D24D96EDA6A050EDA22DF5002
:10649600D8B450EF32F052EF32F062EF32F002D859
:1064A60060EF32F00500FA6E0601A451FD6EA551AB
:1064B600FE6EA651FF6EFA50120064EF32F059ECF0
:1064C60037F01200A290000E036E640E046E000EEA
:1064D600056E75EC38F0A292E80E036E6D0E046E32
:1064E600000E056E6EEC38F0000E0201A56F000E70
:1064F600A66F000EA76F000EA86F000EA96F000E04
:10650600AA6FB00EAB6F800EAC6F000EAD6F820E31
:10651600AE6F060EAF6F000EB06F000EB16F000EBD
:10652600B26F000EB36F420E036E710E046E000E54
:10653600056E83EC38F0400E036E710E046E000E8D
:10654600056E7CEC38F03A0E036E710E046E000E8A
:10655600056E8AEC38F0000E0501BB6F000EBE6FAB
:10656600000EBD6F080EC56F000E5D6E000E5C6EF0
:10657600000EBC6FA2801200000E03140B6E000EFC
:1065860004140C6E800E05140D6E7F0E06140E6E2E
:106596000B500C100D100E10D8A4D4EF32F0D6EF1D
:1065A60032F0DEEF32F0000E036E000E046E000EC7
:1065B600056E000E066E000E07140B6E000E081414
:1065C6000C6E800E09140D6E7F0E0A140E6E0B50A3
:1065D6000C100D100E10D8A4F3EF32F0F5EF32F0D8
:1065E600FDEF32F0000E076E000E086E000E096E0B
:1065F600000E0A6E075003180FE1085004180CE14C
:106606000950051809E10A500618D8B40DEF33F001
:106616000FEF33F012EF33F0D89013EF33F0D8804A
:106626001200000EC26E000EC16E000EBE6E000E8F
:10663600C36E000EBF6E000EC06E070ECA6EFE0E53
:10664600CB6EC668C768C868C96804011869FE0EBB
:10665600106F0869070E206FFC0E286F0069000E88
:10666600196F000E296F000E216F000E096F000EC4
:10667600016F000E116F000E0201896F000E886F08
:10668600000E876F000E866F000E0401226F000E4B
:106696002A6F000E026F000E0A6F000E126F000EB8
:1066A6001A6F03690B6913691B69070E236F2B6940
:1066B60004690C6914691C690F0E246F2C69200E7D
:1066C6000201296F290E726F1200000E1A6E000E5B
:1066D600196E12C50EF513C50FF5720E106E260E45
:1066E600116E8FEC31F00EC517F50FC518F599EF41
:1066F60033F0D8901934D96E1A34DA6E1550D9267B
:106706001650DA2217C5DEF418C5DDF4194A1A2A1E
:10671600000E0E6E000E0F6E720E106E260E116EAD
:106726008FEC31F00EC517F50FC518F51750181078
:10673600D8B4A0EF33F0A2EF33F0B0EF33F01ABEC7
:10674600AEEF33F01A5009E10A0E195CD8A0AEEF8D
:1067560033F0B0EF33F07CEF33F019C512F51AC5FC
:1067660013F5120007500810D8B4BCEF33F0BEEF93
:1067760033F0C7EF33F007500810D8A4C5EF33F055
:10678600C7EF33F0CCEF33F0055091EC38F0FFEF64
:1067960033F020EE09F00750D9260850DA22DE50F1
:1067A600DE10D8B4D9EF33F0DBEF33F0F6EF33F089
:1067B60020EE09F00750D9260850DA2210EE03F031
:1067C6000750E1260850E222DE50E65CE650800AD9
:1067D6000D6EDE50800A0D58D8B0F4EF33F0F6EFA8
:1067E60033F0FFEF33F020EE03F00750D9260850C0
:1067F600DA22DE2A000EDD221200FAC401F5FBC4FD
:1068060002F5A2A209EF34F00BEF34F022EF34F0D8
:10681600B2A210EF34F012EF34F022EF34F002D8C7
:1068260020EF34F00500FA6E0501BF51FD6EC05130
:10683600FE6EC151FF6EFA5012003EEF34F0A2A078
:1068460027EF34F029EF34F03EEF34F0B2A02EEF0C
:1068560034F030EF34F03EEF34F002D83EEF34F04F
:106866000500FA6E0501C251FD6EC351FE6EC4519C
:10687600FF6EFA50120002C5FBF401C5FAF41100CE
:106886001ABE48EF34F04AEF34F050EF34F019C531
:106896001EF51AC51FF554EF34F0000E1F6E000EDC
:1068A6001E6E000E1D6E000E1C6E66EF34F0000E9E
:1068B600066E200E056E15C507F516C508F5B5EC6E
:1068C60033F01C4A1D2A1E501C5C1D50800A1B6E8C
:1068D6001F50800A1B58D8A073EF34F075EF34F0C0
:1068E6005AEF34F017C50EF518C50FF515C510F596
:1068F60016C511F517EC37F01200000E0B6E000EE0
:106906000C6E000E0D6E000E0E6E03A08DEF34F0B1
:106916008FEF34F097EF34F007500B2608500C2217
:1069260009500D220A500E22D8900736083609362D
:106936000A36D89006320532043203320350041068
:1069460005100610D8A4AAEF34F0ACEF34F088EFA7
:1069560034F00BC503F50CC504F50DC505F50EC5DC
:1069660006F51200000E0D6E000E0C6EBFEF34F031
:10697600074A082A0C4A0D2A07C5D9F408C5DAF4CD
:10698600DF50D8B4C9EF34F0CBEF34F0E3EF34F096
:1069960009C503F50AC504F507C5D9F408C5DAF42F
:1069A600DF500B6E0B50056E066ADBEC35F00350BC
:1069B6000410D8A4E1EF34F0E3EF34F0BBEF34F089
:1069C6000CC507F50DC508F51200000E0D6E000E7C
:1069D6000C6EF2EF34F0074A082A0C4A0D2A07C556
:1069E600D9F408C5DAF4DF50D8B4FCEF34F0FEEF82
:1069F60034F016EF35F009C503F50AC504F507C5E9
:106A0600D9F408C5DAF4DF500B6E0B50056E066A32
:106A1600DBEC35F003500410D8B414EF35F016EF64
:106A260035F0EEEF34F00CC507F50DC508F512008C
:106A360006BE2AEF35F006500510041006E10304E1
:106A4600D8B028EF35F02AEF35F045EF35F003C51D
:106A560007F504C508F505C509F506C50AF5071EB7
:106A6600081E091E0A1E072A000E082209220A22EB
:106A760007C503F508C504F509C505F50AC506F5F4
:106A86004DEF35F003C503F504C504F505C505F559
:106A960006C506F51200010E0D6ED00E0724096E0E
:106AA600FF0E08200A6E0A5009E10A0E095CD8A0FA
:106AB6005FEF35F061EF35F07AEF35F0200E071015
:106AC600096E000E08100A6E9F0E09240B6EFF0E4B
:106AD6000A200C6E0C5009E1060E0B5CD8A076EF6E
:106AE60035F078EF35F07AEF35F0000E0D6E0DC506
:106AF60007F5086A120005C509F506C50AF503C5B6
:106B06000BF504C50CF50950076E0A50086E094AC4
:106B16000A2A07C5F6F408C5F7F4000EF86E0BC589
:106B2600D9F40CC5DAF40B4A0C2A250EF76403D007
:106B36000800F55005D0F6C4E1F4F7C4E2F4E750D6
:106B4600DF6EDF50D8A4AAEF35F0ACEF35F086EF54
:106B560035F01200000E0301D96F000EDA6F000E39
:106B6600DB6F000EDC6F000EDF6F000EE06F000EB5
:106B7600E56F000EE76F000EEC6FE80EEE6F030E8A
:106B8600EF6F000EF06F000EF16F000EF26F000E49
:106B9600F46F100EF56F000EF66F000EF76F000E15
:106BA600F86F000EF96F000EFA6F940EF36F120075
:106BB60003C5F6F404C5F7F4000EF86E0800F550A8
:106BC6000518D8A4E9EF35F0EBEF35F0F1EF35F025
:106BD60003C503F504C504F507EF36F003C5F6F45F
:106BE60004C5F7F4034A042A000EF86E0800F550AF
:106BF6000009D8A401EF36F003EF36F0DBEF35F0ED
:106C0600000E036E000E046E1200036E0501C551E0
:106C1600D8B410EF36F012EF36F009EF36F0A2B224
:106C260017EF36F019EF36F01DEF36F003C5A3F275
:106C360032EF36F0A292A20EBE25D96EDA6A050EA2
:106C4600DA2203C5DFF4BE2B070EBE652DEF36F044
:106C56002FEF36F031EF36F0000EBE6FC507A28279
:106C660012008EC558F58FC559F548EF36F08CC51C
:106C760043F58DC544F5580E456E050E466E90C516
:106C860047F591C548F5EEEC24F058C5F6F459C51C
:106C9600F7F4000EF86E0800F5500009D8A456EF78
:106CA60036F058EF36F03AEF36F0000E05018D6FEC
:106CB600000E8C6F12002C0EF66E710EF76E000E23
:106CC600F86E01EEADF210EE07F00900F5C4EEF431
:106CD600E550E150FAE101EE00F2680EEE6AE806D0
:106CE600FDE101EE9AF1250EEE6AE806FDE15D6A28
:106CF6005C6A0401080E5D6F000E5E6F000E5F6F2A
:106D060000015FEF2EF005C50CF506C50DF503C5B0
:106D16000AF504C50BF5A0EF36F00CC5D9F40DC580
:106D2600DAF4DF50096E0C4A0D2A0AC5D9F40BC5F0
:106D3600DAF409C5DFF40A4A0B2A0706D8A00806C2
:106D4600072806E10828D8A4ABEF36F0ADEF36F0F9
:106D560090EF36F01200000E201A000E211A000ED7
:106D6600221A800E231A1CC503F51DC504F51EC57F
:106D760005F51FC506F520C507F521C508F522C589
:106D860009F523C50AF579EC20F003C51CF504C501
:106D96001DF505C51EF506C51FF51200010E076E89
:106DA600200E03180410D8B4DBEF36F0DDEF36F012
:106DB600F0EF36F0F70E0324056EFF0E0420066E84
:106DC600065009E1050E055CD8A0ECEF36F0EEEFB3
:106DD60036F0F0EF36F0000E076E07C503F5046ACD
:106DE6001200080E0501C561FBEF36F0FDEF36F027
:106DF60015EF37F0A20EBD25D96EDA6A050EDA2236
:106E0600DF500201A36F0501BD2B070EBD650EEF16
:106E160037F010EF37F012EF37F0000EBD6FC52BCD
:106E260016EF37F0A2921200000E146E000E136ECB
:106E360028EF37F012C505F5066A10C507F511C526
:106E460008F5B5EC33F0134A142A13500E24D96E04
:106E560014500F20DA6EDF50126E1250D8A436EF9F
:106E660037F038EF37F01DEF37F0120016BE46EF59
:106E760037F0165006E11504D8B044EF37F046EF68
:106E860037F054EF37F015C517F516C518F5171E68
:106E9600181E174A182A17C515F518C516F558EFFE
:106EA60037F015C515F516C516F51200580E05016D
:106EB600B825D96E060EB921DA6EA1C2DFF4B84B39
:106EC600B92BB9BF70EF37F0B95109E1110EB85DB2
:106ED600D8A070EF37F072EF37F076EF37F0000E8C
:106EE600B96F000EB86F12009F0E0724096EFF0ED1
:106EF60008200A6E0A5007E11A0E095CD8B086EF20
:106F060037F088EF37F08EEF37F05F0E0714076E15
:106F1600086A92EF37F007C507F508C508F51200AD
:106F26000350041005100610D8B49CEF37F09EEFFE
:106F360037F0A6EF37F0000E031A000E041A000E03
:106F4600051A800E061A03C503F504C504F505C522
:106F560005F506C506F5120003C505F504C506F5D3
:106F6600B7EF37F0034A042A03C5D9F404C5DAF4A7
:106F7600DF50D8A4C1EF37F0C3EF37F0B5EF37F0E5
:106F86000550035C036E06500458046E12009F0EF3
:106F96000324056EFF0E0420066E06500AE11A0E43
:106FA600055CD8A0D9EF37F0DCEF37F0010EDDEF46
:106FB60037F0000E036E046A1200D00E0324056E2D
:106FC600FF0E0420066E06500AE10A0E055CD8A0E4
:106FD600EFEF37F0F2EF37F0010EF3EF37F0000E78
:106FE600036E046A1200940E5A6E050E5B6E000E56
:106FF60005018C6F000E8D6F92C58EF593C58FF5CA
:107006005A0E906F050E916F34EC36F012003DC5A6
:1070160028F53EC529F5000E2A6E000E2B6E3BECB8
:1070260013F028C53DF529C53EF52AC53FF52BC504
:1070360040F5120003500502F3C407F5F4C408F541
:1070460003500602F350082604500502F3500826A2
:1070560007C503F508C504F51200000E0001606FB0
:10706600000E616F000E636F000E646F000E656F99
:10707600000E666F000E676F000E686F1200FF0E3F
:10708600076EFF0E086EFF0E096E7F0E0A6E07C5AD
:1070960003F508C504F509C505F50AC506F5120088
:1070A600600E0001AD6F000EAF6F000EB36F080EDD
:1070B600B16F000EB06F000EAC6F12009AEC38F094
:1070C60030EC38F014EC33F053EC38F0ADEC35F02E
:1070D60065EC32F0120003C5BFF504C5C0F505C561
:1070E600C1F5120003C5C2F504C5C3F505C5C4F54F
:1070F600120003C5A7F604C5A8F605C5A9F6120031
:1071060003C5AAF604C5ABF605C5ACF6120003C561
:10711600A4F604C5A5F605C5A6F61200046E04502D
:0D71260008EC36F01200286E756C6C290024
:10713400D68ED69A120059EC37F0120012001200C3
:020000040020DA
:10000000FF0FFF0FFF0FFF0FFF0FFF0FFF0FFF0F80
:10001000FF0FFF0FFF0FFF0FFF0FFF0FFF0FFF0F70
:10002000FF0FFF0FFF0FFF0FFF0FFF0FFF0FFF0F60
:10003000FF0FFF0FFF0FFF0FFF0FFF0FFF0FFF0F50
:020000040030CA
:0A0000008CFFF7FF9FFFFFFFFFFFDB
:00000001FF
