:040000000DEF00F010
:0400080019EF2EF0CE
:06001800FF004BEF2EF08B
:10260000002325302E31662F25302E31662F2530C0
:102610002E31662F253034642F25642F25642F2515
:10262000642F25642F25642F25642A00696E6600B7
:052630006E616E000068
:10263600000E0501816F4CC582F54DC583F54EC56B
:1026460084F54FC585F585BF2DEF13F02BEF13F0FD
:1026560041EF13F0010E816F82C503F583C504F5C2
:1026660084C505F585C506F5C9EC2DF003C582F5CB
:1026760004C583F505C584F506C585F5000E050177
:10268600876F000E866FCDC575F5CEC576F581517F
:10269600D8B450EF13F052EF13F066EF13F08151F8
:1026A600D8A458EF13F05AEF13F060EF13F0000EB2
:1026B600676F2B0E666F64EF13F0000E676F2D0EBB
:1026C600666F66C581F582C503F583C504F584C5C5
:1026D60005F585C506F5C5EC29F003040410D8A454
:1026E60077EF13F079EF13F0ACEF13F0050181519A
:1026F600D8B480EF13F082EF13F08BEF13F081C59F
:1027060000F67507D8A07607000E876F010E866F54
:10271600000E8625036E060E8721046E2C0E056EAE
:10272600260E066E65EC2DF00501FD0E7527FF0ED3
:1027360076234AC515F54BC516F5000E176E060E1F
:10274600186E75C519F576C51AF5F3EC2AF05FEF24
:1027560018F082C503F583C504F584C505F585C55E
:1027660006F5C5EC29F003500410D8A4BDEF13F00C
:10277600BFEF13F0F2EF13F005018151D8B4C6EFA5
:1027860013F0C8EF13F0D1EF13F081C500F675070B
:10279600D8A07607000E876F010E866F000E86257D
:1027A600036E060E8721046E300E056E260E066E2B
:1027B60065EC2DF00501FD0E7527FF0E76234AC543
:1027C60015F54BC516F5000E176E060E186E75C577
:1027D60019F576C51AF5F3EC2AF05FEF18F0000E3E
:1027E6000501886F000E896F800E8A6F3F0E8B6F12
:1027F600000E706F000E6F6F82C503F583C504F57A
:1028060084C505F585C506F5000E076E000E086E33
:10281600000E096E000E0A6E9EEC2AF0D8B016EF76
:1028260014F018EF14F0F7EF14F025EF14F071C55B
:1028360088F572C589F573C58AF574C58BF50501EA
:102846006F4B702B88C51DF589C51EF58AC51FF50A
:102856008BC520F5000E216E000E226E200E236E13
:10286600410E246E78EC1DF01DC571F51EC572F57E
:102876001FC573F520C574F505017151825D036EA0
:1028860072518359046E73518459056E745185597A
:10289600066E15EC2CF006BE5CEF14F00650051023
:1028A600041009E1020E035CD8A05CEF14F05EEFA1
:1028B60014F01AEF14F071C536F572C537F573C505
:1028C60038F574C539F582C53AF583C53BF584C537
:1028D6003CF585C53DF543EC29F0D8A075EF14F01D
:1028E60077EF14F01AEF14F005018851825D036E3C
:1028F60089518359046E8A518459056E8B518559C5
:10290600066E15EC2CF006BE96EF14F00650051078
:10291600041007E1020E035CD8B094EF14F096EFB2
:1029260014F0DEEF14F088C582F589C583F58AC5F3
:1029360084F58BC585F5F7EF14F088C51DF589C5B7
:102946001EF58AC51FF58BC520F5000E216E000EFB
:10295600226E200E236E410E246E8DEC1FF01DC5D7
:1029660088F51EC589F51FC58AF520C58BF50501B5
:102976006F07D8A070078851825D036E895183590D
:10298600046E8A518459056E8B518559066E15EC75
:102996002CF006BEDCEF14F006500510041007E11B
:1029A600020E035CD8B0DAEF14F0DCEF14F0DEEFC1
:1029B60014F096EF14F082C536F583C537F584C555
:1029C60038F585C539F588C53AF589C53BF58AC513
:1029D6003CF58BC53DF543EC29F0D8A0F5EF14F096
:1029E600F7EF14F0A0EF14F050C569F569C56AF564
:1029F6000501D0BF01EF15F003EF15F009EF15F053
:102A0600CFC562F5D0C563F50DEF15F0000E636F07
:102A1600060E626F62C56DF563C56EF56D4B6E2B66
:102A2600660E6A19D8A41AEF15F01CEF15F03CEFE4
:102A360015F070BF23EF15F021EF15F02FEF15F00D
:102A4600000E886F000E896F800E8A6F3F0E8B6FA7
:102A5600000E706F000E6F6F670E6919D8B436EFEF
:102A660015F038EF15F03CEF15F06F516D277051EA
:102A76006E23000E806F000E7F6F82C577F583C5CB
:102A860078F584C579F585C57AF588C571F589C562
:102A960072F58AC573F58BC574F5CDEF15F077C55C
:102AA6001DF578C51EF579C51FF57AC520F588C5CB
:102AB60021F589C522F58AC523F58BC524F58DEC4C
:102AC6001FF01DC536F51EC537F51FC538F520C5DF
:102AD60039F533EC24F036C57BF537C57CF538C5BA
:102AE6007DF539C57EF57BC503F57CC504F57DC549
:102AF60005F57EC506F5C0EC28F003C56BF504C5E3
:102B06006CF577C536F578C537F579C538F57AC5E4
:102B160039F57BC521F57CC522F57DC523F57EC536
:102B260024F588C51DF589C51EF58AC51FF58BC513
:102B360020F578EC1DF01DC53AF51EC53BF51FC501
:102B46003CF520C53DF51FEC2DF036C577F537C5AC
:102B560078F538C579F539C57AF588C51DF589C57D
:102B66001EF58AC51FF58BC520F5000E216E000ED9
:102B7600226E200E236E410E246E8DEC1FF01DC5B5
:102B860088F51EC589F51FC58AF520C58BF5050193
:102B96007F4B802B6D517F5D8051800A516E6E5147
:102BA600800A5158D8A0DAEF15F0DCEF15F052EF95
:102BB60015F088C51DF589C51EF58AC51FF58BC597
:102BC60020F5000E216E000E226EA00E236E400E22
:102BD600246E78EC1DF01DC57BF51EC57CF51FC562
:102BE6007DF520C57EF577C536F578C537F579C507
:102BF60038F57AC539F57BC53AF57CC53BF57DC513
:102C06003CF57EC53DF543EC29F0D8B00DEF16F046
:102C16000FEF16F01AEF16F0000E05017B6F000E8F
:102C26007C6F000E7D6F000E7E6F43EF16F077C54A
:102C360003F578C504F579C505F57AC506F57BC5AE
:102C460007F57CC508F57DC509F57EC50AF59EEC38
:102C56002AF0D8A031EF16F033EF16F043EF16F056
:102C660005016BB139EF16F03BEF16F043EF16F0A6
:102C7600000E7B6F000E7C6F000E7D6F000E7E6F68
:102C860082C503F583C504F584C505F585C506F536
:102C96007BC507F57CC508F57DC509F57EC50AF532
:102CA60018EC1BF003C577F504C578F505C579F56D
:102CB60006C57AF577C536F578C537F579C538F599
:102CC6007AC539F5000E216E000E226E200E236E97
:102CD600410E246E71C51DF572C51EF573C51FF52F
:102CE60074C520F578EC1DF01DC53AF51EC53BF5FB
:102CF6001FC53CF520C53DF543EC29F0D8A086EF6D
:102D060016F088EF16F0B1EF16F005016F4B702B39
:102D160071C51DF572C51EF573C51FF574C520F581
:102D2600000E216E000E226E200E236E410E246EC2
:102D360078EC1DF01DC571F51EC572F51FC573F53E
:102D460020C574F5660E05016A19D8A4ADEF16F014
:102D5600AFEF16F0B1EF16F06D4B6E2B71C588F51F
:102D660072C589F573C58AF574C58BF56FC560F5AF
:102D760070C561F5000E0501686F000E656F000EE7
:102D8600646F000E806F000E7F6FAFEF17F077C590
:102D96001DF578C51EF579C51FF57AC520F588C5D8
:102DA60021F589C522F58AC523F58BC524F58DEC59
:102DB6001FF01DC536F51EC537F51FC538F520C5EC
:102DC60039F533EC24F036C57BF537C57CF538C5C7
:102DD6007DF539C57EF57BC503F57CC504F57DC556
:102DE60005F57EC506F5C0EC28F004BE06EF17F023
:102DF600045007E10A0E035CD8B004EF17F006EFA3
:102E060017F016EF17F07BC503F57CC504F57DC5F5
:102E160005F57EC506F5C0EC28F003C56BF504C5BF
:102E26006CF51BEF17F0000E05016C6F090E6B6F4A
:102E360005016851D8A422EF17F024EF17F04CEFE4
:102E460017F061BF2BEF17F029EF17F04CEF17F0D3
:102E5600000E8625D96E060E8721DA6E2E0EDF6EDF
:102E6600864B872B7507D8A07607010E686F4CEF47
:102E760017F0000E8625D96E060E8721DA6E300E03
:102E8600DF6E864B872B7507D8A076076407D8A018
:102E9600650764516511D8A453EF17F055EF17F085
:102EA6003CEF17F0000E8625D96E060E8721DA6EE6
:102EB6006B51300FDF6E864B872B7507D8A07607D0
:102EC60077C536F578C537F579C538F57AC539F554
:102ED6007BC521F57CC522F57DC523F57EC524F588
:102EE60088C51DF589C51EF58AC51FF58BC520F554
:102EF60078EC1DF01DC53AF51EC53BF51FC53CF522
:102F060020C53DF51FEC2DF036C577F537C578F5AC
:102F160038C579F539C57AF588C51DF589C51EF513
:102F26008AC51FF58BC520F5000E216E000E226E98
:102F3600200E236E410E246E8DEC1FF01DC588F504
:102F46001EC589F51FC58AF520C58BF505016007E5
:102F5600D8A061077F4B802B6D517F5D8051800A21
:102F6600516E6E51800A5158D8B0BCEF17F0BEEFC3
:102F760017F0CCEF17F087BFCAEF17F0875109E1BA
:102F86004B0E865DD8A0CAEF17F0CCEF17F0CAEF4C
:102F960016F0000E806F4F0E7F6F000E7F25D96EE4
:102FA600060E8021DA6E000EDF6E000E516E060EE2
:102FB600526E8651515E8751525A7F515124036E8B
:102FC60080515220046E000E056E060E066E86C5F2
:102FD60007F587C508F5D0EC2CF0050186517F5D15
:102FE600866F87518059876F8151D8A4FDEF17F0FE
:102FF60000EF18F0010E01EF18F0000E7F6F806BE6
:103006005CA208EF18F00AEF18F038EF18F01AEF84
:1030160018F08607D8A08707000E8625D96E060EFB
:103026008721DA6E300EDF6E7507D8A076077551E8
:103036007F5D8051800A516E7651800A5158D8B012
:1030460027EF18F029EF18F038EF18F086517F5D5A
:103056008051800A516E8751800A5158D8A036EFA8
:1030660018F038EF18F00CEF18F08151D8B43EEF95
:1030760018F040EF18F04BEF18F08607D8A0870736
:10308600000E8625D96E060E8721DA6E81C5DFF41D
:103096007F51755F8051765B4AC515F54BC516F5B0
:1030A600000E8625176E060E8721186E75C519F552
:1030B60076C51AF5F3EC2AF0120055C5D9F456C5B3
:1030C600DAF4DEC4F6F4DDC4F7F4000EF86E080098
:1030D600F550250AD8A472EF18F074EF18F001EF36
:1030E6001BF055C5D9F456C5DAF4DE2A000EDD22EA
:1030F600000E0501CE6F000ECD6FCDC55CF5CF6914
:10310600D069000E8D6F000E8C6FB6EF18F05C82E2
:1031160055C5D9F456C5DAF4DE2A000EDD22B6EF1F
:1031260018F0000E8D6F010E8C6FB6EF18F055C5B6
:10313600D9F456C5DAF4DEC4F6F4DDC4F7F4000EAD
:10314600F86E0800F550596E5A6A5A50000AD8B4FB
:10315600AFEF18F094EF18F05950300AD8B48AEF50
:1031660018F094EF18F08C518D11D8B4BDEF18F00B
:10317600BFEF18F09AEF18F055C5D9F456C5DAF432
:10318600DEC4F6F4DDC4F7F4000EF86E0800F55060
:103196002A0AD8A4D1EF18F0D3EF18F0FCEF18F0F4
:1031A60055C5D9F456C5DAF4DE2A000EDD2257C518
:1031B600D9F458C5DAF4DFC459F5020EDE26DFC4A9
:1031C6005AF5000EDD2259C5D9F45AC5DAF4DEC423
:1031D600CDF5DDC4CEF5CEBFF5EF18F0F3EF18F060
:1031E60031EF19F05C80CD6DCE1FD8B0CE2B31EF0C
:1031F60019F055C5D9F456C5DAF4DEC409F5DDC4AF
:103206000AF58CEC27F009C5CDF50AC5CEF513EF06
:1032160019F055C5D9F456C5DAF4DE2A000EDD22BA
:1032260055C5D9F456C5DAF4DEC4F6F4DDC4F7F4B0
:10323600000EF86E0800F5C459F5D00E59245A6EE2
:103246005B6AFF0E5B225B5009E10A0E5A5CD8A04E
:103256002FEF19F031EF19F00CEF19F055C5D9F42D
:1032660056C5DAF4DEC4F6F4DDC4F7F4000EF86EE3
:103276000800F5502E0AD8A443EF19F045EF19F0CF
:10328600B7EF19F0000E0501D06F000ECF6F55C5D0
:10329600D9F456C5DAF4DE2A000EDD2255C5D9F476
:1032A60056C5DAF4DEC4F6F4DDC4F7F4000EF86EA3
:1032B6000800F5502A0AD8A463EF19F065EF19F053
:1032C60082EF19F055C5D9F456C5DAF4DE2A000E98
:1032D600DD2257C5D9F458C5DAF4DFC459F5020E14
:1032E600DE26DFC45AF5000EDD2259C5D9F45AC5CB
:1032F600DAF4DEC4CFF5DDC4D0F5B7EF19F055C565
:10330600D9F456C5DAF4DEC409F5DDC40AF58CEC49
:1033160027F009C5CFF50AC5D0F599EF19F055C5BF
:10332600D9F456C5DAF4DE2A000EDD2255C5D9F4E5
:1033360056C5DAF4DEC4F6F4DDC4F7F4000EF86E12
:103346000800F5C459F5D00E59245A6E5B6AFF0E73
:103356005B225B5009E10A0E5A5CD8A0B5EF19F062
:10336600B7EF19F092EF19F055C5D9F456C5DAF44E
:10337600DEC497F5DDC498F597C5F6F498C5F7F45D
:10338600000EF86E0800F550640AD8B4CDEF19F0B7
:10339600CFEF19F0DFEF19F097C5F6F498C5F7F4FB
:1033A600000EF86E0800F550690AD8A4DDEF19F092
:1033B600DFEF19F023EF1AF057C5D9F458C5DAF440
:1033C600DFC459F5020EDE26DFC45AF5000EDD22F3
:1033D60059C5D9F45AC5DAF4DEC48EF5DDC48FF5C5
:1033E6000501000E8FBFFF0E906F916F926F936F66
:1033F600946F956F010E9725596E000E98215A6E9F
:1034060055C5D9F456C5DAF459C5DEF45AC5DDF406
:1034160053C520F554C521F58EC522F58FC523F574
:1034260090C524F591C525F592C526F593C527F5D2
:1034360094C528F595C529F5D8EC22F017EF1BF0B1
:1034460055C5D9F456C5DAF4DEC497F5DDC498F54A
:1034560097C5F6F498C5F7F4000EF86E0800F5C4A3
:1034660096F542EF1AF0974B982B5CEF1AF06C0E1C
:10347600966F5CEF1AF0000E966F5CEF1AF005017E
:103486009651596E5A6A5A50000AD8B44DEF1AF03E
:103496003EEF1AF059504C0AD8B436EF1AF02A0A01
:1034A600D8B43AEF1AF00A0AD8B436EF1AF03EEF5B
:1034B6001AF097C5F6F498C5F7F4000EF86E0800F2
:1034C600F550660AD8A46AEF1AF06CEF1AF0F8EF16
:1034D6001AF0A2EF1AF057C5D9F458C5DAF4DFC4CA
:1034E60059F5040EDE26DFC45AF5000EDD2259C555
:1034F600D9F45AC5DAF4DEC48EF5DEC48FF5DEC41F
:1035060090F5DEC491F5B7EF1AF057C5D9F458C552
:10351600DAF4DFC459F5040EDE26DFC45AF5000ED0
:10352600DD2259C5D9F45AC5DAF4DEC48EF5DEC4F7
:103536008FF5DEC490F5DEC491F5B7EF1AF096511B
:10354600596E5A6A5A50000AD8B4ACEF1AF0B7EF5F
:103556001AF059504C0AD8B488EF1AF0200AD8B499
:103566006EEF1AF0B7EF1AF0010E9725596E000E9E
:1035760098215A6E55C5D9F456C5DAF459C5DEF404
:103586005AC5DDF4E0EF1AF053C54AF554C54BF5BC
:103596008EC54CF58FC54DF590C54EF591C54FF5C9
:1035A60097C5F6F498C5F7F4000EF86E0800F5C452
:1035B60050F51BEC13F017EF1BF097C5F6F498C502
:1035C600F7F4000EF86E0800F550596E5A6A5A5014
:1035D600000AD8B4F1EF1AF0F8EF1AF05950660A5B
:1035E600D8B4C7EF1AF0F8EF1AF055C5D9F456C596
:1035F600DAF4DE2A000EDD2217EF1BF055C5D9F4EA
:1036060056C5DAF4DEC4F6F4DDC4F7F4000EF86E3F
:103616000800F550056E066A53C507F554C508F54A
:1036260048EC2BF0F8EF1AF012000650800B0F6EE4
:1036360006500624116E05AE23EF1BF025EF1BF096
:1036460026EF1BF011801150D8B42CEF1BF02EEF93
:103656001BF043EF1BF01128D8A434EF1BF036EF14
:103666001BF03EEF1BF0000E036E000E046E000E04
:10367600056E000E066E058E000E066E4BEF1BF0F5
:10368600000E036E000E046E000E056E000E066E32
:103696000A50800B106E0F501018D8B455EF1BF05F
:1036A60057EF1BF058EF1BF00F8C0A500A24106ED0
:1036B60009AE60EF1BF062EF1BF063EF1BF01080AA
:1036C6001050D8B469EF1BF06BEF1BF080EF1BF0C6
:1036D6001028D8A471EF1BF073EF1BF07BEF1BF0E3
:1036E600000E076E000E086E000E096E000E0A6EC2
:1036F600098E000E0A6E88EF1BF0000E076E000E94
:10370600086E000E096E000E0A6E1150105CD8B0DD
:103716008FEF1BF091EF1BF0B8EF1BF00FAC96EF9D
:103726001BF098EF1BF09AEF1BF0800E0F1A11C5D5
:1037360012F510C511F512C510F503C512F507C52A
:1037460003F512C507F504C512F508C504F512C53B
:1037560008F505C512F509C505F512C509F506C52D
:1037660012F50AC506F512C50AF5000E126E1150BD
:1037760010C50BF50C6A0B5E000E0C5A0CBECDEF95
:103786001BF00C5009E11A0E0B5CD8A0CDEF1BF014
:10379600CFEF1BF006EF1CF00350041005100610C7
:1037A600D8A4D8EF1BF0DBEF1BF0010EDCEF1BF00B
:1037B600000E126E000E036E000E046E000E056EF5
:1037C600000E066E10C511F50FEF1CF012A0EEEFFD
:1037D6001BF0F0EF1BF0F6EF1BF0D890123001094A
:1037E600126EF8EF1BF0D890123203A0FDEF1BF01B
:1037F600FFEF1BF000EF1CF0128E06340632053286
:1038060004320332112A1050115CD8A00DEF1CF0BF
:103816000FEF1CF0E9EF1BF00FBC14EF1CF016EFD6
:103826001CF056EF1CF01150D8A41CEF1CF01EEF34
:103836001CF028EF1CF0000E036E000E046E000E46
:10384600056E000E066E77EF1DF007500326085032
:103856000422095005220A50062206A035EF1CF064
:1038660037EF1CF0E3EF1CF012A03CEF1CF03EEF2C
:103876001CF044EF1CF0D89012300109126E46EF8E
:103886001CF0D890123203A04BEF1CF04DEF1CF049
:103896004EEF1CF0128E0634063205320432033225
:1038A600112AE3EF1CF00750035C08500458095036
:1038B60005580650800A0B6E0A50800A0B58D8B07D
:1038C60067EF1CF069EF1CF094EF1CF00350075CE7
:1038D6000B6E045008580C6E055009580D6E0650B4
:1038E6000A580E6EFF0E0B24036EFF0E0C20046E9C
:1038F600FF0E0D20056EFF0E0E20066E800E0F1AAF
:10390600126C1250D8A48AEF1CF08CEF1CF09CEFBE
:103916001CF0010E0326000E0422052206229CEF4F
:103926001CF00750035E0850045A0950055A0A5005
:10393600065A0350041005100610D8A4A5EF1CF073
:10394600A7EF1CF0DCEF1CF01250D8A4ADEF1CF072
:10395600AFEF1CF0DCEF1CF0000E036E000E046EE1
:10396600000E056E000E066E77EF1DF0D89003363A
:1039760004360536063612AEC3EF1CF0C5EF1CF052
:10398600C6EF1CF0038012A0CBEF1CF0CDEF1CF0AD
:10399600D1EF1CF0D8801236D3EF1CF0D890123637
:1039A6001150D8B4D9EF1CF0DBEF1CF0DCEF1CF0A3
:1039B600110605AEE1EF1CF0E3EF1CF0B9EF1CF0C9
:1039C600000E106E12AEEAEF1CF0ECEF1CF004EFE6
:1039D6001DF012C50BF57F0E0B16D8B4F5EF1CF0D3
:1039E600F7EF1CF0FBEF1CF0010E106E04EF1DF05C
:1039F60003A000EF1DF002EF1DF004EF1DF0F7EF3E
:103A06001CF01050D8B40AEF1DF00CEF1DF037EF84
:103A16001DF0010E0326000E04220522062206A032
:103A260017EF1DF019EF1DF037EF1DF003C50BF56D
:103A360004C50CF505C50DF506C50EF50E340E329A
:103A46000D320C320B320BC503F50CC504F50DC552
:103A560005F50EC506F51128D8B434EF1DF036EF7E
:103A66001DF037EF1DF0112A1128D8B43DEF1DF0D7
:103A76003FEF1DF047EF1DF01150D8A445EF1DF0A4
:103A860047EF1DF059EF1DF0000E036E000E046E99
:103A9600000E056E000E066E1150D8A455EF1DF0EF
:103AA60057EF1DF059EF1DF0000E0F6E11A05EEFDF
:103AB6001DF060EF1DF063EF1DF0058E64EF1DF045
:103AC600059ED8901130066E0FAE6CEF1DF06EEFAE
:103AD6001DF06FEF1DF0068E03C503F504C504F552
:103AE60005C505F506C506F512002050800B296EA2
:103AF600205020242F6E1FAE83EF1DF085EF1DF0A2
:103B060086EF1DF02F802F50D8B48CEF1DF08EEF6E
:103B16001DF0A1EF1DF02F28D8A494EF1DF096EF0D
:103B26001DF09EEF1DF0000E1D6E000E1E6E000EA7
:103B36001F6E000E206E1F8EA9EF1DF0000E1D6E6B
:103B4600000E1E6E000E1F6E000E206E2450800B9F
:103B5600291A245024242A6E23AEB4EF1DF0B6EFA2
:103B66001DF0B7EF1DF02A802A50D8B4BDEF1DF026
:103B7600BFEF1DF0D2EF1DF02A28D8A4C5EF1DF027
:103B8600C7EF1DF0CFEF1DF0000E216E000E226E66
:103B9600000E236E000E246E238EDAEF1DF0000E4B
:103BA600216E000E226E000E236E000E246E2A5029
:103BB600D8B4E0EF1DF0E2EF1DF0EAEF1DF02F5054
:103BC600D8A4E8EF1DF0EAEF1DF0F4EF1DF0000EAB
:103BD6001D6E000E1E6E000E1F6E000E206E8CEF08
:103BE6001FF023501D02F3C434F5F4C435F53450E8
:103BF6002B6E2C6A2D6A2E6A3550306E316A326A07
:103C0600336A22501E02F3C434F5F4C435F5345039
:103C16002B26000E2C222D222E2235503026000E69
:103C260031223222332221501F02F3C434F5F4C468
:103C360035F534502B26000E2C222D222E223550FF
:103C46003026000E3122322233222DC52EF52CC508
:103C56002DF52BC52CF52B6A21501E02F3C434F525
:103C6600F4C435F534502B2635502C22000E2D2267
:103C7600000E2E2222501D02F3C434F5F4C435F58D
:103C860034502B2635502C22000E2D22000E2E22CB
:103C96002DC52EF52CC52DF52BC52CF52B6A2150DF
:103CA6001D02F3C434F5F4C435F534502B263550D3
:103CB6002C22000E2D22000E2E2223501E02F3C4AB
:103CC60034F5F4C435F53450302635503122000E23
:103CD6003222000E332222501F02F3C434F5F4C4FC
:103CE60035F53450302635503122000E3222000E82
:103CF600332223501F02F3C434F5F4C435F534508F
:103D0600256E3550266E276A286A27C528F526C5EA
:103D160027F525C526F5256A255030262650312259
:103D260027503222285033222BC525F52CC526F5DF
:103D36002DC527F52EC528F5190EA7EF1EF0D8902C
:103D46002832273226322532E82EA2EF1EF02550E1
:103D560030262650312227503222285033222DC5B4
:103D66002EF52CC52DF52BC52CF52B6A2A502FC503
:103D760025F5266A2526000E2622820E2524346E77
:103D8600FF0E2620356EDDEF1EF0D8903036313628
:103D9600323633362EAED2EF1EF0D4EF1EF0D5EF0C
:103DA6001EF03080D8902B362C362D362E36340623
:103DB600D8A0350632AEE2EF1EF0E4EF1EF0C8EFF3
:103DC6001EF0000E2A6E2EAEEBEF1EF0EDEF1EF08B
:103DD60011EF1FF0FF0E2B14256EFF0E2C14266E0E
:103DE600FF0E2D14276E7F0E2E14286E25502610DA
:103DF60027102810D8B402EF1FF004EF1FF008EFC9
:103E06001FF0010E2A6E11EF1FF030A00DEF1FF00C
:103E16000FEF1FF011EF1FF004EF1FF02A50D8B478
:103E260017EF1FF019EF1FF03DEF1FF0010E3026C0
:103E3600000E31223222332233A024EF1FF026EF68
:103E46001FF03DEF1FF030C525F531C526F532C50B
:103E560027F533C528F5283428322732263225326D
:103E660025C530F526C531F527C532F528C533F504
:103E7600344A352A35BE48EF1FF0355008E134285C
:103E8600D8A048EF1FF04AEF1FF054EF1FF0000EC6
:103E9600306E000E316E800E326E7F0E336E82EF04
:103EA6001FF035BE61EF1FF0355006E13404D8B07F
:103EB6005FEF1FF061EF1FF06DEF1FF0000E306E29
:103EC600000E316E000E326E000E336E000E296E3D
:103ED60082EF1FF034C52FF5FF0E3016FF0E311698
:103EE6007F0E3216000E33162FA07CEF1FF07EEFEA
:103EF6001FF07FEF1FF0328ED8902F30336E29508F
:103F0600331230C51DF531C51EF532C51FF533C553
:103F160020F512002050800B2D6E20502024346E88
:103F26001FAE98EF1FF09AEF1FF09BEF1FF0348043
:103F36003450D8B4A1EF1FF0A3EF1FF0B8EF1FF075
:103F46003428D8A4A9EF1FF0ABEF1FF0B3EF1FF092
:103F5600000E1D6E000E1E6E000E1F6E000E206EF1
:103F66001F8E000E206EC0EF1FF0000E1D6E000E9D
:103F76001E6E000E1F6E000E206E2450800B2D1A32
:103F860024502424356E23AECBEF1FF0CDEF1FF067
:103F9600CEEF1FF035803550D8B4D4EF1FF0D6EFF2
:103FA6001FF0EBEF1FF03528D8A4DCEF1FF0DEEF93
:103FB6001FF0E6EF1FF0000E216E000E226E000EBF
:103FC600236E000E246E238E000E246EF3EF1FF078
:103FD600000E216E000E226E000E236E000E246E61
:103FE6002150221023102410D8A4FCEF1FF0FEEF5E
:103FF6001FF016EF20F0000E1D6E000E1E6E000E56
:104006001F6E000E206E800E1F127F0E20122D5086
:1040160020121DC51DF51EC51EF51FC51FF520C5A1
:1040260020F559EF21F03450D8A41CEF20F01EEFF4
:1040360020F028EF20F0000E1D6E000E1E6E000E02
:104046001F6E000E206E59EF21F0355034C525F550
:10405600266A255E000E265A7F0E25242E6E000E39
:1040660026202F6E1DC529F51EC52AF51FC52BF561
:1040760020C52CF5000E1D6E000E1E6E000E1F6E66
:10408600000E206E000E306E000E316E000E326E87
:10409600000E336E000E356E89EF20F03550D8B421
:1040A60057EF20F059EF20F070EF20F0D890293626
:1040B6002A362B362C36D8901D361E361F3620361D
:1040C60033AE68EF20F06AEF20F06BEF20F01D8032
:1040D600D89030363136323633362150295C22506C
:1040E6002A5823502B5824502C58D8A07DEF20F066
:1040F6007FEF20F088EF20F0338C2150295E22508C
:104106002A5A23502B5A24502C5A352A190E356414
:104116008FEF20F091EF20F051EF20F029502A1078
:104126002B102C10D8B49AEF20F09CEF20F0B4EFAF
:1041360020F03080B4EF20F0D8901D361E361F36A2
:10414600203633AEA9EF20F0ABEF20F0ACEF20F035
:104156001D80D89030363136323633362E06D8A00A
:104166002F061FAEB9EF20F0BBEF20F09FEF20F037
:10417600000E356E33AEC2EF20F0C4EF20F0E8EF4C
:1041860020F0FF0E3014256EFF0E3114266EFF0E42
:104196003214276E7F0E3314286E255026102710F2
:1041A6002810D8B4D9EF20F0DBEF20F0DFEF20F0B5
:1041B600010E356EE8EF20F01DA0E4EF20F0E6EFEB
:1041C60020F0E8EF20F0DBEF20F03550D8B4EEEF2A
:1041D60020F0F0EF20F014EF21F0010E1D26000E66
:1041E6001E221F22202220A0FBEF20F0FDEF20F050
:1041F60014EF21F01DC525F51EC526F51FC527F5AB
:1042060020C528F52834283227322632253225C5FE
:104216001DF526C51EF527C51FF528C520F52E4A0E
:104226002F2A2FBE1FEF21F02F5008E12E28D8A0ED
:104236001FEF21F021EF21F02CEF21F0000E2F6E61
:104246002E68000E1D6E000E1E6E000E1F6E000EF6
:10425600206E2FBE39EF21F02F5006E12E04D8B084
:1042660037EF21F039EF21F047EF21F0000E2F6EE6
:10427600000E2E6E000E1D6E000E1E6E000E1F6EC0
:10428600000E206E000E2D6E2EC534F534A04EEFB6
:1042960021F050EF21F053EF21F01F8E54EF21F063
:1042A6001F9ED8903430206E0AEF20F0120009ECE1
:1042B6002FF0CFB461EF21F063EF21F079EF21F019
:1042C600CFA468EF21F06AEF21F063EF21F0C192ED
:1042D600C184000E0501D86F010ED76F000ED66F90
:1042E600000ED56F000ED46F000ED36FD0B47EEFE4
:1042F60021F080EF21F096EF21F0D0A485EF21F098
:1043060087EF21F080EF21F0C182C194000E0501F4
:10431600D86F000ED76F000ED66F010ED56F000E48
:10432600D46F000ED36FD0B69BEF21F09DEF21F036
:10433600B3EF21F0D0A6A2EF21F0A4EF21F09DEF7C
:1043460021F0C182C184000E0501D86F000ED76F1F
:10435600000ED66F000ED56F000ED46F010ED36F10
:10436600CEB6B8EF21F0BAEF21F0D4EF21F0CEA609
:10437600BFEF21F0C1EF21F0BAEF21F0C1BEC6EFC9
:1043860021F0C9EF21F0010ECAEF21F0000EFF0A5D
:104396000501BF6FBF33BF33C150BF197F0BBF19B4
:1043A600C16ECEB8D9EF21F0DBEF21F0F6EF21F0A8
:1043B600CEA8E0EF21F0E2EF21F0DBEF21F0C1BC67
:1043C600E7EF21F0EAEF21F0010EEBEF21F0000E0E
:1043D600FF0A0501BF6FBF3BBF47BF47C150BF19AB
:1043E600BF0BBF19C16ED2B4FBEF21F0FDEF21F078
:1043F60017EF22F0D2A402EF22F004EF22F0FDEF35
:1044060021F0C1BA09EF22F00CEF22F0010E0DEFF8
:1044160022F0000EFF0A0501BF6FBF3BBF47C15028
:10442600BF19DF0BBF19C16ED1BE1CEF22F021EF01
:1044360022F00501BF6BBF2B23EF22F00501BF6BF6
:10444600BF51DD6FDE6BD1BC2BEF22F02FEF22F0D8
:10445600BF6BBF2B31EF22F00501BF6BBF51DB6F86
:10446600DC6BD1BA39EF22F03DEF22F0BF6BBF2BE8
:104476003FEF22F00501BF6BBF51D96FDA6B000E1B
:1044860063EC2EF003C50FF504C510F5116A126A28
:10449600000E3CEC25F00FC51DF510C51EF511C527
:1044A6001FF512C520F5F60E216E090E226EA00E1E
:1044B600236E3A0E246E78EC1DF01DC5C9F51EC597
:1044C600CAF51FC5CBF520C5CCF5F8EC2CF003C515
:1044D600D1F504C5D2F500EC2EF003C5E1F504C50F
:1044E600E2F50501E105E211D8A47CEF22F07EEFAA
:1044F60022F08CEF22F0000EE26F000EE16FE90E63
:10450600366E050E376EE50E386E050E396E3BECCF
:1045160028F0010E0501A16F260EA26FE5C5A3F5D1
:10452600E6C5A4F5E7C5A5F5E8C5A6F5E9C5A7F569
:10453600EAC5A8F5EBC5A9F5ECC5AAF5C9C5ABF55D
:10454600CAC5ACF5CBC5ADF5CCC5AEF5D1C5AFF595
:10455600D2C5B0F5DDC5B1F5DEC5B2F5DBC5B3F53F
:10456600DCC5B4F5D9C5B5F5DAC5B6F5D5C5B7F523
:10457600D6C5B8F5D3C5B9F5D4C5BAF5D7C5BBF513
:10458600D8C5BCF5BCEC2EF0030E0501C06F700E4D
:10459600BF6F5C0EE82EFED7BF2FFCD7C02FFAD711
:1045A60000F05CEF21F00DEF00F022C538F523C5D1
:1045B60039F524C53AF525C53BF526C53CF527C58D
:1045C6003DF528C53EF529C53FF53FBEEDEF22F086
:1045D600F0EF22F0010EF1EF22F0000E406E405097
:1045E600D8B4F8EF22F0FAEF22F00AEF23F03F1EDC
:1045F6003E1E3D1E3C1E3B1E3A1E391E386C000EEA
:1046060039223A223B223C223D223E223F2205010C
:10461600D0BF10EF23F012EF23F013EF23F05C92DC
:10462600D0BF20EF23F0D05106E1CF05D8B01EEF62
:1046360023F020EF23F026EF23F0000E356E010E57
:10464600346E2AEF23F0CFC534F5D0C535F5CDC588
:1046560036F5CEC537F54050D8B434EF23F036EFF3
:1046660023F04DEF23F03606D8A037064050D8A4E5
:104676003FEF23F041EF23F047EF23F0000E336EB8
:104686002B0E326E4BEF23F0000E336E2D0E326E74
:1046960032C540F5000E426E4F0E416E000E060109
:1046A6004F6FD2EF23F04106D8A04206000E4124F8
:1046B600D96E060E4220DA6E38C503F539C504F503
:1046C6003AC505F53BC506F53CC507F53DC508F5F4
:1046D6003EC509F53FC50AF50A0E0B6E000E0C6EB7
:1046E600000E0D6E000E0E6E000E0F6E000E106E9A
:1046F600000E116E000E126EDAEC26F003C52AF5D6
:1047060004C52BF505C52CF506C52DF507C52EF5F3
:1047160008C52FF509C530F50AC531F52AC515F5C1
:104726002BC516F5A9EC2DF01550300FDF6E3406AB
:10473600D8A035063606D8A0370638C503F539C5DC
:1047460004F53AC505F53BC506F53CC507F53DC577
:1047560008F53EC509F53FC50AF50A0E0B6E000EB3
:104766000C6E000E0D6E000E0E6E000E0F6E000E1D
:10477600106E000E116E000E126E16EC26F003C5BA
:1047860038F504C539F505C53AF506C53BF507C53F
:104796003CF508C53DF509C53EF50AC53FF542BEDF
:1047A600DDEF23F0425008E14104D8A0DDEF23F00D
:1047B600DFEF23F00FEF24F0385039103A103B109A
:1047C6003C103D103E103F10D8A4ECEF23F0EEEF66
:1047D60023F056EF23F035BEFBEF23F0355006E10C
:1047E6003404D8B0F9EF23F0FBEF23F056EF23F0B3
:1047F60037BE06EF24F0375008E13604D8A006EF9E
:1048060024F008EF24F00FEF24F05CB20DEF24F053
:104816000FEF24F056EF23F04050D8B415EF24F0F4
:1048260017EF24F022EF24F04106D8A04206000E2E
:104836004124D96E060E4220DA6E40C5DFF420C54B
:1048460015F521C516F5000E4124176E060E4220F9
:10485600186E36C519F537C51AF5F3EC2AF01200AD
:10486600C1C546F5C2C547F5C3C548F5C4C549F532
:1048760036C546F537C547F538C548F539C549F54E
:10488600810E3A6EFF0E3B6E46C53CF547C53DF5BB
:1048960048C53EF549C53FF5180E57EF24F0D890A8
:1048A6003F323E323D323C32E82E52EF24F03C504D
:1048B6003A24446E000E3B20456E45BE6CEF24F054
:1048C600455009E1170E445CD8A06CEF24F06EEF5A
:1048D60024F078EF24F036C536F537C537F538C5F8
:1048E60038F539C539F53BEF25F045BE7DEF24F0A7
:1048F6007FEF24F0EFEF24F044C53AF5FF0E3B6E50
:10490600FF0E3C6E7F0E3D6E000E3E6E3A668EEFDB
:1049160024F096EF24F03E343E323D323C323B32B8
:104926003A2E89EF24F03BC540F53CC541F53DC51F
:1049360042F53EC543F5405046143A6E4150471481
:104946003B6E425048143C6E435049143D6E3A50FB
:104956003B103C103D10D8A4B3EF24F0B5EF24F083
:10496600B7EF24F06EEF24F046C53AF547C53BF5A0
:1049760048C53CF549C53DF5200EC7EF24F0D89053
:104986003D323C323B323A32E82EC2EF24F03A5006
:104996003B103C103D10D8B4D3EF24F0D5EF24F0F3
:1049A600DDEF24F04050462641504722425048222F
:1049B60043504922401C3A6E411C3B6E421C3C6EE1
:1049C600431C3D6E3A5046163B5047163C5048161F
:1049D6003D50491633EF25F046C53AF547C53BF538
:1049E60048C53CF549C53DF5200EFFEF24F0D890AB
:1049F6003D323C323B323A32E82EFAEF24F03A505E
:104A06003B103C103D10D8A40BEF25F00DEF25F020
:104A160017EF25F0000E466E000E476E000E486E2C
:104A2600000E496E33EF25F0D89046343A6E47347F
:104A36003B6E48343C6E49343D6E3A503B103C1058
:104A46003D10D8B429EF25F02BEF25F033EF25F0F4
:104A5600000E466E000E476E800E486EBF0E496E03
:104A660046C536F547C537F548C538F549C539F55C
:104A76001200176E1750D8B443EF25F045EF25F016
:104A860067EF25F012BE4CEF25F04AEF25F067EFF1
:104A960025F00FC513F510C514F511C515F512C58A
:104AA60016F5131E141E151E161E132A000E1422AA
:104AB6001522162213C519F514C51AF515C51BF5C9
:104AC60016C51CF56FEF25F00FC519F510C51AF5BB
:104AD60011C51BF512C51CF50F5010101110121040
:104AE600D8A478EF25F07AEF25F084EF25F0000EB4
:104AF6000F6E000E106E000E116E000E126E15EF88
:104B060026F0960E186E8EEF25F0182AD8901C32D5
:104B16001B321A321932000E1914136E000E1A14B3
:104B2600146E000E1B14156EFE0E1C14166E13501A
:104B3600141015101610D8A4A3EF25F0A5EF25F034
:104B460088EF25F0B3EF25F0182A010E1926000E7E
:104B56001A221B221C22D8901C321B321A321932FE
:104B6600000E1914136E000E1A14146E000E1B1488
:104B7600156EFF0E1C14166E135014101510161019
:104B8600D8A4C8EF25F0CAEF25F0A7EF25F0D2EF9D
:104B960025F01806D89019361A361B361C361BBE59
:104BA600D7EF25F0D9EF25F0E1EF25F0020E1860DA
:104BB600DFEF25F0E1EF25F0CCEF25F018B0E6EFBA
:104BC60025F0E8EF25F0E9EF25F01B9ED890183286
:104BD60018C513F5146A156A166A13C516F5156A0B
:104BE600146A136A1350191214501A1215501B1214
:104BF60016501C121750D8B403EF26F005EF26F016
:104C06000DEF26F012BE0CEF26F00AEF26F00DEFA0
:104C160026F01C8E19C50FF51AC510F51BC511F522
:104C26001CC512F51200000E146E12BE1FEF26F000
:104C36001DEF26F031EF26F0121E111E101E0F1E5C
:104C46000E1E0D1E0C1E0B6C000E0C220D220E22CB
:104C56000F22102211221222010E146E0ABE38EF04
:104C660026F036EF26F04AEF26F00A1E091E081E29
:104C7600071E061E051E041E036C000E04220522D6
:104C860006220722082209220A22010E141A21EE00
:104C960015F1070EDE6AE806FDE20B500C100D104A
:104CA6000E100F10101011101210D8B45DEF26F070
:104CB6005FEF26F0B1EF26F0010E136E6DEF26F0D2
:104CC600D8900B360C360D360E360F36103611369A
:104CD6001236132A12AE72EF26F074EF26F063EF47
:104CE60026F0D890153616361736183619361A366F
:104CF6001B361C360B50035C0C5004580D500558DF
:104D06000E5006580F5007581050085811500958A1
:104D160012500A58D8A092EF26F094EF26F0A5EF8D
:104D260026F00B50035E0C50045A0D50055A0E50D7
:104D3600065A0F50075A1050085A1150095A125065
:104D46000A5A1580D8901232113210320F320E32B2
:104D56000D320C320B32132E74EF26F01450D8B4E9
:104D6600B7EF26F0B9EF26F0C9EF26F01C1E1B1E82
:104D76001A1E191E181E171E161E156C000E162258
:104D86001722182219221A221B221C2215C503F5E6
:104D960016C504F517C505F518C506F519C507F5B1
:104DA6001AC508F51BC509F51CC50AF51200000E43
:104DB600146E0ABEE3EF26F0E1EF26F0F5EF26F0DB
:104DC6000A1E091E081E071E061E051E041E036C6B
:104DD600000E0422052206220722082209220A22A0
:104DE600010E146E12BEFCEF26F0FAEF26F00CEF61
:104DF60027F0121E111E101E0F1E0E1E0D1E0C1E5B
:104E06000B6C000E0C220D220E220F2210221122F4
:104E160012220B500C100D100E100F101010111046
:104E26001210D8B419EF27F01BEF27F063EF27F025
:104E3600010E136E29EF27F0D8900B360C360D367F
:104E46000E360F36103611361236132A12AE2EEFE4
:104E560027F030EF27F01FEF27F00B50035C0C50C4
:104E660004580D5005580E5006580F50075810504C
:104E760008581150095812500A58D8A045EF27F083
:104E860047EF27F057EF27F00B50035E0C50045AFC
:104E96000D50055A0E50065A0F50075A1050085A10
:104EA6001150095A12500A5AD89012321132103241
:104EB6000F320E320D320C320B32132E30EF27F03A
:104EC6001450D8B469EF27F06BEF27F07BEF27F08B
:104ED6000A1E091E081E071E061E051E041E036C5A
:104EE600000E0422052206220722082209220A228F
:104EF60003C503F504C504F505C505F506C506F5A0
:104F060007C507F508C508F509C509F50AC50AF56F
:104F16001200000E116E000E106E000E0F6E000EC7
:104F26000E6E98EF27F0094A0A2A09C5F6F40AC553
:104F3600F7F4000EF86E0800F550200AD8B4A6EF74
:104F460027F0A8EF27F096EF27F009C5F6F40AC573
:104F5600F7F4000EF86E0800F5C40BF5F70E0B24F7
:104F66000C6E0D6AFF0E0D220D5009E1050E0C5C4C
:104F7600D8A0C0EF27F0C2EF27F096EF27F0CCEFCE
:104F860027F0000E0F6E010E0E6E094A0A2A05EF73
:104F960028F009C5F6F40AC5F7F4000EF86E080005
:104FA600F5500B6E0C6A0C50000AD8B4DDEF27F0F2
:104FB60005EF28F00B502B0AD8B4C8EF27F0060AE5
:104FC600D8B4C4EF27F005EF28F010C503F511C5D6
:104FD60004F5000E066E0A0E056EE4EC2EF009C509
:104FE600F6F40AC5F7F4000EF86E0800F550035EF5
:104FF600000E045A300E0324106E000E0420116EAB
:10500600C8EF27F009C5F6F40AC5F7F4000EF86EE6
:105016000800F5C40BF5D00E0B240C6E0D6AFF0EBE
:105026000D220D5009E10A0E0C5CD8A01DEF28F0E8
:105036001FEF28F0E8EF27F00E500F10D8A426EF48
:1050460028F028EF28F036EF28F010C50BF511C52B
:105056000CF50B1E0C1E0B4A0C2A0BC509F50CC5CC
:105066000AF53AEF28F010C509F511C50AF5120040
:10507600D0EC2EF091EC2EF093EC2BF003C53AF524
:1050860004C53BF593EC2BF003C53CF504C53DF593
:1050960093EC2BF003C53EF504C53FF593EC2BF0DE
:1050A60003C540F504C541F593EC2BF003C542F565
:1050B60004C543F53CC50BF53DC50CF53AC509F5E8
:1050C6003BC50AF548EC2CF009C50FF50AC510F5E5
:1050D600116A126A000E3CEC25F00FC51DF510C5CD
:1050E6001EF511C51FF512C520F5000E216E000E26
:1050F600226E200E236E410E246E8DEC1FF038C5F5
:10510600D9F439C5DAF41DC5DEF41EC5DEF41FC5B3
:10511600DEF420C5DEF440C50BF541C50CF53EC5F1
:1051260009F53FC50AF548EC2CF009C50FF50AC587
:1051360010F5116A126A000E3CEC25F00FC51DF53C
:1051460010C51EF511C51FF512C520F5000E216EFE
:10515600000E226E200E236E410E246E8DEC1FF083
:1051660036C5D9F437C5DAF41DC5DEF41EC5DEF43E
:105176001FC5DEF420C5DEF41200053406340C6EBD
:105186000C50D8A4C9EF28F0CBEF28F0D5EF28F0C3
:10519600000E036E000E046E000E056E000E066E07
:1051A60042EF29F003C507F504C508F505C509F55D
:1051B60006C50AF5200EE5EF28F0D8900A32093226
:1051C60008320732E82EE0EF28F007500B6E058E06
:1051D600FF0E0316FF0E0416FF0E0516000E06162A
:1051E600960E0C5E0CBEFCEF28F0FAEF28F012EFDC
:1051F60029F00C50800A970FD8B004EF29F006EF7B
:1052060029F008EF29F0CBEF28F0D89006320532C6
:10521600043203320C3E08EF29F02AEF29F01F0E64
:105226000C6418EF29F01AEF29F022EF29F0CBEFE2
:1052360028F0D89003360436053606360C060C5090
:10524600D8A428EF29F02AEF29F01CEF29F00B50FB
:10525600D8B430EF29F032EF29F03AEF29F0061EE4
:10526600051E041E036C000E04220522062203C539
:1052760003F504C504F505C505F506C506F51200D2
:10528600000E36143E6E000E37143F6E800E381434
:10529600406E7F0E3914416E3E503F104010411053
:1052A600D8A458EF29F05AEF29F062EF29F0000E42
:1052B600366E000E376E000E386E000E396E000E1A
:1052C6003A143E6E000E3B143F6E800E3C14406E48
:1052D6007F0E3D14416E3E503F1040104110D8A441
:1052E60077EF29F079EF29F081EF29F0000E3A6E79
:1052F600000E3B6E000E3C6E000E3D6E39AE86EF24
:1053060029F088EF29F091EF29F0366C371ED8B0D6
:10531600372A381ED8B0382A800E39563DAE96EF59
:1053260029F098EF29F0A1EF29F03A6C3B1ED8B08E
:105336003B2A3C1ED8B03C2A800E3D56000E361A3B
:10534600000E371A000E381A800E391A000E3A1A55
:10535600000E3B1A000E3C1A800E3D1A3A50365C7F
:105366003B5037583C5038583D503958D8B0BEEFAE
:1053760029F0C0EF29F0C3EF29F0D890C4EF29F047
:10538600D8801200C5C50DF5C6C50EF5C7C50FF503
:10539600C8C510F503C50DF504C50EF505C50FF511
:1053A60006C510F50DC507F50EC508F50FC509F5B7
:1053B60010C50AF5180EE5EF29F0D8900A32093221
:1053C60008320732E82EE0EF29F007500B6E0C6A20
:1053D6000B500C10D8A4F2EF29F0F4EF29F014EFDB
:1053E6002AF0D8900D34076E0E34086E0F34096E0D
:1053F60010340A6E0750081009100A10D8A406EFD8
:105406002AF008EF2AF00EEF2AF0000E046E020EC4
:10541600036E43EF2AF0000E046E030E036E43EF95
:105426002AF00B280C10D8A41BEF2AF01DEF2AF047
:105436003FEF2AF00DC507F50EC508F50FC509F5AE
:1054460010C50AF5090ED8900736083609360A3609
:10545600E82E26EF2AF00750081009100A10D8B4D3
:1054660037EF2AF03AEF2AF0010E3BEF2AF0000E52
:10547600036E046A43EF2AF0000E046E040E036EF8
:105486001200000EC26E000EC16E000EBE6E000E41
:10549600C36E000EBF6E000EC06ED192D194070E81
:1054A600CA6EBE0ECB6EC668C768C868190EC96ECE
:1054B6001C0E0401186FF30E106FFB0E086F020E20
:1054C600206F3C0E286FE70E006F000E196F000E5E
:1054D600296F040E216F040E096F180E016F0C0E52
:1054E600116F000E0201896F000E886F000E876F24
:1054F600000E866F000E0401226F000E2A6F000E4A
:10550600026F000E0A6F000E126F000E1A6F03690B
:105516000B6913691B69070E236F2B6904690C69F4
:1055260014691C690F0E246F2C69200E0201296F65
:10553600290E726F1200000E03140B6E000E041477
:105546000C6E800E05140D6E7F0E06140E6E0B503B
:105556000C100D100E10D8A4B3EF2AF0B5EF2AF0F8
:10556600BDEF2AF0000E036E000E046E000E056EEF
:10557600000E066E000E07140B6E000E08140C6E5D
:10558600800E09140D6E7F0E0A140E6E0B500C1051
:105596000D100E10D8A4D2EF2AF0D4EF2AF0DCEFCB
:1055A6002AF0000E076E000E086E000E096E000E41
:1055B6000A6E075003180FE1085004180CE1095051
:1055C600051809E10A500618D8B4ECEF2AF0EEEFF8
:1055D6002AF0F1EF2AF0D890F2EF2AF0D8801200E4
:1055E6005CA0F8EF2AF0FAEF2AF004EF2BF017C5CB
:1055F6000EF518C50FF515C510F516C511F587EC8E
:105606002DF01ABE09EF2BF00BEF2BF011EF2BF05C
:1056160019C51EF51AC51FF515EF2BF0000E1F6EE6
:10562600000E1E6E000E1D6E000E1C6E27EF2BF078
:10563600000E066E200E056E15C507F516C508F593
:1056460048EC2BF01C4A1D2A1E501C5C1D50800A7B
:105656001B6E1F50800A1B58D8A034EF2BF036EF74
:105666002BF01BEF2BF05CB03BEF2BF03DEF2BF05C
:1056760047EF2BF017C50EF518C50FF515C510F534
:1056860016C511F587EC2DF0120007500810D8B496
:105696004FEF2BF051EF2BF05AEF2BF0075008107D
:1056A600D8A458EF2BF05AEF2BF05FEF2BF00550F4
:1056B6004DEC2FF092EF2BF020EE09F00750D92693
:1056C6000850DA22DE50DE10D8B46CEF2BF06EEF05
:1056D6002BF089EF2BF020EE09F00750D926085061
:1056E600DA2210EE03F00750E1260850E222DE50DF
:1056F600E65CE650800A0D6EDE50800A0D58D8B082
:1057060087EF2BF089EF2BF092EF2BF020EE03F0D2
:105716000750D9260850DA22DE2A000EDD221200B2
:10572600000E0A6E000E096E000E086E000E076E61
:10573600D2A0A0EF2BF0A2EF2BF09BEF2BF0A00E48
:10574600E82EFED7D2A0AAEF2BF0ACEF2BF0BAEFE3
:105756002BF0010E09C505F50AC506F5D8900536E4
:1057660006360510096E06500A6EBFEF2BF0D8906C
:105776000934096E0A340A6ED2B0C4EF2BF0C6EFB4
:105786002BF0BFEF2BF0074A082A08BED4EF2BF008
:10579600085009E1080E075CD8A0D4EF2BF0D6EF2D
:1057A6002BF09BEF2BF009C503F50AC504F5120093
:1057B600000E0201A56F000EA66F000EA76F000E69
:1057C600A86F000EA96F000EAA6FB00EAB6F800E09
:1057D600AC6F000EAD6F820EAE6F060EAF6F000E91
:1057E600B06F000EB16F000EB26F000EB36F000EF9
:1057F600036E000E046E000E056E38EC2FF0000EE0
:10580600036E000E046E000E056E31EC2FF0000ED6
:10581600036E000E046E000E056E3FEC2FF0000EB8
:105826005D6E120006BE24EF2CF006500510041023
:1058360006E10304D8B022EF2CF024EF2CF03FEF62
:105846002CF003C507F504C508F505C509F506C519
:105856000AF5071E081E091E0A1E072A000E082240
:1058660009220A2207C503F508C504F509C505F589
:105876000AC506F547EF2CF003C503F504C504F584
:1058860005C505F506C506F51200000E0E6E0A0ED4
:105896000D6E5CEF2CF00DC503F50EC504F5000E7C
:1058A600066E0A0E056EE4EC2EF003C50DF504C572
:1058B6000EF50D500B5C0E500C58D8B065EF2CF061
:1058C60067EF2CF04EEF2CF009C503F50AC504F579
:1058D6000DC505F50EC506F5E4EC2EF00B500324B8
:1058E600096E0C5004200A6E1200000E0301D96FD7
:1058F600000EDA6F000EDB6F000EDC6F000EDF6F3E
:10590600000EE06F000EE56F000EE76F000EEC6F05
:10591600000EEE6F000EEF6F000EF06F000EF16FCF
:10592600000EF26F000EF46F100EF56F000EF66F9C
:10593600000EF76F000EF86F000EF96F1F0EFA6F6C
:10594600840EF36F12009BC59FF59CC5A0F5BAEFB8
:105956002CF099C553F59AC554F59F0E556E050E54
:10596600566E9DC557F59EC558F560EC18F09FC557
:10597600F6F4A0C5F7F4000EF86E0800F55000091D
:10598600D8A4C8EF2CF0CAEF2CF0ACEF2CF0000E28
:1059960005019A6F000E996F120005C50CF506C534
:1059A6000DF503C50AF504C50BF5EAEF2CF00CC599
:1059B600D9F40DC5DAF4DF50096E0C4A0D2A0AC572
:1059C600D9F40BC5DAF409C5DFF40A4A0B2A07062F
:1059D600D8A00806072806E10828D8A4F5EF2CF079
:1059E600F7EF2CF0DAEF2CF01200000E066E000E28
:1059F600056ED38C350EE82EFED700F0D39CD3AEC1
:105A060007EF2DF009EF2DF002EF2DF013EF2DF03B
:105A1600054A062AB90E00D0E82EFDD700D000F0C0
:105A2600D3BE18EF2DF01AEF2DF00BEF2DF005C5B4
:105A360003F506C504F51200000E3A1A000E3B1ACD
:105A4600000E3C1A800E3D1A36C503F537C504F51F
:105A560038C505F539C506F53AC507F53BC508F558
:105A66003CC509F53DC50AF518EC1BF003C536F52E
:105A760004C537F505C538F506C539F51200010E1A
:105A8600076E200E03180410D8B44CEF2DF04EEF1D
:105A96002DF061EF2DF0F70E0324056EFF0E0420A6
:105AA600066E065009E1050E055CD8A05DEF2DF0E7
:105AB6005FEF2DF061EF2DF0000E076E07C503F5C1
:105AC600046A120005C507F506C508F503C509F5FC
:105AD60004C50AF507C5F6F408C5F7F4074A082A07
:105AE600000EF86E09C5D9F40AC5DAF4094A0A2A7D
:105AF6000800F5C4DFF4DF50D8A484EF2DF086EF5C
:105B06002DF06DEF2DF01200000E146E000E136EC8
:105B160098EF2DF012C505F5066A10C507F511C5F3
:105B260008F548EC2BF0134A142A13500E24D96EAC
:105B360014500F20DA6EDF50126E1250D8A4A6EF62
:105B46002DF0A8EF2DF08DEF2DF0120016BEB6EF5A
:105B56002DF0165006E11504D8B0B4EF2DF0B6EFCF
:105B66002DF0C4EF2DF015C517F516C518F5171E3F
:105B7600181E174A182A17C515F518C516F5C8EFC1
:105B86002DF015C515F516C516F5120003500410AF
:105B960005100610D8B4D2EF2DF0D4EF2DF0DCEFBF
:105BA6002DF0000E031A000E041A000E051A800EC0
:105BB600061A03C503F504C504F505C505F506C5AE
:105BC60006F51200B19E32EC2EF00501E34BE42BF4
:105BD600B00EE31907E1040EE419D8A4F5EF2DF091
:105BE600F7EF2DF0FFEF2DF0000EE26F010EE16FE3
:105BF600000EE46F000EE36F12000501E105E211ED
:105C0600D8A408EF2EF00AEF2EF014EF2EF0000EB7
:105C1600E26F000EE16F000E046E010E036E18EFC8
:105C26002EF0000E046E000E036E1200FAC401F58B
:105C3600FBC402F5A1AE22EF2EF024EF2EF02DEFDD
:105C46002EF0B1AE29EF2EF02BEF2EF02DEF2EF029
:105C5600E5EC2DF002C5FBF401C5FAF411000501CF
:105C6600ED51EE11EF11D8B43BEF2EF03DEF2EF0D3
:105C76004AEF2EF002D84AEF2EF00500FA6EED51EB
:105C8600FD6EEE51FE6EEF51FF6EFA5012001200DD
:105C960001EE00F2500EEE6AE806FDE101EEC1F1FA
:105CA6002C0EEE6AE806FDE15D6A5C6A0401080EE8
:105CB6005D6F000E5E6F000E5F6F00015AEF21F000
:105CC600076E07C5ECF30301F38FF39DF381F3B180
:105CD6006FEF2EF071EF2EF06AEF2EF0EB51066E9D
:105CE600056AEA510524036E000E0620046E1200B2
:105CF600D00E0324056EFF0E0420066E06500AE140
:105D06000A0E055CD8A08AEF2EF08DEF2EF0010E5C
:105D16008EEF2EF0000E036E046A1200D2B096EFDC
:105D26002EF098EF2EF091EF2EF0D2A09DEF2EF0F0
:105D36009FEF2EF098EF2EF0D2B0A4EF2EF0A6EF44
:105D46002EF09FEF2EF01200680E03011B6FF90E66
:105D5600196F000E186FB19EA18EAA0E036E5E0E0D
:105D6600046E000E056E46EC2FF0800E03011A6FCE
:105D76001200A30E0501BD6F050EBE6F000E996FD2
:105D8600000E9A6FA1C59BF5A2C59CF5BD0E9D6F31
:105D9600050E9E6FA6EC2CF01200CA90C290020E61
:105DA600046EA00E036E920EE82EFED7032EFCD7CD
:105DB600042EFAD700D0C280A00EE82EFED7CA80E5
:105DC600120003500502F3C407F5F4C408F50350A6
:105DD6000602F350082604500502F350082607C5AC
:105DE60003F508C504F51200000E0001606F000EF1
:105DF600616F000E636F000E646F000E656F000E1C
:105E0600666F000E676F000E686F120052EC2FF07F
:105E1600F7EC2EF044EC2AF018EC2FF078EC2CF08E
:105E2600A7EC2EF0DBEC2BF01200600E0001AD6F3C
:105E3600000EAF6F000EB36F080EB16F000EB06F9D
:105E4600000EAC6F1200036EB2A22CEF2FF02EEFF5
:105E56002FF027EF2FF003C5A3F2120003C5F3F5C9
:105E660004C5F4F505C5F5F5120003C5F6F504C538
:105E7600F7F505C5F8F5120003C5F0F504C5F1F50B
:105E860005C5F2F5120003C5EDF504C5EEF505C529
:105E9600EFF51200046E045026EC2FF01200D68E99
:065EA600D69A1200120062
:020000040020DA
:10000000FF0FFF0FFF0FFF0FFF0FFF0FFF0FFF0F80
:10001000FF0FFF0FFF0FFF0FFF0FFF0FFF0FFF0F70
:10002000FF0FFF0FFF0FFF0FFF0FFF0FFF0FFF0F60
:10003000FF0FFF0FFF0FFF0FFF0FFF0FFF0FFF0F50
:020000040030CA
:0A0000008CFFF7FF9FFFFFFFFFFFDB
:00000001FF
