:040000000DEF00F010
:04000800DCEF14F025
:06001800FF007AEF15F075
:1026000000494E46494E49545900696E66696E69E3
:102610007479004E414E00696E66006E616E002353
:102620000000B0EC15F0D68E2F0E256E050E266E2E
:10263000600E276E050E286E3EEC15F02F0E2D6EE7
:10264000050E2E6E230E2D1807E1310E2E18D8A47C
:102650002CEF13F02EEF13F03EEF13F0BFB033EF7B
:1026600013F036EF13F0010E37EF13F0000EFF0AF0
:102670002D6EBF502D18FE0B2D18BF6E2F0E2D6E18
:10268000050E2E6E230E2D1807E1320E2E18D8A43B
:102690004CEF13F04EEF13F05FEF13F0BFB253EFB8
:1026A00013F056EF13F0010E57EF13F0000EFF0A70
:1026B0002D6E2D46BF502D18FD0B2D18BF6E2F0E01
:1026C0002D6E050E2E6E230E2D1807E1330E2E18DB
:1026D000D8A46DEF13F06FEF13F081EF13F0BFB4D8
:1026E00074EF13F077EF13F0010E78EF13F0000E94
:1026F000FF0A2D6E2D462D46BF502D18FB0B2D18B1
:10270000BF6E000E406E000E3F6EBCEF13F0600E09
:102710003F24D96E050E4020DA6E230EDE18D8A4B1
:1027200094EF13F096EF13F0BAEF13F0000E1C6E57
:10273000000E1B6E000E426E000E416EAAEF13F0EB
:10274000600E4124D96E050E4220DA6E000EDF6E57
:10275000414A422A600E4124D96E050E4220DA6EAB
:10276000DF50D8A4B6EF13F0B8EF13F0A0EF13F0DA
:1027700014EF13F03F4A402A600E3F24D96E050E35
:102780004020DA6EDF50D8A4C8EF13F0CAEF13F080
:1027900087EF13F014EF13F00DEF00F0010E20247B
:1027A000D96EDA6A050EDA22000EDF6E0201B2A7D8
:1027B000DCEF13F0DEEF13F0F2EF13F0010E202444
:1027C000D96EDA6A050EDA22DF8202D8F2EF13F050
:1027D0000500FA6E4950FD6E4A50FE6E4B50FF6E7A
:1027E000FA5012000201B2A3F8EF13F0FAEF13F05F
:1027F0000EEF14F0010E2024D96EDA6A050EDA22EB
:10280000DF8402D80EEF14F00500FA6E4650FD6E1C
:102810004750FE6E4850FF6EFA501200010E202401
:10282000D96EDA6A050EDA22DF50D8B41AEF14F046
:102830001CEF14F02BEF14F002D829EF14F0050070
:10284000FA6E4350FD6E4450FE6E4550FF6EFA50D6
:1028500012002DEF14F05DEC15F01200A2909C0E0A
:10286000256E270E266E000E276EC2EC15F0A29282
:102870003A0E256E2A0E266E000E276EBBEC15F062
:10288000000E0201A56F000EA66F000EA76F000ECE
:10289000A86F000EA96F000EAA6FB00EAB6F800E6E
:1028A000AC6F000EAD6F820EAE6F060EAF6F000EF6
:1028B000B06F000EB16F000EB26F000EB36FC80E96
:1028C000256E2B0E266E000E276ED0EC15F0C60E70
:1028D000256E2B0E266E000E276EC9EC15F0BC0E71
:1028E000256E2B0E266E000E276ED7EC15F0000E0F
:1028F0001D6E000E226E000E216E080E526E000E2E
:10290000206E000E1F6E000E1E6EA2801200000EC2
:10291000C26E000EC16E000EBE6E000EC36E000EC3
:10292000BF6E000EC06E070ECA6EFE0ECB6EC6687E
:10293000F80EC76EC868C968040118691069F80EF6
:10294000086F070E206FFD0E286F0069000E196FCB
:10295000000E296F000E216F000E096F000E016F2F
:10296000000E116F000E0201896F000E886F000EBD
:10297000876F000E866F000E0401226F000E2A6F13
:10298000000E026F000E0A6F000E126F000E1A6F1B
:1029900003690B6913691B69070E236F2B690469AF
:1029A0000C6914691C690F0E246F2C69200E02013A
:1029B000296F290E726F1200FAC423F5FBC424F5A7
:1029C000A2A2E5EF14F0E7EF14F0FDEF14F0B2A2CD
:1029D000ECEF14F0EEEF14F0FDEF14F002D8FBEF83
:1029E00014F00500FA6E4C50FD6E4D50FE6E4E50C8
:1029F000FF6EFA50120018EF15F0A2A002EF15F0CA
:102A000004EF15F018EF15F0B2A009EF15F00BEF79
:102A100015F018EF15F002D818EF15F00500FA6E52
:102A20004F50FD6E5050FE6E5150FF6EFA50120026
:102A300024C5FBF423C5FAF41100080E526023EFFD
:102A400015F025EF15F03CEF15F0110E2124D96E8D
:102A5000DA6A050EDA22DF500201A36F212A070E7F
:102A6000216435EF15F037EF15F039EF15F0000E52
:102A7000216E522A3DEF15F0A292120027C529F5CA
:102A800028C52AF525C52BF526C52CF529C5D9F469
:102A90002AC5DAF4294A2A2A2BC5E1F42CC5E2F426
:102AA0002B4A2C2ADFC4E7F4E750D8A45AEF15F0DC
:102AB0005CEF15F046EF15F01200600E1B24D96E86
:102AC000050E1C20DA6EA1C2DFF41B4A1C2A1CBEB4
:102AD00073EF15F01C5009E1110E1B5CD8A073EFC9
:102AE00015F075EF15F079EF15F0000E1C6E000E65
:102AF0001B6E120001EE60F1100EEE6AE806FDE1B9
:102B000001EE01F1220EEE6AE806FDE10401080E75
:102B10005D6F000E5E6F000E5F6F000111EF13F02E
:102B2000000E0001606F000E616F000E636F000EFB
:102B3000646F000E656F000E666F000E676F000E0B
:102B4000686F1200600E0001AD6F000EAF6F000ED7
:102B5000B36F080EB16F000EB06F000EAC6F1200B5
:102B6000E1EC15F090EC15F087EC14F0A2EC15F008
:102B70002EEC14F0120025C54CF526C54DF527C5E1
:102B80004EF5120025C54FF526C550F527C551F560
:102B9000120025C546F526C547F527C548F512009C
:102BA00025C549F526C54AF527C54BF5120025C5AB
:102BB00043F526C544F527C545F512005DEC15F033
:0A2BC0001200D69A12001200120053
:020000040020DA
:10000000FF0FFF0FFF0FFF0FFF0FFF0FFF0FFF0F80
:10001000FF0FFF0FFF0FFF0FFF0FFF0FFF0FFF0F70
:10002000FF0FFF0FFF0FFF0FFF0FFF0FFF0FFF0F60
:10003000FF0FFF0FFF0FFF0FFF0FFF0FFF0FFF0F50
:020000040030CA
:0A0000008CFFF7FF9FFFFFFFFFFFDB
:00000001FF
