:08000000803102288731F52F41
:1008DE0001300800053008002000911108002400A6
:1008EE00951208002100911108002400161408002A
:1008FE0024009614080024001615080024009615EE
:10090E00080024001108080020009115080024009A
:10091E0096161616080024009612161608001630A3
:10092E00210097000800F0007008240091000800D4
:10093E002000BD10BC010E30080084317F248431AC
:10094E000130080084317F24843102300800843164
:10095E007F248431013008008431822484310030B8
:10096E0008008431922484310530080084318E24AD
:10097E0084310A30080084318E2484310930080015
:10098E002000BD10BC010E30080000308531E72577
:10099E00843108002400160E890C890C01390800D8
:1009AE002000911DDB2CDC2CD72C0800640080016C
:1009BE000131890BDE2C003420003D10843185245A
:1009CE0084310430080020003D14363584319A24D9
:1009DE0084310330080020003D140314360D843199
:1009EE009A248431053008002400940108309500C3
:1009FE0096014F309200951208007508F1007408A8
:100A0E00F0007608F2000030863125268531080088
:100A1E007508F1007408F0007608F2000230863195
:100A2E00252685310800703021009900980122009A
:100A3E00960121001A1F242D252D202D08002D2D65
:100A4E008431D72485318631712685312000BD1839
:100A5E00312D322D272D08002400951A372D382DD3
:100A6E003F2D94010830950096014F309200951657
:100A7E0008008431FB24853186310326853185318A
:100A8E001A25853184319624853108002000BD1D3C
:100A9E00512D522D5B2D7108B8007008B7007308E8
:100AAE00BA007208B900BD1108007708F000FF39CE
:100ABE00031D0030F1000230F2000030F3008531EA
:100ACE004D2585310030F400F500F6018531042501
:100ADE008531043008007708F000FF39031D00301F
:100AEE00F1000130F2000030F30085314D258531E3
:100AFE000030F400F500F601853104258531023011
:100B0E0008007708F000FF39031D0030F1000230B5
:100B1E00F2000030F30085314D2585310030F400B0
:100B2E00F500F6018531042585310230080077087D
:100B3E00F000FF39031D0030F1000130F2000030EB
:100B4E00F30085314D2585310030F400F500F601B6
:100B5E0085310425853104300800F001F00A2000AB
:100B6E00BD18BA2DBB2DCA2D3D11FF30B6008431F4
:100B7E00732485318431792485318431762485310D
:100B8E0020003C08F000700808007708023E86003E
:100B9E0087010108F0000030F10077088600870118
:100BAE00403FF200413FF30085314D258531003045
:100BBE00F400F500F6018531042585310230080078
:100BCE00F500F601F60A2000BD18EE2DEF2D012ED0
:100BDE00BD14F60175080319F52DF62DF92DBB017F
:100BEE00BB0AFB2D0230BB0084317C24853185315C
:100BFE002625853176080800220090018F018C0190
:100C0E008D018E010F3021009000FF308C00FF30DF
:100C1E008D00FF308E00FF308F00FF3023008F00DD
:100C2E003F308D00073090003F308C002400900143
:100C3E008D012100951722009D010800F300700818
:100C4E00710403192B2E2C2E3B2E7335203E86005D
:100C5E0087017008C03F7108C13F73082C3E8600A3
:100C6E00870172088100482E7335203E8600870169
:100C7E006F30C03F0430C13F73082C3E86008701A1
:100C8E008101080020003D100230BC00562E843138
:100C9E00AE248631702E8431B3248631702E2E0808
:100CAE00F7000430203E86008701413F8A00403F16
:100CBE000A008631F000F1017108003A0319682E1E
:100CCE00522E7008023A03194E2E013A03194E2E77
:100CDE00522E080084317324863120003D1C782E5C
:100CEE00792E842E8431D1248631003A0319802E38
:100CFE00812E842E0F302000BB0020003B08F30015
:100D0E00F401F335F40D0030730784000830743DA0
:100D1E0080388500013F8A00003F0A00863120009E
:100D2E00BB000800FB007B088631EE268631003AB8
:100D3E000319A22EA32E9A2E7808F1007708F00040
:100D4E007A08F3007908F20085314D25863100309E
:100D5E00F400F500F60185310F2586318431CC245F
:100D6E0086318531B4258631013A0319BF2EC02E46
:100D7E00B82E08002000BD15D12E8431AE24863148
:100D8E00ED2E84318B2486310330ED2E8431B32445
:100D9E008631ED2E2C08F70021088A0020080A0063
:100DAE008631F000F1017108003A0319DF2ECD2EC5
:100DBE007008013A0319CD2E033A0319C42E013AD5
:100DCE000319C42E073A0319C82ECD2E0800F000C1
:100DDE00F101F10A20003D19F52EF62E222F700892
:100DEE00B600BD103D153D100E30BB00F430B40002
:100DFE000130B500BD156F30A0000430A100AC016C
:100E0E006F30A2000430A300AD016F30A400043097
:100E1E00A500AE016F30A6000430A700AF017130FF
:100E2E00A8000430A900B0018431732486318531C5
:100E3E0033258631F101710808008531402587314F
:100E4E000F30F7000030F8000130F9000030FA00E2
:100E5E0040308631992687311530FD004B30FC002D
:100E6E00BE30890B382FFC0B382FFD0B382F00327C
:100E7E00F030F7000030F8000130F9000030FA00D1
:100E8E0040308631992687311530FD004B30FC00FD
:100E9E00BE30890B502FFC0B502FFD0B502F003204
:100EAE00272F80310228843188248731F0002000DA
:100EBE003708860038088700700881000130B707B0
:100ECE000030B83D0130B9020030BA3B39083A045F
:100EDE000319722F732F782F8431922487310530A6
:100EEE009E2FBD15822F8431C22487319E2F8431CF
:100EFE00BD2487319E2F2C08F70021088A00200878
:100F0E000A008731F000F1017108003A0319902FA1
:100F1E007E2F7008013A03197E2F033A03197A2F98
:100F2E00013A03197A2F073A03197E2F7E2F0800F4
:100F3E008431D1248731003A0319A62FA72FD52F3C
:100F4E00B42F8431A4248731F42F8431A92487311E
:100F5E00F42F8431B3248731F42F20002F08F700AB
:100F6E000630203E86008701413F8A00403F0A003E
:100F7E008731F100F2017208003A0319C72FB02F22
:100F8E007108013A0319B02F033A0319A82F013A39
:100F9E000319AC2F073A0319B02FB02F20003D10C4
:100FAE003808F2003708F100B70A0319B80A7108B9
:100FBE00860072088700010884319A248731013037
:100FCE002000B9020030BA3B39083A04031DF02F55
:100FDE00F12FF32F0630F42F033008002030840059
:100FEE00003085001E308431DD24873120008731AA
:100FFE00242F9F340434F2340434EA3404349F34FE
:10100E0007345A340734E3340434C1340634A43478
:10101E000434A9340434AE340434B3340434B83450
:10102E000434BD340434C2340434C7340434493473
:02103E00063476
:020000040001F9
:08000000FF3FFF3FFF3FFF3F00
:04000E00E43FFF3F8D
:00000001FF
