:0400000081EF00F09C
:1000080040004000400040004000400040004000E8
:10001800C0664000400040004000400040004000F2
:1000280040004000400040004000400040004000C8
:1000380040004000400040004000400040003B516C
:100048003F67400040004000400040004000400042
:100058004000400040004000400040004000400098
:100068004000400040004000400040004000400088
:100078004000400040004000400040004000400078
:100088004000400040004000400040004000400068
:100098004000400040004000400040004000400058
:1000A8004000400040004000400040004000400048
:1000B8004000400040004000400040004000400038
:1000C8004000400040004000400040004000400028
:1000D8004000400040004000400040004000400018
:1000E8004000400040004000400040004000400008
:0E00F8004000400040004000FF0025EFC8F02F
:10FC2000004E2D503A20202020202020202020206F
:10FC30002020200020202052455345525645442084
:10FC40002020202020002020204143545541444FB3
:10FC50005245532020202000202056454E54494C28
:10FC600041444F52455320202000202020202020B6
:10FC7000484F4D45202020202020002020202043D8
:10FC80004F4E4649472020202020200020202020C1
:10FC9000204348414E47452020202020002020209E
:10FCA000205349474E494E47202020202000202045
:10FCB0002020312E4C4F47494E202020202000206C
:10FCC000202020202053414C495220202020200079
:10FCD00020202020434F52524543542020202020F2
:10FCE000002020202020204F55542E2E2E20202072
:10FCF0002000202020202041504147414441202025
:10FD00002020002020202050415353574F524420A0
:10FD10002020200020202020322E432D50415353FC
:10FD20002020202000202020494E434F525245439E
:10FD300054202020200020202020454E43454E44C2
:10FD4000494441202020002020202053454755527F
:10FD5000494441442020200020202053554343455E
:10FD6000535346554C2020200020202054454D5010
:10FD700020592048554D2020200020202020322EC0
:10FD8000504C414E54415320202000202020312E41
:10FD9000534547555249444144202000202020200B
:10FDA000342E53454E534F524553202000202020DF
:10FDB00020352E5349474E204F55542020002020F7
:10FDC00020332E4143545541444F5245532000495E
:10FDD0004E47524553412050415353574F524400D0
:10FDE000414C4552544120205055542D50415353BD
:10FDF000002020202053414C495220202020202048
:10FE00000020202020415041474152202020202026
:10FE10000020202042414A41522D54202020202001
:10FE20000020202053554249522D542020202020CC
:10FE300000202020454E43454E444552202020209E
:10FE40000020205945532020202020204E4F2020E4
:10FE500000204F4C4420202050415353574F5244D0
:10FE600000204E455720202050415353574F5244B5
:10FE7000002020202053414C412020202020200021
:10FE8000202020434F43494E4120202020200020A5
:10FE9000202042414A41522D47202020200020208E
:10FEA0002053554249522D47202020200020202059
:10FEB0002041504147415220202020002020204254
:10FEC000414A41522D562020202000202020535509
:10FED0004249522D562020202000202056454C4FCC
:10FEE000434944414420202000202020454E4345E2
:10FEF0004E4445522020200020202020342E534103
:10FF00004C49522020200020202020332E4C5543E5
:10FF100045532020200056454C4F43494441444519
:10FF2000532020200020202020312E5055455254AF
:10FF3000412020005449454D504F2D524945474FCF
:10FF400020200020322E56454E54494C41444F52F9
:10FF50002000202020474152414A452020202000F7
:10FF60002020202053414C495220202000434F4E56
:10FF700046494720524945474F00202020524945D5
:10FF8000474F202020002020204C5543455320205F
:10FF900020002A4C52323535473042302A002A613F
:10FFA00052323535473042302A002A4C52304732DF
:10FFB000353542302A00505545525441202020000A
:10FFC0002A615230473042302A00483A2025302EEC
:10FFD000306600483A256400543A2564002A4825D2
:10FFE00064002A562564002A632564002A74256467
:0FFFF00000696E66006E616E002D3E00430000DA
:020000040001F9
:10000000000E05017F6F20C582F521C583F522C54D
:1000100084F523C585F585BF12EF80F010EF80F0E1
:1000200026EF80F0010E7F6F82C501F583C502F5D2
:1000300084C503F585C504F5FFECCCF001C582F558
:1000400002C583F503C584F504C585F5000E0501D9
:10005000876F000E866F46C775F547C776F57F51E7
:10006000D8B435EF80F037EF80F04BEF80F07F5160
:10007000D8A43DEF80F03FEF80F045EF80F0000E18
:10008000676F2B0E666F49EF80F0000E676F2D0EC5
:10009000666F66C57FF582C501F583C502F584C527
:1000A00003F585C504F582ECC2F001040210D8A462
:1000B0005CEF80F05EEF80F091EF80F005017F5102
:1000C000D8B465EF80F067EF80F070EF80F07FC507
:1000D00014F67507D8A07607000E876F010E866F9D
:1000E000140E8625016E060E8721026EF10E036E38
:1000F000FF0E046E5DECCCF00501FD0E7527FF0EC2
:1001000076231EC513F51FC514F5140E156E060EC5
:10011000166E75C517F576C518F5A9ECC8F03EEF53
:1001200085F082C501F583C502F584C503F585C553
:1001300004F582ECC2F001500210D8A4A2EF80F0C6
:10014000A4EF80F0C4EF80F005017F51D8B4ABEF8D
:1001500080F0ADEF80F0B6EF80F07FC514F6750744
:10016000D8A07607000E876F010E866F140E8625C5
:10017000016E060E8721026EF50E036EFF0E046EF1
:100180005DECCCF07CEF80F0000E0501886F000E76
:10019000896F800E8A6F3F0E8B6F000E706F000E9E
:1001A0006F6F82C501F583C502F584C503F585C56A
:1001B00004F5000E056E000E066E000E076E000EB2
:1001C000086EF1ECC6F0D8B0E8EF80F0EAEF80F00E
:1001D000CBEF81F0F7EF80F071C588F572C589F536
:1001E00073C58AF574C58BF505016F4B702B88C5F7
:1001F00059F889C55AF88AC55BF88BC55CF8000EBA
:1002000008015D6F000E5E6F200E5F6F410E606F24
:10021000E6EC95F059C871F55AC872F55BC873F5EC
:100220005CC874F505017151825D016E725183598C
:10023000026E73518459036E74518559046E07EC34
:10024000CAF004BE2FEF81F004500310021009E140
:10025000020E015CD8A02FEF81F031EF81F0ECEFBE
:1002600080F071C501F572C502F573C503F574C55B
:1002700004F582C505F583C506F584C507F585C572
:1002800008F580ECC1F0D8A048EF81F04AEF81F08A
:10029000ECEF80F005018851825D016E8951835930
:1002A000026E8A518459036E8B518559046E07EC96
:1002B000CAF004BE69EF81F004500310021007E198
:1002C000020E015CD8B067EF81F069EF81F0B2EF08
:1002D00081F088C582F589C583F58AC584F58BC50B
:1002E00085F5CBEF81F088C540F889C541F88AC50E
:1002F00042F88BC543F8000E0801446F000E456FAD
:10030000200E466F410E476FCAEC99F040C888F541
:1003100041C889F542C88AF543C88BF505016F07C6
:10032000D8A070078851825D016E89518359026E91
:100330008A518459036E8B518559046E07ECCAF0BB
:1003400004BEB0EF81F004500310021007E1020E6A
:10035000015CD8B0AEEF81F0B0EF81F0B2EF81F088
:1003600069EF81F082C501F583C502F584C503F507
:1003700085C504F588C505F589C506F58AC507F55F
:100380008BC508F580ECC1F0D8A0C9EF81F0CBEFA8
:1003900081F073EF81F024C569F569C56AF507013D
:1003A00049BFD5EF81F0D7EF81F0DDEF81F048C78D
:1003B00062F549C763F5E2EF81F0000E0501636F56
:1003C000060E626F62C56DF563C56EF505016D4B76
:1003D0006E2B660E6A19D8A4F0EF81F0F2EF81F06F
:1003E00012EF82F070BFF9EF81F0F7EF81F005EFC7
:1003F00082F0000E886F000E896F800E8A6F3F0EAC
:100400008B6F000E706F000E6F6F670E6919D8B496
:100410000CEF82F00EEF82F012EF82F06F516D2739
:1004200070516E23000E816F000E806F82C577F5CC
:1004300083C578F584C579F585C57AF588C571F5E4
:1004400089C572F58AC573F58BC574F5A4EF82F082
:1004500077C540F878C541F879C542F87AC543F8C0
:1004600088C544F889C545F88AC546F88BC547F85C
:10047000CAEC99F040C801F541C802F542C803F53D
:1004800043C804F5E7ECA9F001C57BF502C57CF58E
:1004900003C57DF504C57EF57BC572F87CC573F890
:1004A0007DC574F87EC575F8EAECBFF072C86BF5CF
:1004B00073C86CF577C511F578C512F579C513F5D4
:1004C0007AC514F57BC55DF87CC55EF87DC55FF81F
:1004D0007EC560F888C559F889C55AF88AC55BF8A1
:1004E0008BC55CF8E6EC95F059C815F55AC816F5B9
:1004F0005BC817F55CC818F53AECCCF011C577F578
:1005000012C578F513C579F514C57AF588C540F894
:1005100089C541F88AC542F88BC543F8000E080129
:10052000446F000E456F200E466F410E476FCAECB8
:1005300099F040C888F541C889F542C88AF543C892
:100540008BF50501804B812B6D51805D8151800AB7
:10055000256E6E51800A2558D8A0B1EF82F0B3EF16
:1005600082F028EF82F088C559F889C55AF88AC503
:100570005BF88BC55CF8000E08015D6F000E5E6FC6
:10058000A00E5F6F400E606FE6EC95F059C87BF5EA
:100590005AC87CF55BC87DF55CC87EF577C501F56A
:1005A00078C502F579C503F57AC504F57BC505F56F
:1005B0007CC506F57DC507F57EC508F580ECC1F064
:1005C000D8B0E5EF82F0E7EF82F0F2EF82F0000EB4
:1005D00005017B6F000E7C6F000E7D6F000E7E6F3D
:1005E0001BEF83F077C501F578C502F579C503F5F2
:1005F0007AC504F57BC505F57CC506F57DC507F50F
:100600007EC508F5F1ECC6F0D8A009EF83F00BEF3A
:1006100083F01BEF83F005016BB111EF83F013EF53
:1006200083F01BEF83F0000E7B6F000E7C6F000EDB
:100630007D6F000E7E6F82C501F583C502F584C50E
:1006400003F585C504F57BC505F57CC506F57DC5B7
:1006500007F57EC508F5DCEC8CF001C577F502C521
:1006600078F503C579F504C57AF577C501F578C540
:1006700002F579C503F57AC504F5000E08015D6F32
:10068000000E5E6F200E5F6F410E606F71C559F8EE
:1006900072C55AF873C55BF874C55CF8E6EC95F062
:1006A00059C805F55AC806F55BC807F55CC808F5D2
:1006B00080ECC1F0D8A05FEF83F061EF83F08BEFA7
:1006C00083F005016F4B702B71C559F872C55AF84C
:1006D00073C55BF874C55CF8000E08015D6F000E11
:1006E0005E6F200E5F6F410E606FE6EC95F059C8AB
:1006F00071F55AC872F55BC873F55CC874F5660E7F
:1007000005016A19D8A487EF83F089EF83F08BEF96
:1007100083F06D4B6E2B71C588F572C589F573C575
:100720008AF574C58BF56FC560F570C561F5000E6F
:100730000501686F000E656F000E646F000E816F1B
:10074000000E806F8BEF84F077C540F878C541F8D4
:1007500079C542F87AC543F888C544F889C545F893
:100760008AC546F88BC547F8CAEC99F040C801F530
:1007700041C802F542C803F543C804F5E7ECA9F007
:1007800001C57BF502C57CF503C57DF504C57EF585
:100790007BC572F87CC573F87DC574F87EC575F8A5
:1007A000EAECBFF0080173BFE1EF83F0735107E19A
:1007B0000A0E725DD8B0DFEF83F0E1EF83F0F1EF66
:1007C00083F07BC572F87CC573F87DC574F87EC56F
:1007D00075F8EAECBFF072C86BF573C86CF5F6EF0C
:1007E00083F0000E05016C6F090E6B6F05016851F7
:1007F000D8A4FDEF83F0FFEF83F027EF84F061BF13
:1008000006EF84F004EF84F027EF84F0140E8625C1
:10081000D96E060E8721DA6E2E0EDF6E864B872B81
:100820007507D8A07607010E686F27EF84F0140EC5
:100830008625D96E060E8721DA6E300EDF6E864B66
:10084000872B7507D8A076076407D8A06507645181
:100850006511D8A42EEF84F030EF84F017EF84F008
:10086000140E8625D96E060E8721DA6E6B51300F75
:10087000DF6E864B872B7507D8A0760777C511F5F5
:1008800078C512F579C513F57AC514F57BC55DF801
:100890007CC55EF87DC55FF87EC560F888C559F8EF
:1008A00089C55AF88AC55BF88BC55CF8E6EC95F00B
:1008B00059C815F55AC816F55BC817F55CC818F580
:1008C0003AECCCF011C577F512C578F513C579F57A
:1008D00014C57AF588C540F889C541F88AC542F83B
:1008E0008BC543F8000E0801446F000E456F200EC3
:1008F000466F410E476FCAEC99F040C888F541C871
:1009000089F542C88AF543C88BF505016007D8A070
:100910006107804B812B6D51805D8151800A256E6E
:100920006E51800A2558D8B098EF84F09AEF84F081
:10093000A8EF84F087BFA6EF84F0875109E14B0E42
:10094000865DD8A0A6EF84F0A8EF84F0A4EF83F032
:10095000000E816F4F0E806F140E8025D96E060E2B
:100960008121DA6E000EDF6E140E256E060E266EE5
:100970008651255E8751265A80512524016E81516A
:100980002620026E140E036E060E046E86C505F553
:1009900087C506F55EECCBF005018651805D866F5C
:1009A00087518159876F7F51D8A4D9EF84F0DCEF4C
:1009B00084F0010EDDEF84F0000E806F816B070183
:1009C0004AA3E5EF84F0E7EF84F016EF85F0F7EF48
:1009D00084F08607D8A08707140E8625D96E060EE8
:1009E0008721DA6E300EDF6E7507D8A07607050115
:1009F0007551805D8151800A256E7651800A255897
:100A0000D8B005EF85F007EF85F016EF85F0865139
:100A1000805D8151800A256E8751800A2558D8A0B3
:100A200014EF85F016EF85F0E9EF84F005017F51B2
:100A3000D8B41DEF85F01FEF85F02AEF85F086070B
:100A4000D8A08707140E8625D96E060E8721DA6E88
:100A50007FC5DFF48051755F8151765B1EC513F54C
:100A60001FC514F5140E8625156E060E8721166E09
:100A700075C517F576C518F5A9ECC8F01200000E7B
:100A80000901846F5CC985F95DC986F95EC987F97A
:100A90005FC988F988BF51EF85F04FEF85F065EFAA
:100AA00085F0010E846F85C900F986C901F987C9EF
:100AB00002F988C903F9E2ECCCF000C985F901C953
:100AC00086F902C987F903C988F9000E09018A6FFE
:100AD000000E896F46C778F947C779F98451D8B4B1
:100AE00074EF85F076EF85F08AEF85F08451D8A415
:100AF0007CEF85F07EEF85F084EF85F0000E6A6F65
:100B00002B0E696F88EF85F0000E6A6F2D0E696FEE
:100B100069C984F985C900F986C901F987C902F94B
:100B200088C903F902ECC2F0090100050111D8A43B
:100B30009CEF85F09EEF85F0D0EF85F08451D8B41E
:100B4000A4EF85F0A6EF85F0AFEF85F084C914F629
:100B50007807D8A07907000E8A6F010E896F140EEE
:100B60008925006F060E8A21016FF10E026FFF0EBC
:100B7000036F17ECCCF00901FD0E7827FF0E7923E7
:100B80005AC912F95BC913F9140E146F060E156FCA
:100B900078C916F979C917F96AECC8F07AEF8AF0C2
:100BA00085C900F986C901F987C902F988C903F91D
:100BB00002ECC2F0090100510111D8A4E2EF85F066
:100BC000E4EF85F003EF86F08451D8B4EAEF85F0C6
:100BD000ECEF85F0F5EF85F084C914F67807D8A01E
:100BE0007907000E8A6F010E896F140E8925006F38
:100BF000060E8A21016FF50E026FFF0E036F17ECD0
:100C0000CCF0BBEF85F0000E8B6F000E8C6F800E6A
:100C10008D6F3F0E8E6F000E736F000E726F85C961
:100C200000F986C901F987C902F988C903F9000EDC
:100C3000046F000E056F000E066F000E076F9BEC31
:100C4000C6F00901D8B027EF86F029EF86F00BEF48
:100C500087F035EF86F074C98BF975C98CF976C9C0
:100C60008DF977C98EF9724B732B8BC90EF98CC92C
:100C70000FF98DC910F98EC911F9000E126F000E0F
:100C8000136F200E146F410E156FD0EC93F00EC948
:100C900074F90FC975F910C976F911C977F9090105
:100CA0007451855D006F75518659016F7651875972
:100CB000026F77518859036FD3ECC9F0090103BF64
:100CC0006DEF86F003510211011109E1020E005D82
:100CD000D8A06DEF86F06FEF86F02BEF86F074C929
:100CE00027F975C928F976C929F977C92AF985C973
:100CF0002BF986C92CF987C92DF988C92EF9FDEC85
:100D0000C0F00901D8A087EF86F089EF86F02BEFBD
:100D100086F08B51855D006F8C518659016F8D5126
:100D20008759026F8E518859036FD3ECC9F00901BE
:100D300003BFA8EF86F003510211011107E1020E73
:100D4000005DD8B0A6EF86F0A8EF86F0F1EF86F050
:100D50008BC985F98CC986F98DC987F98EC988F93F
:100D60000BEF87F08BC927F98CC928F98DC929F9B0
:100D70008EC92AF9000E2B6F000E2C6F200E2D6FDE
:100D8000410E2E6FFCEC97F027C98BF928C98CF91E
:100D900029C98DF92AC98EF909017207D8A07307EC
:100DA0008B51855D006F8C518659016F8D5187592C
:100DB000026F8E518859036FD3ECC9F0090103BF4C
:100DC000EFEF86F003510211011107E1020E005D01
:100DD000D8B0EDEF86F0EFEF86F0F1EF86F0A8EFF8
:100DE00086F085C927F986C928F987C929F988C9EC
:100DF0002AF98BC92BF98CC92CF98DC92DF98EC90B
:100E00002EF9FDECC0F00901D8A009EF87F00BEF37
:100E100087F0B2EF86F060C96CF96CC96DF9070113
:100E200049BF15EF87F017EF87F01DEF87F048C730
:100E300065F949C766F922EF87F0000E0901666F70
:100E4000060E656F65C970F966C971F90901704BC5
:100E5000712B660E6D19D8A430EF87F032EF87F052
:100E600052EF87F073BF39EF87F037EF87F045EF28
:100E700087F0000E8B6F000E8C6F800E8D6F3F0E13
:100E80008E6F000E736F000E726F670E6C19D8B400
:100E90004CEF87F04EEF87F052EF87F072517027DA
:100EA00073517123000E836F000E826F85C97AF92A
:100EB00086C97BF987C97CF988C97DF98BC974F922
:100EC0008CC975F98DC976F98EC977F9E4EF87F089
:100ED0007AC927F97BC928F97CC929F97DC92AF97A
:100EE0008BC92BF98CC92CF98DC92DF98EC92EF916
:100EF000FCEC97F027C940F928C941F929C942F902
:100F00002AC943F9DCECA8F040C97EF941C97FF950
:100F100042C980F943C981F97EC950F97FC951F9A5
:100F200080C952F981C953F979ECC0F050C96EF902
:100F300051C96FF97AC950F97BC951F97CC952F985
:100F40007DC953F97EC912F97FC913F980C914F913
:100F500081C915F98BC90EF98CC90FF98DC910F922
:100F60008EC911F9D0EC93F00EC954F90FC955F997
:100F700010C956F911C957F9ABECCBF050C97AF941
:100F800051C97BF952C97CF953C97DF98BC927F93D
:100F90008CC928F98DC929F98EC92AF9000E0901D1
:100FA0002B6F000E2C6F200E2D6F410E2E6FFCEC60
:100FB00097F027C98BF928C98CF929C98DF92AC955
:100FC0008EF90901824B832B7051825D8351800A17
:100FD000616F7151800A6159D8A0F1EF87F0F3EF8A
:100FE00087F068EF87F08BC90EF98CC90FF98DC9AE
:100FF00010F98EC911F9000E126F000E136FA00EBA
:10100000146F400E156FD0EC93F00EC97EF90FC926
:101010007FF910C980F911C981F97AC927F97BC90B
:1010200028F97CC929F97DC92AF97EC92BF97FC91C
:101030002CF980C92DF981C92EF9FDECC0F0090108
:10104000D8B025EF88F027EF88F031EF88F0000E58
:101050007E6F000E7F6F000E806F000E816F5AEF63
:1010600088F07AC900F97BC901F97CC902F97DC908
:1010700003F97EC904F97FC905F980C906F981C958
:1010800007F99BECC6F00901D8A049EF88F04BEFB7
:1010900088F05AEF88F06EB150EF88F052EF88F088
:1010A0005AEF88F0000E7E6F000E7F6F000E806F8B
:1010B000000E816F85C940F986C941F987C942F997
:1010C00088C943F97EC944F97FC945F980C946F901
:1010D00081C947F97BEC8AF040C97AF941C97BF9AB
:1010E00042C97CF943C97DF97AC927F97BC928F936
:1010F0007CC929F97DC92AF9000E0901126F000E79
:10110000136F200E146F410E156F74C90EF975C957
:101110000FF976C910F977C911F9D0EC93F00EC91F
:101120002BF90FC92CF910C92DF911C92EF9FDECB5
:10113000C0F00901D8A09FEF88F0A1EF88F0C9EFB7
:1011400088F0724B732B74C90EF975C90FF976C903
:1011500010F977C911F9000E126F000E136F200EEF
:10116000146F410E156FD0EC93F00EC974F90FC9CE
:1011700075F910C976F911C977F9660E09016D196B
:10118000D8A4C5EF88F0C7EF88F0C9EF88F0704B9E
:10119000712B74C98BF975C98CF976C98DF977C92A
:1011A0008EF972C963F973C964F9000E6B6F000E92
:1011B000686F000E676F000E836F000E826FC7EFBF
:1011C00089F07AC927F97BC928F97CC929F97DC931
:1011D0002AF98BC92BF98CC92CF98DC92DF98EC927
:1011E0002EF9FCEC97F027C940F928C941F929C923
:1011F00042F92AC943F9DCECA8F040C97EF941C99B
:101200007FF942C980F943C981F97EC950F97FC984
:1012100051F980C952F981C953F979ECC0F009013B
:1012200051BF1EEF89F0515107E10A0E505DD8B051
:101230001CEF89F01EEF89F02EEF89F07EC950F97E
:101240007FC951F980C952F981C953F979ECC0F0CD
:1012500050C96EF951C96FF932EF89F0000E6F6F06
:10126000090E6E6F09016B51D8A439EF89F03BEF7D
:1012700089F063EF89F064BF42EF89F040EF89F0B5
:1012800063EF89F0140E8925D96E060E8A21DA6E75
:101290002E0EDF6E894B8A2B7807D8A07907010EB6
:1012A0006B6F63EF89F0140E8925D96E060E8A21C3
:1012B000DA6E300EDF6E894B8A2B7807D8A079075B
:1012C0006707D8A0680767516811D8A46AEF89F04A
:1012D0006CEF89F053EF89F0140E8925D96E060E54
:1012E0008A21DA6E6E51300FDF6E894B8A2B7807B8
:1012F000D8A079077AC950F97BC951F97CC952F94C
:101300007DC953F97EC912F97FC913F980C914F94F
:1013100081C915F98BC90EF98CC90FF98DC910F95E
:101320008EC911F9D0EC93F00EC954F90FC955F9D3
:1013300010C956F911C957F9ABECCBF050C97AF97D
:1013400051C97BF952C97CF953C97DF98BC927F979
:101350008CC928F98DC929F98EC92AF9000E09010D
:101360002B6F000E2C6F200E2D6F410E2E6FFCEC9C
:1013700097F027C98BF928C98CF929C98DF92AC991
:101380008EF909016307D8A06407824B832B705143
:10139000825D8351800A616F7151800A6159D8B0B2
:1013A000D4EF89F0D6EF89F0E4EF89F08ABFE2EF5D
:1013B00089F08A5109E14B0E895DD8A0E2EF89F0EE
:1013C000E4EF89F0E1EF88F0000E836F4F0E826F3B
:1013D000140E8225D96E060E8321DA6E000EDF6EA2
:1013E000140E616F060E626F8951615F8A51625BF4
:1013F00082516125006F83516221016F140E026FCB
:10140000060E036F89C904F98AC905F90CECCBF003
:1014100009018951825D896F8A5183598A6F84518C
:10142000D8A415EF8AF018EF8AF0010E19EF8AF0B0
:10143000000E826F836B07014AA321EF8AF023EF2E
:101440008AF052EF8AF033EF8AF08907D8A08A0732
:10145000140E8925D96E060E8A21DA6E300EDF6EE3
:101460007807D8A0790709017851825D8351800AF5
:10147000616F7951800A6159D8B041EF8AF043EF2A
:101480008AF052EF8AF08951825D8351800A616F40
:101490008A51800A6159D8A050EF8AF052EF8AF041
:1014A00025EF8AF009018451D8B459EF8AF05BEF37
:1014B0008AF066EF8AF08907D8A08A07140E89257A
:1014C000D96E060E8A21DA6E84C9DFF48251785F04
:1014D0008351795B5AC912F95BC913F9140E892536
:1014E000146F060E8A21156F78C916F979C917F994
:1014F0006AECC8F0120009014351800B4C6F435154
:1015000043254E6F42AF87EF8AF089EF8AF08AEF6A
:101510008AF04E814E51D8B490EF8AF092EF8AF063
:10152000A7EF8AF04E29D8A498EF8AF09AEF8AF0B4
:10153000A2EF8AF0000E406F000E416F000E426F66
:10154000000E436F428F000E436FAFEF8AF0000E24
:10155000406F000E416F000E426F000E436F475107
:10156000800B4D6F4C514D19D8B4B9EF8AF0BBEFD9
:101570008AF0BCEF8AF04C8D475147254D6F46AF3E
:10158000C4EF8AF0C6EF8AF0C7EF8AF04D814D5163
:10159000D8B4CDEF8AF0CFEF8AF0E4EF8AF04D298E
:1015A000D8A4D5EF8AF0D7EF8AF0DFEF8AF0000EEB
:1015B000446F000E456F000E466F000E476F468F5A
:1015C000000E476FECEF8AF0000E446F000E456F7F
:1015D000000E466F000E476F4E514D5DD8B0F3EFD1
:1015E0008AF0F5EF8AF01CEF8BF04CADFAEF8AF041
:1015F000FCEF8AF0FEEF8AF0800E4C1B4EC94FF9CB
:101600004DC94EF94FC94DF940C94FF944C940F988
:101610004FC944F941C94FF945C941F94FC945F985
:1016200042C94FF946C942F94FC946F943C94FF972
:1016300047C943F94FC947F9000E4F6F4E514DC985
:1016400048F9496B485F000E495B49BF31EF8BF0A9
:10165000495109E11A0E485DD8A031EF8BF033EF04
:101660008BF06AEF8BF04051411142114311D8A425
:101670003CEF8BF03FEF8BF0010E40EF8BF0000E54
:101680004F6F000E406F000E416F000E426F000E54
:10169000436F4DC94EF973EF8BF04FA152EF8BF0B2
:1016A00054EF8BF05AEF8BF0D8904F3101094F6F08
:1016B0005CEF8BF0D8904F3340A161EF8BF063EF7C
:1016C0008BF064EF8BF04F8F43354333423341331C
:1016D00040334E2B4D514E5DD8A071EF8BF073EF20
:1016E0008BF04DEF8BF04CBD78EF8BF07AEF8BF0F9
:1016F000BAEF8BF04E51D8A480EF8BF082EF8BF0D5
:101700008CEF8BF0000E406F000E416F000E426FA9
:10171000000E436FDBEF8CF04451402745514123CD
:10172000465142234751432343A199EF8BF09BEF4E
:101730008BF047EF8CF04FA1A0EF8BF0A2EF8BF076
:10174000A8EF8BF0D8904F3101094F6FAAEF8BF0C3
:10175000D8904F3340A1AFEF8BF0B1EF8BF0B2EFE9
:101760008BF04F8F433543334233413340334E2B5D
:1017700047EF8CF04451405D455141594651425923
:101780004351800A486F4751800A4859D8B0CBEF7F
:101790008BF0CDEF8BF0F8EF8BF04051445D486F4C
:1017A00041514559496F425146594A6F4351475932
:1017B0004B6FFF0E4825406FFF0E4921416FFF0E12
:1017C0004A21426FFF0E4B21436F800E4C1B4F6D21
:1017D0004F51D8A4EEEF8BF0F0EF8BF000EF8CF0D0
:1017E000010E4027000E41234223432300EF8CF0DB
:1017F0004451405F4551415B4651425B4751435B19
:101800004051411142114311D8A409EF8CF00BEF64
:101810008CF040EF8CF04F51D8A411EF8CF013EF07
:101820008CF040EF8CF0000E406F000E416F000E08
:10183000426F000E436FDBEF8CF0D890403741379A
:10184000423743374FAF27EF8CF029EF8CF02AEF68
:101850008CF040814FA12FEF8CF031EF8CF035EF01
:101860008CF0D8804F3737EF8CF0D8904F374E51EF
:10187000D8B43DEF8CF03FEF8CF040EF8CF04E078A
:1018800042AF45EF8CF047EF8CF01DEF8CF0000E6F
:101890004D6F4FAF4EEF8CF050EF8CF068EF8CF047
:1018A0004FC948F97F0E4817D8B459EF8CF05BEF59
:1018B0008CF05FEF8CF0010E4D6F68EF8CF040A163
:1018C00064EF8CF066EF8CF068EF8CF05BEF8CF0DF
:1018D0004D51D8B46EEF8CF070EF8CF09BEF8CF024
:1018E000010E4027000E41234223432343A17BEFF7
:1018F0008CF07DEF8CF09BEF8CF040C948F941C92A
:1019000049F942C94AF943C94BF94B354B334A337C
:101910004933483348C940F949C941F94AC942F9EC
:101920004BC943F94E29D8B498EF8CF09AEF8CF05C
:101930009BEF8CF04E2B4E29D8B4A1EF8CF0A3EF87
:101940008CF0ABEF8CF04E51D8A4A9EF8CF0ABEF3C
:101950008CF0BDEF8CF0000E406F000E416F000E5A
:10196000426F000E436F4E51D8A4B9EF8CF0BBEF1D
:101970008CF0BDEF8CF0000E4C6F4EA1C2EF8CF0DE
:10198000C4EF8CF0C7EF8CF0428FC8EF8CF0429F11
:10199000D8904E31436F4CAFD0EF8CF0D2EF8CF03B
:1019A000D3EF8CF0438F40C940F941C941F942C996
:1019B00042F943C943F912000450800B0D6E0450E4
:1019C00004240F6E03AEE7EF8CF0E9EF8CF0EAEF42
:1019D0008CF00F800F50D8B4F0EF8CF0F2EF8CF059
:1019E00007EF8DF00F28D8A4F8EF8CF0FAEF8CF009
:1019F00002EF8DF0000E016E000E026E000E036EFF
:101A0000000E046E038E000E046E0FEF8DF0000EBC
:101A1000016E000E026E000E036E000E046E085082
:101A2000800B0E6E0D500E18D8B419EF8DF01BEF11
:101A30008DF01CEF8DF00D8C085008240E6E07AE53
:101A400024EF8DF026EF8DF027EF8DF00E800E50F5
:101A5000D8B42DEF8DF02FEF8DF044EF8DF00E28E0
:101A6000D8A435EF8DF037EF8DF03FEF8DF0000EFD
:101A7000056E000E066E000E076E000E086E078ED5
:101A8000000E086E4CEF8DF0000E056E000E066E17
:101A9000000E076E000E086E0F500E5CD8B053EFAC
:101AA0008DF055EF8DF07CEF8DF00DAC5AEF8DF091
:101AB0005CEF8DF05EEF8DF0800E0D1A0FC510F506
:101AC0000EC50FF510C50EF501C510F505C501F5DC
:101AD00010C505F502C510F506C502F510C506F5D9
:101AE00003C510F507C503F510C507F504C510F5C6
:101AF00008C504F510C508F5000E106E0F500EC590
:101B000009F50A6A095E000E0A5A0ABE91EF8DF0C5
:101B10000A5009E11A0E095CD8A091EF8DF093EFFD
:101B20008DF0CAEF8DF00150021003100410D8A4FC
:101B30009CEF8DF09FEF8DF0010EA0EF8DF0000E69
:101B4000106E000E016E000E026E000E036E000E8F
:101B5000046E0EC50FF5D3EF8DF010A0B2EF8DF02F
:101B6000B4EF8DF0BAEF8DF0D89010300109106EFF
:101B7000BCEF8DF0D890103201A0C1EF8DF0C3EF13
:101B80008DF0C4EF8DF0108E043404320332023233
:101B900001320F2A0E500F5CD8A0D1EF8DF0D3EF99
:101BA0008DF0ADEF8DF00DBCD8EF8DF0DAEF8DF04C
:101BB0001AEF8EF00F50D8A4E0EF8DF0E2EF8DF029
:101BC000ECEF8DF0000E016E000E026E000E036E43
:101BD000000E046E3BEF8FF00550012606500222E6
:101BE000075003220850042204A0F9EF8DF0FBEF08
:101BF0008DF0A7EF8EF010A000EF8EF002EF8EF0C8
:101C000008EF8EF0D89010300109106E0AEF8EF0B8
:101C1000D890103201A00FEF8EF011EF8EF012EF7E
:101C20008EF0108E043404320332023201320F2A55
:101C3000A7EF8EF00550015C06500258075003587C
:101C40000450800A096E0850800A0958D8B02BEF5A
:101C50008EF02DEF8EF058EF8EF00150055C096E7E
:101C6000025006580A6E035007580B6E045008586D
:101C70000C6EFF0E0924016EFF0E0A20026EFF0E8D
:101C80000B20036EFF0E0C20046E800E0D1A106CDC
:101C90001050D8A44EEF8EF050EF8EF060EF8EF023
:101CA000010E0126000E02220322042260EF8EF0B4
:101CB0000550015E0650025A0750035A0850045A54
:101CC0000150021003100410D8A469EF8EF06BEFDE
:101CD0008EF0A0EF8EF01050D8A471EF8EF073EF5D
:101CE0008EF0A0EF8EF0000E016E000E026E000E60
:101CF000036E000E046E3BEF8FF0D8900136023673
:101D00000336043610AE87EF8EF089EF8EF08AEF3F
:101D10008EF0018010A08FEF8EF091EF8EF095EF96
:101D20008EF0D880103697EF8EF0D89010360F5086
:101D3000D8B49DEF8EF09FEF8EF0A0EF8EF00F06DF
:101D400003AEA5EF8EF0A7EF8EF07DEF8EF0000EC4
:101D50000E6E10AEAEEF8EF0B0EF8EF0C8EF8EF0DC
:101D600010C509F57F0E0916D8B4B9EF8EF0BBEF98
:101D70008EF0BFEF8EF0010E0E6EC8EF8EF001A058
:101D8000C4EF8EF0C6EF8EF0C8EF8EF0BBEF8EF092
:101D90000E50D8B4CEEF8EF0D0EF8EF0FBEF8EF079
:101DA000010E0126000E02220322042204A0DBEF12
:101DB0008EF0DDEF8EF0FBEF8EF001C509F502C568
:101DC0000AF503C50BF504C50CF50C340C320B32C7
:101DD0000A32093209C501F50AC502F50BC503F53A
:101DE0000CC504F50F28D8B4F8EF8EF0FAEF8EF09A
:101DF000FBEF8EF00F2A0F28D8B401EF8FF003EF1E
:101E00008FF00BEF8FF00F50D8A409EF8FF00BEF8E
:101E10008FF01DEF8FF0000E016E000E026E000EAF
:101E2000036E000E046E0F50D8A419EF8FF01BEF55
:101E30008FF01DEF8FF0000E0D6E0FA022EF8FF0D0
:101E400024EF8FF027EF8FF0038E28EF8FF0039EA3
:101E5000D8900F30046E0DAE30EF8FF032EF8FF070
:101E600033EF8FF0048E01C501F502C502F503C5FD
:101E700003F504C504F5120091C9D9F492C9DAF446
:101E8000DEC4F6F4DDC4F7F4000EF86E0800F55079
:101E9000250AD8A44EEF8FF050EF8FF06FEF91F03E
:101EA00091C9D9F492C9DAF4DE2A000EDD22000EBF
:101EB0000701476F000E466F46C74AF748694969F0
:101EC000000E0901996F000E986F94EF8FF00701D3
:101ED0004A8391C9D9F492C9DAF4DE2A000EDD22D0
:101EE00094EF8FF0000E996F010E986F94EF8FF0C2
:101EF00091C9D9F492C9DAF4DEC4F6F4DDC4F7F47A
:101F0000000EF86E0800F550956F966B9651000A1A
:101F1000D8B48DEF8FF072EF8FF09551300AD8B4AE
:101F200067EF8FF072EF8FF0090198519911D8B4D3
:101F30009CEF8FF09EEF8FF078EF8FF091C9D9F47E
:101F400092C9DAF4DEC4F6F4DDC4F7F4000EF86EDC
:101F50000800F5502E0AD8A4B0EF8FF0B2EF8FF042
:101F600025EF90F0000E0701496F000E486F91C9F0
:101F7000D9F492C9DAF4DE2A000EDD2291C9D9F42F
:101F800092C9DAF4DEC4F6F4DDC4F7F4000EF86E9C
:101F90000800F5502A0AD8A4D0EF8FF0D2EF8FF0C6
:101FA000EFEF8FF091C9D9F492C9DAF4DE2A000E6E
:101FB000DD2293C9D9F494C9DAF4DFC495F9020E8D
:101FC000DE26DFC496F9000EDD2295C9D9F496C944
:101FD000DAF4DEC448F7DDC449F725EF90F091C983
:101FE000D9F492C9DAF4DEC406F9DDC407F9BCEC11
:101FF000BAF006C948F707C949F706EF90F091C94A
:10200000D9F492C9DAF4DE2A000EDD2291C9D9F49E
:1020100092C9DAF4DEC4F6F4DDC4F7F4000EF86E0B
:102020000800F5C495F9D00E09019525966F976BB8
:10203000FF0E9723975109E10A0E965DD8A023EF72
:1020400090F025EF90F0FFEF8FF091C9D9F492C98D
:10205000DAF4DEC4A3F9DDC4A4F9A3C9F6F4A4C973
:10206000F7F4000EF86E0800F550640AD8B43BEFA0
:1020700090F03DEF90F04DEF90F0A3C9F6F4A4C9B5
:10208000F7F4000EF86E0800F550690AD8A44BEF7B
:1020900090F04DEF90F091EF90F093C9D9F494C97E
:1020A000DAF4DFC495F9020EDE26DFC496F9000EDD
:1020B000DD2295C9D9F496C9DAF4DEC49AF9DDC4F3
:1020C0009BF90901000E9BBFFF0E9C6F9D6F9E6FD9
:1020D0009F6FA06FA16F010EA325956F000EA42125
:1020E000966F91C9D9F492C9DAF495C9DEF496C90C
:1020F000DDF48FC91DF990C91EF99AC91FF99BC952
:1021000020F99CC921F99DC922F99EC923F99FC9CB
:1021100024F9A0C925F9A1C926F920EC9DF086EF84
:1021200091F091C9D9F492C9DAF4DEC4A3F9DDC4FF
:10213000A4F9A3C9F6F4A4C9F7F4000EF86E0800D8
:10214000F5C4A2F9B0EF90F0A34BA42BCAEF90F026
:102150006C0EA26FCAEF90F0000EA26FCAEF90F063
:102160000901A251956F966B9651000AD8B4BBEF46
:1021700090F0ACEF90F095514C0AD8B4A4EF90F0E9
:102180002A0AD8B4A8EF90F00A0AD8B4A4EF90F0C5
:10219000ACEF90F0A3C9F6F4A4C9F7F4000EF86E02
:1021A0000800F550660AD8A4D8EF90F0DAEF90F066
:1021B00066EF91F010EF91F093C9D9F494C9DAF475
:1021C000DFC495F9040EDE26DFC496F9000EDD2289
:1021D00095C9D9F496C9DAF4DEC49AF9DEC49BF93C
:1021E000DEC49CF9DEC49DF925EF91F093C9D9F4C2
:1021F00094C9DAF4DFC495F9040EDE26DFC496F93B
:10220000000EDD2295C9D9F496C9DAF4DEC49AF934
:10221000DEC49BF9DEC49CF9DEC49DF925EF91F084
:10222000A251956F966B9651000AD8B41AEF91F0AF
:1022300025EF91F095514C0AD8B4F6EF90F0200AB2
:10224000D8B4DCEF90F025EF91F0010EA325956F47
:10225000000EA421966F91C9D9F492C9DAF495C9F8
:10226000DEF496C9DDF44EEF91F08FC95AF990C9AA
:102270005BF99AC95CF99BC95DF99CC95EF99DC976
:102280005FF9A3C9F6F4A4C9F7F4000EF86E0800CC
:10229000F5C460F93FEC85F086EF91F0A3C9F6F440
:1022A000A4C9F7F4000EF86E0800F550956F966B10
:1022B0009651000AD8B45FEF91F066EF91F0955116
:1022C000660AD8B435EF91F066EF91F091C9D9F470
:1022D00092C9DAF4DE2A000EDD2286EF91F091C970
:1022E000D9F492C9DAF4DEC4F6F4DDC4F7F4000ED2
:1022F000F86E0800F5500901026F036B8FC904F9ED
:1023000090C905F975ECC3F066EF91F0120043C572
:10231000D9F444C5DAF4DEC4F6F4DDC4F7F4000EF3
:10232000F86E0800F550250AD8A499EF91F09BEFBC
:1023300091F0B9EF93F043C5D9F444C5DAF4DE2A3D
:10234000000EDD22000E0701476F000E466F46C7E4
:102350004AF748694969000E05018D6F000E8C6FC0
:10236000DFEF91F007014A8343C5D9F444C5DAF49D
:10237000DE2A000EDD22DFEF91F0000E8D6F010EE0
:102380008C6FDFEF91F043C5D9F444C5DAF4DEC4B5
:10239000F6F4DDC4F7F4000EF86E0800F550476E51
:1023A000486A4850000AD8B4D8EF91F0BDEF91F0D8
:1023B0004750300AD8B4B2EF91F0BDEF91F005016B
:1023C0008C518D11D8B4E7EF91F0E9EF91F0C3EFA4
:1023D00091F043C5D9F444C5DAF4DEC4F6F4DDC4A3
:1023E000F7F4000EF86E0800F5502E0AD8A4FBEFA3
:1023F00091F0FDEF91F06FEF92F0000E0701496F41
:10240000000E486F43C5D9F444C5DAF4DE2A000E45
:10241000DD2243C5D9F444C5DAF4DEC4F6F4DDC4E4
:10242000F7F4000EF86E0800F5502A0AD8A41BEF46
:1024300092F01DEF92F03AEF92F043C5D9F444C503
:10244000DAF4DE2A000EDD2245C5D9F446C5DAF4F9
:10245000DFC447F5020EDE26DFC448F5000EDD229C
:1024600047C5D9F448C5DAF4DEC448F7DDC449F7F6
:102470006FEF92F043C5D9F444C5DAF4DEC407F532
:10248000DDC408F56DECBBF007C548F708C549F792
:1024900051EF92F043C5D9F444C5DAF4DE2A000EB8
:1024A000DD2243C5D9F444C5DAF4DEC4F6F4DDC454
:1024B000F7F4000EF86E0800F5C447F5D00E472477
:1024C000486E496AFF0E4922495009E10A0E485CEC
:1024D000D8A06DEF92F06FEF92F04AEF92F043C503
:1024E000D9F444C5DAF4DEC497F5DDC498F597C590
:1024F000F6F498C5F7F4000EF86E0800F550640A7B
:10250000D8B485EF92F087EF92F097EF92F097C5ED
:10251000F6F498C5F7F4000EF86E0800F550690A55
:10252000D8A495EF92F097EF92F0DBEF92F045C5CB
:10253000D9F446C5DAF4DFC447F5020EDE26DFC45F
:1025400048F5000EDD2247C5D9F448C5DAF4DEC4EB
:102550008EF5DDC48FF50501000E8FBFFF0E906F65
:10256000916F926F936F946F956F010E9725476EE1
:10257000000E9821486E43C5D9F444C5DAF447C526
:10258000DEF448C5DDF441C51EF542C51FF58EC514
:1025900020F58FC521F590C522F591C523F592C58B
:1025A00024F593C525F594C526F595C527F583EC47
:1025B0009EF0CFEF93F043C5D9F444C5DAF4DEC4FE
:1025C00097F5DDC498F597C5F6F498C5F7F4000EB5
:1025D000F86E0800F5C496F5FAEF92F0974B982B39
:1025E00014EF93F06C0E966F14EF93F0000E966F4D
:1025F00014EF93F005019651476E486A4850000A5F
:10260000D8B405EF93F0F6EF92F047504C0AD8B4E7
:10261000EEEF92F02A0AD8B4F2EF92F00A0AD8B498
:10262000EEEF92F0F6EF92F097C5F6F498C5F7F456
:10263000000EF86E0800F550660AD8A422EF93F059
:1026400024EF93F0B0EF93F05AEF93F045C5D9F42F
:1026500046C5DAF4DFC447F5040EDE26DFC448F5CC
:10266000000EDD2247C5D9F448C5DAF4DEC48EF584
:10267000DEC48FF5DEC490F5DEC491F56FEF93F004
:1026800045C5D9F446C5DAF4DFC447F5040EDE26A5
:10269000DFC448F5000EDD2247C5D9F448C5DAF499
:1026A000DEC48EF5DEC48FF5DEC490F5DEC491F590
:1026B0006FEF93F09651476E486A4850000AD8B4BD
:1026C00064EF93F06FEF93F047504C0AD8B440EFAB
:1026D00093F0200AD8B426EF93F06FEF93F0010E39
:1026E0009725476E000E9821486E43C5D9F444C51E
:1026F000DAF447C5DEF448C5DDF498EF93F041C540
:102700001EF542C51FF58EC520F58FC521F590C574
:1027100022F591C523F597C5F6F498C5F7F4000E98
:10272000F86E0800F5C424F500EC80F0CFEF93F0CC
:1027300097C5F6F498C5F7F4000EF86E0800F5504A
:10274000476E486A4850000AD8B4A9EF93F0B0EF3A
:1027500093F04750660AD8B47FEF93F0B0EF93F050
:1027600043C5D9F444C5DAF4DE2A000EDD22CFEFEA
:1027700093F043C5D9F444C5DAF4DEC4F6F4DDC4FD
:10278000F7F4000EF86E0800F550036E046A41C5B8
:1027900005F542C506F5DBECC3F0B0EF93F012008F
:1027A00009011151800B1A6F115111251C6F10AFC7
:1027B000DCEF93F0DEEF93F0DFEF93F01C811C5120
:1027C000D8B4E5EF93F0E7EF93F0FAEF93F01C291C
:1027D000D8A4EDEF93F0EFEF93F0F7EF93F0000E46
:1027E0000E6F000E0F6F000E106F000E116F108F26
:1027F00002EF94F0000E0E6F000E0F6F000E106FC0
:10280000000E116F1551800B1A1B155115251B6FEA
:1028100014AF0DEF94F00FEF94F010EF94F01B81D4
:102820001B51D8B416EF94F018EF94F02BEF94F0FE
:102830001B29D8A41EEF94F020EF94F028EF94F019
:10284000000E126F000E136F000E146F000E156F46
:10285000148F33EF94F0000E126F000E136F000E02
:10286000146F000E156F1B51D8B439EF94F03BEF85
:1028700094F043EF94F01C51D8A441EF94F043EF4F
:1028800094F04DEF94F0000E0E6F000E0F6F000EDF
:10289000106F000E116FE5EF95F014510E03F3C4A5
:1028A00025F9F4C426F925511D6F1E6B1F6B206B93
:1028B0002651216F226B236B246B13510F03F3C43A
:1028C00025F9F4C426F925511D27000E1E231F23C8
:1028D000202326512127000E2223232324231251B3
:1028E0001003F3C425F9F4C426F925511D27000E61
:1028F0001E231F23202326512127000E22232323BA
:1029000024231FC920F91EC91FF91DC91EF91D6BFB
:1029100012510F03F3C425F9F4C426F925511D27DC
:1029200026511E23000E1F23000E202313510E03D9
:10293000F3C425F9F4C426F925511D2726511E2379
:10294000000E1F23000E20231FC920F91EC91FF9E6
:102950001DC91EF91D6B12510E03F3C425F9F4C4F1
:1029600026F925511D2726511E23000E1F23000E78
:10297000202314510F03F3C425F9F4C426F925517B
:10298000212726512223000E2323000E2423135136
:102990001003F3C425F9F4C426F925512127265143
:1029A0002223000E2323000E242314511003F3C40A
:1029B00025F9F4C426F92551166F2651176F186BA7
:1029C000196B18C919F917C918F916C917F9166B2F
:1029D000165121271751222318512323195124233B
:1029E0001DC916F91EC917F91FC918F920C919F907
:1029F000190E00EF95F0D8901933183317331633AA
:102A0000E82EFBEF94F0165121271751222318517D
:102A10002323195124231FC920F91EC91FF91DC9D9
:102A20001EF91D6B1B511CC916F9176B1627000EDA
:102A30001723820E1625256FFF0E1721266F36EFFE
:102A400095F0D890213722372337243720AF2BEF4A
:102A500095F02DEF95F02EEF95F02181D8901D3750
:102A60001E371F3720372507D8A0260723AF3BEF97
:102A700095F03DEF95F021EF95F0000E1B6F20AF24
:102A800044EF95F046EF95F06AEF95F0FF0E1D15B7
:102A9000166FFF0E1E15176FFF0E1F15186F7F0E96
:102AA0002015196F1651171118111911D8B45BEFB1
:102AB00095F05DEF95F061EF95F0010E1B6F6AEFF9
:102AC00095F021A166EF95F068EF95F06AEF95F02B
:102AD0005DEF95F01B51D8B470EF95F072EF95F063
:102AE00096EF95F0010E2127000E222323232423A5
:102AF00024A17DEF95F07FEF95F096EF95F021C939
:102B000016F922C917F923C918F924C919F9193571
:102B1000193318331733163316C921F917C922F997
:102B200018C923F919C924F9254B262B26BFA1EF73
:102B300095F0265108E12529D8A0A1EF95F0A3EF43
:102B400095F0ADEF95F0000E216F000E226F800E14
:102B5000236F7F0E246FDBEF95F026BFBAEF95F061
:102B6000265106E12505D8B0B8EF95F0BAEF95F0FB
:102B7000C6EF95F0000E216F000E226F000E236F3E
:102B8000000E246F000E1A6FDBEF95F025C91CF9BB
:102B9000FF0E2117FF0E22177F0E2317000E24179A
:102BA0001CA1D5EF95F0D7EF95F0D8EF95F0238FD6
:102BB000D8901C31246F1A51241321C90EF922C94F
:102BC0000FF923C910F924C911F9120008015C5149
:102BD000800B656F5C515C25676F5BAFF2EF95F022
:102BE000F4EF95F0F5EF95F067816751D8B4FBEFFE
:102BF00095F0FDEF95F010EF96F06729D8A403EF5C
:102C000096F005EF96F00DEF96F0000E596F000E5E
:102C10005A6F000E5B6F000E5C6F5B8F18EF96F0C3
:102C2000000E596F000E5A6F000E5B6F000E5C6F46
:102C30006051800B651B60516025666F5FAF23EFAD
:102C400096F025EF96F026EF96F066816651D8B49F
:102C50002CEF96F02EEF96F041EF96F06629D8A46F
:102C600034EF96F036EF96F03EEF96F0000E5D6F83
:102C7000000E5E6F000E5F6F000E606F5F8F49EF9A
:102C800096F0000E5D6F000E5E6F000E5F6F000E1F
:102C9000606F6651D8B44FEF96F051EF96F059EF50
:102CA00096F06751D8A457EF96F059EF96F063EF7E
:102CB00096F0000E596F000E5A6F000E5B6F000EFB
:102CC0005C6FFBEF97F05F515903F3C470F8F4C4E5
:102CD00071F87051686F696B6A6B6B6B71516C6FD7
:102CE0006D6B6E6B6F6B5E515A03F3C470F8F4C476
:102CF00071F870516827000E69236A236B237151A4
:102D00006C27000E6D236E236F235D515B03F3C4AC
:102D100070F8F4C471F870516827000E69236A23B3
:102D20006B2371516C27000E6D236E236F236AC8CD
:102D30006BF869C86AF868C869F8686B5D515A032E
:102D4000F3C470F8F4C471F87051682771516923A5
:102D5000000E6A23000E6B235E515903F3C470F812
:102D6000F4C471F87051682771516923000E6A2309
:102D7000000E6B236AC86BF869C86AF868C869F8FE
:102D8000686B5D515903F3C470F8F4C471F8705165
:102D9000682771516923000E6A23000E6B235F516F
:102DA0005A03F3C470F8F4C471F870516C27715170
:102DB0006D23000E6E23000E6F235E515B03F3C480
:102DC00070F8F4C471F870516C2771516D23000EC6
:102DD0006E23000E6F235F515B03F3C470F8F4C4DD
:102DE00071F87051616F7151626F636B646B63C88E
:102DF00064F862C863F861C862F8616B61516C275E
:102E000062516D2363516E2364516F2368C861F86A
:102E100069C862F86AC863F86BC864F8190E16EFDF
:102E200097F0D8906433633362336133E82E11EF47
:102E300097F061516C2762516D2363516E23645189
:102E40006F236AC86BF869C86AF868C869F8686B64
:102E5000665167C861F8626B6127000E6223820EBB
:102E60006125706FFF0E6221716F4CEF97F0D89063
:102E70006C376D376E376F376BAF41EF97F043EFBD
:102E800097F044EF97F06C81D890683769376A37CC
:102E90006B377007D8A071076EAF51EF97F053EF03
:102EA00097F037EF97F0000E666F6BAF5AEF97F021
:102EB0005CEF97F080EF97F0FF0E6815616FFF0EE3
:102EC0006915626FFF0E6A15636F7F0E6B15646F75
:102ED0006151621163116411D8B471EF97F073EF0F
:102EE00097F077EF97F0010E666F80EF97F06CA187
:102EF0007CEF97F07EEF97F080EF97F073EF97F00D
:102F00006651D8B486EF97F088EF97F0ACEF97F062
:102F1000010E6C27000E6D236E236F236FA193EFBC
:102F200097F095EF97F0ACEF97F06CC861F86DC82B
:102F300062F86EC863F86FC864F86435643363334D
:102F40006233613361C86CF862C86DF863C86EF8AB
:102F500064C86FF8704B712B71BFB7EF97F0715168
:102F600008E17029D8A0B7EF97F0B9EF97F0C3EF59
:102F700097F0000E6C6F000E6D6F800E6E6F7F0EFF
:102F80006F6FF1EF97F071BFD0EF97F0715106E1DD
:102F90007005D8B0CEEF97F0D0EF97F0DCEF97F058
:102FA000000E6C6F000E6D6F000E6E6F000E6F6F77
:102FB000000E656FF1EF97F070C867F8FF0E6C17A1
:102FC000FF0E6D177F0E6E17000E6F1767A1EBEFE8
:102FD00097F0EDEF97F0EEEF97F06E8FD8906731A6
:102FE0006F6F65516F136CC859F86DC85AF86EC889
:102FF0005BF86FC85CF8120009012A51800B376F2B
:103000002A512A253E6F29AF08EF98F00AEF98F071
:103010000BEF98F03E813E51D8B411EF98F013EFCA
:1030200098F028EF98F03E29D8A419EF98F01BEFFC
:1030300098F023EF98F0000E276F000E286F000E17
:10304000296F000E2A6F298F000E2A6F30EF98F03B
:10305000000E276F000E286F000E296F000E2A6FDA
:103060002E51800B371B2E512E253F6F2DAF3BEF7E
:1030700098F03DEF98F03EEF98F03F813F51D8B483
:1030800044EF98F046EF98F05BEF98F03F29D8A412
:103090004CEF98F04EEF98F056EF98F0000E2B6F33
:1030A000000E2C6F000E2D6F000E2E6F2D8F000E58
:1030B0002E6F63EF98F0000E2B6F000E2C6F000E3A
:1030C0002D6F000E2E6F2B512C112D112E11D8A407
:1030D0006CEF98F06EEF98F086EF98F0000E276F87
:1030E000000E286F000E296F000E2A6F800E291324
:1030F0007F0E2A1337512A1327C927F928C928F91F
:1031000029C929F92AC92AF9C9EF99F03E51D8A449
:103110008CEF98F08EEF98F098EF98F0000E276FF4
:10312000000E286F000E296F000E2A6FC9EF99F06C
:103130003F513EC92FF9306B2F5F000E305B7F0E81
:103140002F25386F000E3021396F27C933F928C970
:1031500034F929C935F92AC936F9000E276F000E4E
:10316000286F000E296F000E2A6F000E3A6F000EB6
:103170003B6F000E3C6F000E3D6F000E3F6FF9EF8E
:1031800098F03F51D8B4C7EF98F0C9EF98F0E0EF4E
:1031900098F0D8903337343735373637D8902737CB
:1031A000283729372A373DAFD8EF98F0DAEF98F073
:1031B000DBEF98F02781D8903A373B373C373D37E3
:1031C0002B51335D2C5134592D5135592E513659CF
:1031D000D8A0EDEF98F0EFEF98F0F8EF98F03D8D74
:1031E0002B51335F2C51345B2D51355B2E51365BA7
:1031F0003F2B190E3F65FFEF98F001EF99F0C1EFFB
:1032000098F03351341135113611D8B40AEF99F0D2
:103210000CEF99F024EF99F03A8124EF99F0D890CF
:103220002737283729372A373DAF19EF99F01BEF99
:1032300099F01CEF99F02781D8903A373B373C370B
:103240003D373807D8A0390729AF29EF99F02BEF80
:1032500099F00FEF99F0000E3F6F3DAF32EF99F00C
:1032600034EF99F058EF99F0FF0E3A152F6FFF0EDB
:103270003B15306FFF0E3C15316F7F0E3D15326FE1
:103280002F51301131113211D8B449EF99F04BEF71
:1032900099F04FEF99F0010E3F6F58EF99F027A189
:1032A00054EF99F056EF99F058EF99F04BEF99F0F1
:1032B0003F51D8B45EEF99F060EF99F084EF99F048
:1032C000010E2727000E282329232A232AA16BEF8A
:1032D00099F06DEF99F084EF99F027C92FF928C97B
:1032E00030F929C931F92AC932F93235323331334B
:1032F00030332F332FC927F930C928F931C929F9BB
:1033000032C92AF9384B392B39BF8FEF99F039512F
:1033100008E13829D8A08FEF99F091EF99F09CEF50
:1033200099F0000E396F3869000E276F000E286F74
:10333000000E296F000E2A6F39BFA9EF99F039519D
:1033400006E13805D8B0A7EF99F0A9EF99F0B7EFEB
:1033500099F0000E396F000E386F000E276F000EC7
:10336000286F000E296F000E2A6F000E376F38C9C4
:103370003EF93EA1BEEF99F0C0EF99F0C3EF99F08E
:10338000298FC4EF99F0299FD8903E312A6F7AEFA8
:1033900098F0120008014351800B506F43514325B0
:1033A000576F42AFD6EF99F0D8EF99F0D9EF99F077
:1033B00057815751D8B4DFEF99F0E1EF99F0F6EF6C
:1033C00099F05729D8A4E7EF99F0E9EF99F0F1EFD8
:1033D00099F0000E406F000E416F000E426F000E1C
:1033E000436F428F000E436FFEEF99F0000E406F67
:1033F000000E416F000E426F000E436F4751800B6D
:10340000501B47514725586F46AF09EF9AF00BEF15
:103410009AF00CEF9AF058815851D8B412EF9AF004
:1034200014EF9AF029EF9AF05829D8A41AEF9AF0DD
:103430001CEF9AF024EF9AF0000E446F000E456FD7
:10344000000E466F000E476F468F000E476F31EF3C
:103450009AF0000E446F000E456F000E466F000E8E
:10346000476F4451451146114711D8A43AEF9AF0DD
:103470003CEF9AF054EF9AF0000E406F000E416F4F
:10348000000E426F000E436F800E42137F0E4313F7
:103490005051431340C840F841C841F842C842F86F
:1034A00043C843F897EF9BF05751D8A45AEF9AF0CE
:1034B0005CEF9AF066EF9AF0000E406F000E416FDD
:1034C000000E426F000E436F97EF9BF0585157C8A4
:1034D00048F8496B485F000E495B7F0E4825516FE5
:1034E000000E4921526F40C84CF841C84DF842C8FF
:1034F0004EF843C84FF8000E406F000E416F000EAB
:10350000426F000E436F000E536F000E546F000E9B
:10351000556F000E566F000E586FC7EF9AF0585156
:10352000D8B495EF9AF097EF9AF0AEEF9AF0D89062
:103530004C374D374E374F37D890403741374237A9
:10354000433756AFA6EF9AF0A8EF9AF0A9EF9AF09A
:103550004081D890533754375537563744514C5DD6
:1035600045514D5946514E5947514F59D8A0BBEF7F
:103570009AF0BDEF9AF0C6EF9AF0568D44514C5F29
:1035800045514D5B46514E5B47514F5B582B190ED1
:103590005865CDEF9AF0CFEF9AF08FEF9AF04C513B
:1035A0004D114E114F11D8B4D8EF9AF0DAEF9AF0CE
:1035B000F2EF9AF05381F2EF9AF0D890403741370A
:1035C0004237433756AFE7EF9AF0E9EF9AF0EAEF68
:1035D0009AF04081D89053375437553756375107B2
:1035E000D8A0520742AFF7EF9AF0F9EF9AF0DDEF6B
:1035F0009AF0000E586F56AF00EF9BF002EF9BF071
:1036000026EF9BF0FF0E5315486FFF0E5415496FC0
:10361000FF0E55154A6F7F0E56154B6F48514911D5
:103620004A114B11D8B417EF9BF019EF9BF01DEF27
:103630009BF0010E586F26EF9BF040A122EF9BF00C
:1036400024EF9BF026EF9BF019EF9BF05851D8B474
:103650002CEF9BF02EEF9BF052EF9BF0010E4027DA
:10366000000E41234223432343A139EF9BF03BEF5C
:103670009BF052EF9BF040C848F841C849F842C857
:103680004AF843C84BF84B354B334A334933483338
:1036900048C840F849C841F84AC842F84BC843F8FE
:1036A000514B522B52BF5DEF9BF0525108E1512913
:1036B000D8A05DEF9BF05FEF9BF06AEF9BF0000EF0
:1036C000526F5169000E406F000E416F000E426F45
:1036D000000E436F52BF77EF9BF0525106E1510548
:1036E000D8B075EF9BF077EF9BF085EF9BF0000E65
:1036F000526F000E516F000E406F000E416F000EB2
:10370000426F000E436F000E506F51C857F857A11B
:103710008CEF9BF08EEF9BF091EF9BF0428F92EF3E
:103720009BF0429FD8905731436F48EF9AF01200B8
:103730000701336F2DEF9CF045ECCEF00A0E060129
:103740000F6F78EF9CF045ECCEF0080E06010F6F7E
:1037500078EF9CF045ECCEF00B0E06010F6F78EF82
:103760009CF045ECCEF00D0E06010F6F78EF9CF04B
:1037700045ECCEF0140E06010F6F78EF9CF045EC8F
:10378000CEF0100E06010F6F78EF9CF045ECCEF0F6
:103790000F0E06010F6F78EF9CF045ECCEF0110E86
:1037A00006010F6F78EF9CF045ECCEF0120E06018B
:1037B0000F6F78EF9CF0640E0601126F1251080132
:1037C0007A6F7B6B7ABF7B0740ECC4F078EF9CF09C
:1037D000000E0601126FDEEF9BF006011251800A07
:1037E0001C0FD8B0F6EF9BF0F8EF9BF0DEEF9BF0EC
:1037F0000A0E1227DEEF9BF006011251800A7F0F9E
:10380000D8A005EF9CF007EF9CF0DEEF9BF0F60EE2
:103810001227DEEF9BF0CE9ACF86000E7B6F320E22
:103820007A6F0AECC5F0520E0801816F2B0E806F83
:10383000000EE82EFED7802FFCD7812FFAD700F09C
:10384000000E08017B6F000E7A6F0AECC5F078EF6E
:103850009CF0CE8ACF960DEF9CF007013351080102
:10386000806F816B8151000AD8B439EF9CF078EFFA
:103870009CF08051410AD8B4C6EF9BF0050AD8B439
:10388000FCEF9BF0020AD8B4E8EF9BF00A0AD8B428
:10389000BFEF9BF0030AD8B4DBEF9BF01F0AD8B44C
:1038A000CDEF9BF0050AD8B4EDEF9BF0030AD8B436
:1038B000D4EF9BF00E0AD8B40BEF9CF0010AD8B4F9
:1038C00029EF9CF0310AD8B4A3EF9BF0180AD8B4C2
:1038D000B1EF9BF0020AD8B4B8EF9BF0010AD8B45C
:1038E000AAEF9BF0070AD8B49CEF9BF078EF9CF00E
:1038F000140E06010F19D8A480EF9CF082EF9CF003
:10390000B6EF9CF09FEF9CF00501DA51D8A48BEF45
:103910009CF08DEF9CF0B6EF9CF0CD4BCE2BB6EF2C
:103920009CF00501DA51D8A498EF9CF09AEF9CF036
:10393000B6EF9CF0CD07D8A0CE07B6EF9CF00701FC
:1039400033510801806F816B8151000AD8B4ABEF0D
:103950009CF0B6EF9CF08051620AD8B491EF9CF0D5
:10396000170AD8B484EF9CF0B6EF9CF0060110055E
:10397000D8A4BDEF9CF0BFEF9CF0EEEF9CF00B0ED7
:103980000F19D8A4C6EF9CF0C8EF9CF0EEEF9CF0A6
:10399000D4EF9CF0010E0601116FEBEF9CF0000ECE
:1039A0000601116FEBEF9CF0070133510801806FA6
:1039B000816B8151000AD8B4E0EF9CF0EBEF9CF0F2
:1039C0008051660AD8B4CFEF9CF0090AD8B4CAEF88
:1039D0009CF0EBEF9CF0000E0601106F0501DE0578
:1039E000D8A4F5EF9CF0F7EF9CF01FEF9DF00C0EC4
:1039F00006010F19D8A4FFEF9CF001EF9DF01FEF17
:103A00009DF0640E07013319D8A409EF9DF00BEF68
:103A10009DF01FEF9DF045ECCEF0010E0601646FA6
:103A2000D092000E0501DE6F000ED86F000ED76F2A
:103A3000000ED66F000ED56F080E06010F6F120034
:103A40001FC936F920C937F921C938F922C939F90E
:103A500023C93AF924C93BF925C93CF926C93DF9DE
:103A600009013DBF36EF9DF039EF9DF0010E3AEFB1
:103A70009DF0000E356F3551D8B441EF9DF043EF06
:103A80009DF053EF9DF03D1F3C1F3B1F3A1F391F18
:103A9000381F371F366D000E3723382339233A235A
:103AA0003B233C233D23070149BF59EF9DF05BEFCA
:103AB0009DF05CEF9DF04A9349BF69EF9DF049513D
:103AC00006E14805D8B067EF9DF069EF9DF070EF13
:103AD0009DF0000E0901326F010E316F74EF9DF001
:103AE00048C731F949C732F946C733F947C734F9EE
:103AF00009013551D8B47FEF9DF081EF9DF098EF2B
:103B00009DF03307D8A034073551D8A48AEF9DF033
:103B10008CEF9DF092EF9DF0000E306F2B0E2F6F0B
:103B200096EF9DF0000E306F2D0E2F6F2FC935F9D7
:103B3000000E3F6F4F0E3E6F000E0601636F1FEFCA
:103B40009EF009013E07D8A03F07140E3E25D96E0E
:103B5000060E3F21DA6E36C900F937C901F938C9B6
:103B600002F939C903F93AC904F93BC905F93CC955
:103B700006F93DC907F90A0E086F000E096F000E1D
:103B80000A6F000E0B6F000E0C6F000E0D6F000E13
:103B90000E6F000E0F6F57ECB9F000C927F901C97D
:103BA00028F902C929F903C92AF904C92BF905C959
:103BB0002CF906C92DF907C92EF927C912F928C908
:103BC00013F9A1ECCCF009011251300FDF6E31076F
:103BD000D8A032073307D8A0340736C900F937C94F
:103BE00001F938C902F939C903F93AC904F93BC9DD
:103BF00005F93CC906F93DC907F90A0E086F000E20
:103C0000096F000E0A6F000E0B6F000E0C6F000E96
:103C10000D6F000E0E6F000E0F6F87ECB5F000C930
:103C200036F901C937F902C938F903C939F904C9A4
:103C30003AF905C93BF906C93CF907C93DF909013B
:103C40003FBF2BEF9EF03F5108E13E05D8A02BEF80
:103C50009EF02DEF9EF05EEF9EF036513711381139
:103C600039113A113B113C113D11D8A43AEF9EF0A5
:103C70003CEF9EF0A1EF9DF032BF49EF9EF0325134
:103C800006E13105D8B047EF9EF049EF9EF0A1EF75
:103C90009DF034BF54EF9EF0345108E13305D8A0B5
:103CA00054EF9EF056EF9EF05EEF9EF007014AB390
:103CB0005CEF9EF05EEF9EF0A1EF9DF009013551A3
:103CC000D8B465EF9EF067EF9EF072EF9EF03E076E
:103CD000D8A03F07140E3E25D96E060E3F21DA6E9E
:103CE00035C9DFF41DC912F91EC913F9140E3E259A
:103CF000146F060E3F21156F33C916F934C917F931
:103D00006AECC8F0120020C537F521C538F522C588
:103D100039F523C53AF524C53BF525C53CF526C53F
:103D20003DF527C53EF53EBE98EF9EF09BEF9EF019
:103D3000010E9CEF9EF0000E366E3650D8B4A3EF05
:103D40009EF0A5EF9EF0B5EF9EF03E1E3D1E3C1E80
:103D50003B1E3A1E391E381E376C000E382239229F
:103D60003A223B223C223D223E22070149BFBBEFC3
:103D70009EF0BDEF9EF0BEEF9EF04A9349BFCBEFA1
:103D80009EF0495106E14805D8B0C9EF9EF0CBEF4F
:103D90009EF0D1EF9EF0000E336E010E326ED5EF25
:103DA0009EF048C732F549C733F546C734F547C7D3
:103DB00035F53650D8B4DFEF9EF0E1EF9EF0F8EF26
:103DC0009EF03406D8A035063650D8A4EAEF9EF00F
:103DD000ECEF9EF0F2EF9EF0000E316E2B0E306E87
:103DE000F6EF9EF0000E316E2D0E306E30C536F5BA
:103DF000000E406E4F0E3F6E000E0601636F7DEFAA
:103E00009FF03F06D8A04006140E3F24D96E060E40
:103E10004020DA6E37C501F538C502F539C503F51E
:103E20003AC504F53BC505F53CC506F53DC507F5A6
:103E30003EC508F50A0E096E000E0A6E000E0B6EE6
:103E4000000E0C6E000E0D6E000E0E6E000E0F6E4C
:103E5000000E106E0AECBAF001C528F502C529F56E
:103E600003C52AF504C52BF505C52CF506C52DF5AA
:103E700007C52EF508C52FF528C513F529C514F576
:103E8000C2ECCCF01350300FDF6E3206D8A03306F0
:103E90003406D8A0350637C501F538C502F539C551
:103EA00003F53AC504F53BC505F53CC506F53DC52A
:103EB00007F53EC508F50A0E096E000E0A6E000EE3
:103EC0000B6E000E0C6E000E0D6E000E0E6E000ED0
:103ED0000F6E000E106E4CECB6F001C537F502C542
:103EE00038F503C539F504C53AF505C53BF506C5F2
:103EF0003CF507C53DF508C53EF540BE88EF9FF08F
:103F0000405008E13F04D8A088EF9FF08AEF9FF06F
:103F1000BBEF9FF03750381039103A103B103C106F
:103F20003D103E10D8A497EF9FF099EF9FF001EF5E
:103F30009FF033BEA6EF9FF0335006E13204D8B0B5
:103F4000A4EF9FF0A6EF9FF001EF9FF035BEB1EF19
:103F50009FF0355008E13404D8A0B1EF9FF0B3EFE3
:103F60009FF0BBEF9FF007014AB3B9EF9FF0BBEFA3
:103F70009FF001EF9FF03650D8B4C1EF9FF0C3EF30
:103F80009FF0CEEF9FF03F06D8A04006140E3F24CE
:103F9000D96E060E4020DA6E36C5DFF41EC513F565
:103FA0001FC514F5140E3F24156E060E4020166E24
:103FB00034C517F535C518F5A9ECC8F01200010E87
:103FC00009010B6F860E0C6FFF0E0D6F010E99EC41
:103FD000C9F0D1B0EEEF9FF0F0EF9FF003EFA0F04B
:103FE000D1A0F5EF9FF0F7EF9FF0F0EF9FF0060103
:103FF000642B040E6465FFEF9FF001EFA0F003EF68
:10400000A0F0010E646FD1B208EFA0F00AEFA0F0AB
:104010004BEFA0F0D1A20FEFA0F011EFA0F00AEF4C
:10402000A0F0060164076451D8A419EFA0F01BEFBB
:10403000A0F04BEFA0F0040E646F4BEFA0F0010E68
:104040000B6F520E0C6FFF0E0D6F020E99ECC9F044
:104050006AEFA0F0010E0B6F800E0C6FFE0E0D6F5D
:10406000020E99ECC9F06AEFA0F0010E0B6F710E11
:104070000C6FFE0E0D6F020E99ECC9F06AEFA0F006
:10408000010E0B6FF10E0C6FFD0E0D6F020E99EC11
:10409000C9F06AEFA0F00601645109010F6F106BBF
:1040A0001051000AD8B457EFA0F06AEFA0F00F51FA
:1040B000010AD8B41FEFA0F0030AD8B42AEFA0F089
:1040C000010AD8B435EFA0F0070AD8B440EFA0F049
:1040D0006AEFA0F0D1B46FEFA0F071EFA0F01DEF88
:1040E000A1F0D1A476EFA0F078EFA0F071EFA0F0EE
:1040F000B9EFA0F0D1BE7FEFA0F081EFA0F082EF8A
:10410000A0F0D18ED1AE87EFA0F089EFA0F0D8EF6C
:10411000A0F0D19E1DEFA1F0D1BA91EFA0F093EFE6
:10412000A0F094EFA0F0D18AD1AA99EFA0F09BEF74
:10413000A0F0D8EFA0F0D19A1DEFA1F0D1BCA3EF71
:10414000A0F0A5EFA0F0A6EFA0F0D18CD1ACABEF22
:10415000A0F0ADEFA0F0D8EFA0F0D19C1DEFA1F042
:1041600038ECCEF0010E0601646F080E0F6F1DEFE4
:10417000A1F00601645109010F6F106B1051000A84
:10418000D8B4C5EFA0F01DEFA1F00F51010AD8B4CB
:104190007AEFA0F0030AD8B48CEFA0F0010AD8B4EB
:1041A0009EEFA0F0070AD8B4B0EFA0F01DEFA1F089
:1041B0001DEFA1F0090E0901106F1E0E0F6FE40E26
:1041C000E82EFED70F2FFCD7102FFAD700F0D1BE64
:1041D000ECEFA0F0EEEFA0F0EFEFA0F0D18ED1AEBB
:1041E000F4EFA0F0F6EFA0F038EFA1F0D19E38EF99
:1041F000A1F0D1BAFEEFA0F000EFA1F001EFA1F025
:10420000D18AD1AA06EFA1F008EFA1F038EFA1F012
:10421000D19A38EFA1F0D1BC10EFA1F012EFA1F0CC
:1042200013EFA1F0D18CD1AC18EFA1F01AEFA1F0EF
:1042300038EFA1F0D19C38EFA1F00601135109012C
:104240000F6F106B1051000AD8B429EFA1F038EFAE
:10425000A1F00F51310AD8B4DAEFA0F0030AD8B4B4
:10426000F9EFA0F0010AD8B40BEFA1F038EFA1F0FC
:104270001200010E09010B6FE00E0C6FFD0E0D6FA9
:10428000010E99ECC9F0010E09010B6FF90E0C6FCC
:10429000FF0E0D6F020E99ECC9F04F0E0901AD6FC4
:1042A000070EAE6FD50EAF6FFF0EB06F07014B510B
:1042B0000901B16FB26BB1BFB207E3ECCAF04DC7F1
:1042C0000BF94F0E09010C6F070E0D6F020E99ECE2
:1042D000C9F04F0E0901AD6F070EAE6FD50EAF6F6F
:1042E000FF0EB06F4CC7B1F9B26BE3ECCAF0100E21
:1042F00009010B6F4F0E0C6F070E0D6F020E99EC3C
:10430000C9F0D1B086EFA1F088EFA1F09DEFA1F048
:10431000D1A08DEFA1F08FEFA1F088EFA1F0070100
:104320004B2B4B51800A760FD8A099EFA1F09BEF51
:10433000A1F09DEFA1F0000E4B6FD1B2A2EFA1F062
:10434000A4EFA1F0B6EFA1F0D1A2A9EFA1F0ABEFDD
:10435000A1F0A4EFA1F007014B074BBFB4EFA1F010
:10436000B2EFA1F0B6EFA1F0090E4B6FD1B4BBEFE5
:10437000A1F0BDEFA1F074EFA2F0D1A4C2EFA1F0C3
:10438000C4EFA1F0BDEFA1F04BC7C2F90901C36BA7
:10439000C2BFC30707014D510901C46FC56BD89057
:1043A000C437C5372E0EC425D96E070EC521DA6E67
:1043B000C2C9DEF4C3C9DDF407014D2B070E4D65FC
:1043C000E4EFA1F0E6EFA1F074EFA2F034510601A2
:1043D000001909E10701355106010119D8A4F3EFCD
:1043E000A1F0F5EFA1F06FEFA2F007013651060141
:1043F000021909E10701375106010319D8A403EF97
:10440000A2F005EFA2F06FEFA2F00701385106010C
:10441000041909E10701395106010519D8A413EF60
:10442000A2F015EFA2F06FEFA2F007013A510601DA
:10443000061909E107013B5106010719D8A423EF2A
:10444000A2F025EFA2F06FEFA2F007013C510601A8
:10445000081909E107013D5106010919D8A433EFF4
:10446000A2F035EFA2F06FEFA2F0010E09010B6F81
:10447000D00E0C6FFC0E0D6F010E99ECC9F0010E01
:1044800009010B6F030E0C6FFD0E0D6F020E99EC00
:10449000C9F0520E0901C36F2B0EC26F000EE82E39
:1044A000FED7C22FFCD7C32FFAD700F0000E0701AA
:1044B0004C6F38ECCEF0010E0601646FD092000E06
:1044C0000501DE6F000ED86F000ED76F000ED66F9D
:1044D000000ED56F080E06010F6F74EFA2F038ECD6
:0A44E000CEF0030E07014D6F12002D
:1044EC00F6C4A1F5F7C4A2F5F8C4A3F5F5C4A4F578
:1044FC00B19E3C0E0301186F0501DC2BDA05D8A424
:10450C008AEFA2F08CEFA2F0D0EFA2F0D34BD42B19
:10451C00CDC501F5CEC502F5020E046E580E036E24
:10452C00FCECCDF00501D351011807E1D451021870
:10453C00D8A4A3EFA2F0A5EFA2F0A6EFA2F0D0882A
:10454C00D0A8ABEFA2F0ADEFA2F0D0EFA2F0000E2E
:10455C00026E320E016EA5ECC4F00501D14BD22BCC
:10456C00140ED119D211D8A4BEEFA2F0C0EFA2F054
:10457C00D0EFA2F0000E026E000E016EA5ECC4F09E
:10458C00000E0501D46F000ED36F000ED26F000E1B
:10459C00D16FD0980C0EDC19D8A4D7EFA2F0D9EFBC
:1045AC00A2F054EFA3F0000EDC6F060E37ECCDF04A
:1045BC0007011DC723F71EC724F7256B266B000EBA
:1045CC005BECB1F023C7E0F524C7E1F525C7E2F5B4
:1045DC0026C7E3F5250E08015D6F5B0E5E6F1D0EA1
:1045EC005F6FBD0E606FE0C559F8E1C55AF8E2C5C2
:1045FC005BF8E3C55CF8E6EC95F059C801F55AC8D0
:10460C0002F55BC803F55CC804F5EC0E056E510EA3
:10461C00066E1D0E076E430E086EDCEC8CF001C5A9
:10462C0042F702C543F703C544F704C545F7E50E49
:10463C00056E050E066EE40E076E050E086E46EC52
:10464C00C7F0EC0E05019B6FFF0E9C6FE5C59DF549
:10465C009E6BD4ECCDF0DD0E05019B6FFF0E9C6FB5
:10466C00E4C59DF59E6BD4ECCDF0190E0501E56506
:10467C0042EFA3F044EFA3F04DEFA3F0000E0801BE
:10468C007B6F640E7A6F40ECC4F054EFA3F0000E15
:10469C0008017B6F000E7A6F40ECC4F00501DE055B
:1046AC00D8A45BEFA3F05DEFA3F081EFA3F0D74BA1
:1046BC00D82BD54BD62B2C0ED71906E1D805D8A460
:1046CC006AEFA3F06CEFA3F06DEFA3F0D092900E15
:1046DC00D51906E1D605D8A476EFA3F078EFA3F0B0
:1046EC0081EFA3F0D082000ED86F000ED76F000EB2
:1046FC00D66F000ED56FA4C5F5F4A3C5F8F4A2C50A
:10470C00F7F4A1C5F6F41100010E09010B6F210E8F
:10471C000C6FFC0E0D6F010E99ECC9F0000E070129
:10472C004E6F040E4E659DEFA3F09FEFA3F0A1EF2B
:10473C00A3F0C9EFA3F04F0E0901AD6F070EAE6FDA
:10474C00D50EAF6FFF0EB06F07014E51020D340E38
:10475C00F324D96E070EF420DA6EDEC4B1F9DDC491
:10476C00B2F9E3ECCAF007014E51050F09010B6FCA
:10477C004F0E0C6F070E0D6F010E99ECC9F007016F
:10478C004E2B97EFA3F0010E09010B6F410E0C6F2E
:10479C00FE0E0D6F020E99ECC9F0D1B0D8EFA3F05C
:1047AC00DAEFA3F0EDEFA3F0D1A0DFEFA3F0E1EF90
:1047BC00A3F0DAEFA3F00601642B020E6465E9EFB7
:1047CC00A3F0EBEFA3F0EDEFA3F0010E646FD1B209
:1047DC00F2EFA3F0F4EFA3F02BEFA4F0D1A2F9EFDA
:1047EC00A3F0FBEFA3F0F4EFA3F006016407645110
:1047FC00D8A403EFA4F005EFA4F02BEFA4F0020E65
:10480C00646F2BEFA4F0060E0B6F3C0E0C6F020EB8
:10481C001EECCEF00E0E09010B6F200E0C6F020E6B
:10482C001EECCEF042EFA4F0060E0B6F200E0C6FB8
:10483C00020E1EECCEF00E0E09010B6F3C0E0C6F2F
:10484C00020E1EECCEF042EFA4F0060164510901F9
:10485C00C26FC36BC351000AD8B437EFA4F042EF58
:10486C00A4F0C251010AD8B409EFA4F0030AD8B4D9
:10487C001AEFA4F042EFA4F0D1B447EFA4F049EF43
:10488C00A4F09AEFA4F0D1A44EEFA4F050EFA4F052
:10489C0049EFA4F038ECCEF080EFA4F0010E0B6FD2
:1048AC00580E0C6FFD0E0D6F010E99ECC9F0010E38
:1048BC0009010B6F8C0E0C6FFC0E0D6F020E99EC38
:1048CC00C9F0520E0901C36F2B0EC26F000EE82EF9
:1048DC00FED7C22FFCD7C32FFAD700F038ECCEF09E
:1048EC00000E06010F6F97EFA4F0090E06010F6F73
:1048FC0097EFA4F0060164510901C26FC36BC35159
:10490C00000AD8B48CEFA4F097EFA4F0C251010ABE
:10491C00D8B454EFA4F0030AD8B47BEFA4F097EF0B
:10492C00A4F0010E0601646F1200CDEFA4F0000E8E
:10493C00656F010E646FFCEFA4F0000E656F020E44
:10494C00646FFCEFA4F0000E656F040E646FFCEF57
:10495C00A4F0000E656F080E646FFCEFA4F0000E5F
:10496C00656F100E646FFCEFA4F0000E656F200EE7
:10497C00646FFCEFA4F0000E656F400E646FFCEFEB
:10498C00A4F0000E656F800E646FFCEFA4F0060EB1
:10499C0009015E6F000E5F6F5F51000AD8B4D9EF4A
:1049AC00A4F0FCEFA4F05E51000AD8B49DEFA4F083
:1049BC00010AD8B4A3EFA4F0030AD8B4A9EFA4F069
:1049CC00010AD8B4AFEFA4F0070AD8B4B5EFA4F03D
:1049DC00010AD8B4BBEFA4F0030AD8B4C1EFA4F019
:1049EC00010AD8B4C7EFA4F0FCEFA4F003014A9974
:1049FC004A8F4A51F00B0C094A6F000E226F000EC1
:104A0C000901126F000E136F800E146F400E156F9C
:104A1C005AC900F95BC901F95CC902F95DC903F90E
:104A2C00010E7FECB0F000C90EF901C90FF902C9F3
:104A3C0010F903C911F9D0EC93F00EC960F90FC944
:104A4C0061F910C962F911C963F964C900F965C942
:104A5C0001F90901000E01BFFF0E026F036F010E79
:104A6C007FECB0F000C912F901C913F902C914F9AD
:104A7C0003C915F960C90EF961C90FF962C910F9BA
:104A8C0063C911F9D0EC93F00EC92BF90FC92CF9AD
:104A9C0010C92DF911C92EF9000E0901276F240E2A
:104AAC00286F740E296F4C0E2A6FFCEC97F027C9F7
:104ABC0050F928C951F929C952F92AC953F979EC85
:104ACC00C0F0090150510301236F000E0901126F50
:104ADC00000E136F000E146F400E156F030123515F
:104AEC000901006F016B026B036B010E7FECB0F0E0
:104AFC0000C90EF901C90FF902C910F903C911F95E
:104B0C00D0EC93F00EC950F90FC951F910C952F9F4
:104B1C0011C953F979ECC0F050C948F351C949F3A4
:104B2C0003014C51CF0B10094C6FB19824518F0BD2
:104B3C006009246FF00E2417249F010E266F0401C8
:104B4C000895C794170E02010B6F1200DEEFA5F04B
:104B5C00000E656F010E646F0DEFA6F0000E656F11
:104B6C00020E646F0DEFA6F0000E656F040E646FFD
:104B7C000DEFA6F0000E656F080E646F0DEFA6F03A
:104B8C00000E656F100E646F0DEFA6F0000E656FD2
:104B9C00200E646F0DEFA6F0000E656F400E646F73
:104BAC000DEFA6F0000E656F800E646F0DEFA6F092
:104BBC00060E09015E6F000E5F6F5F51000AD8B4DC
:104BCC00EAEFA5F00DEFA6F05E51000AD8B4AEEFF7
:104BDC00A5F0010AD8B4B4EFA5F0030AD8B4BAEF23
:104BEC00A5F0010AD8B4C0EFA5F0070AD8B4C6EFF7
:104BFC00A5F0010AD8B4CCEFA5F0030AD8B4D2EFD3
:104C0C00A5F0010AD8B4D8EFA5F00DEFA6F003017A
:104C1C004699468F4651F00B0C09466F000E226FD9
:104C2C00000E0901126F000E136F800E146F400EF0
:104C3C00156F5AC900F95BC901F95CC902F95DC964
:104C4C0003F9010E7FECB0F000C90EF901C90FF9A0
:104C5C0002C910F903C911F9D0EC93F00EC960F92F
:104C6C000FC961F910C962F911C963F964C900F976
:104C7C0065C901F90901000E01BFFF0E026F036F38
:104C8C00010E7FECB0F000C912F901C913F902C989
:104C9C0014F903C915F960C90EF961C90FF962C994
:104CAC0010F963C911F9D0EC93F00EC92BF90FC9A7
:104CBC002CF910C92DF911C92EF9000E0901276F15
:104CCC00240E286F740E296F4C0E2A6FFCEC97F093
:104CDC0027C950F928C951F929C952F92AC953F9D8
:104CEC0079ECC0F0090150510301236F000E09014A
:104CFC00126F000E136F800E146F400E156F0301B0
:104D0C0023510901006F016B026B036B010E7FECE9
:104D1C00B0F000C90EF901C90FF902C910F903C9A5
:104D2C0011F9D0EC93F00EC950F90FC951F910C913
:104D3C0052F911C953F979ECC0F050C944F351C977
:104D4C0045F303014C51F30B04094C6FB1982451FA
:104D5C008F0B6009246FF00E2417249F010E266F11
:104D6C0004011097C896160E0201146F1200EFEF93
:104D7C00A6F0000E656F010E646F1EEFA7F0000E1B
:104D8C00656F020E646F1EEFA7F0000E656F040EC8
:104D9C00646F1EEFA7F0000E656F080E646F1EEFB8
:104DAC00A7F0000E656F100E646F1EEFA7F0000EDB
:104DBC00656F200E646F1EEFA7F0000E656F400E3E
:104DCC00646F1EEFA7F0000E656F800E646F1EEF10
:104DDC00A7F0060E09015E6F000E5F6F5F51000AAF
:104DEC00D8B4FBEFA6F01EEFA7F05E51000AD8B4C2
:104DFC00BFEFA6F0010AD8B4C5EFA6F0030AD8B4E9
:104E0C00CBEFA6F0010AD8B4D1EFA6F0070AD8B4BC
:104E1C00D7EFA6F0010AD8B4DDEFA6F0030AD8B498
:104E2C00E3EFA6F0010AD8B4E9EFA6F01EEFA7F065
:104E3C0003014299428F4251F00B0C09426F000E54
:104E4C00226F000E0901126F000E136F800E146F8B
:104E5C00400E156F5AC900F95BC901F95CC902F91A
:104E6C005DC903F9010E7FECB0F000C90EF901C960
:104E7C000FF902C910F903C911F9D0EC93F00EC95E
:104E8C0060F90FC961F910C962F911C963F964C9F4
:104E9C0000F965C901F90901000E01BFFF0E026F8F
:104EAC00036F010E7FECB0F000C912F901C913F9C0
:104EBC0002C914F903C915F960C90EF961C90FF9D2
:104ECC0062C910F963C911F9D0EC93F00EC92BF932
:104EDC000FC92CF910C92DF911C92EF9000E0901B1
:104EEC00276F240E286F740E296F4C0E2A6FFCEC62
:104EFC0097F027C950F928C951F929C952F92AC97B
:104F0C0053F979ECC0F0090150510301236F000EE5
:104F1C000901126F000E136F000E146F400E156F07
:104F2C00030123510901006F016B026B036B010E2E
:104F3C007FECB0F000C90EF901C90FF902C910F9E4
:104F4C0003C911F9D0EC93F00EC950F90FC951F9FE
:104F5C0010C952F911C953F979ECC0F050C940F39A
:104F6C0051C941F303014C51FC0B01094C6FB19831
:104F7C0024518F0B6009246FF00E2417249F010E0F
:104F8C00266F04011095C894150E0201136F1200C0
:104F9C00010E09010B6F6A0E0C6FFC0E0D6F010EEA
:104FAC0099ECC9F0D1B0DDEFA7F0DFEFA7F0F2EF8D
:104FBC00A7F0D1A0E4EFA7F0E6EFA7F0DFEFA7F0A2
:104FCC000601642B050E6465EEEFA7F0F0EFA7F079
:104FDC00F2EFA7F0010E646FD1B2F7EFA7F0F9EF83
:104FEC00A7F045EFA8F0D1A2FEEFA7F000EFA8F0D4
:104FFC00F9EFA7F0060164076451D8A408EFA8F0F4
:10500C000AEFA8F045EFA8F0050E646F45EFA8F085
:10501C00010E0B6F8B0E0C6FFD0E0D6F020E99ECCB
:10502C00C9F068EFA8F0010E0B6F7A0E0C6FFD0E35
:10503C000D6F020E99ECC9F068EFA8F0010E0B6F22
:10504C00BE0E0C6FFD0E0D6F020E99ECC9F068EFE1
:10505C00A8F0010E0B6F9C0E0C6FFD0E0D6F020E67
:10506C0099ECC9F068EFA8F0010E0B6FAD0E0C6F48
:10507C00FD0E0D6F020E99ECC9F068EFA8F0060159
:10508C00645109010F6F106B1051000AD8B451EF25
:10509C00A8F068EFA8F00F51010AD8B40EEFA8F0F1
:1050AC00030AD8B419EFA8F0010AD8B424EFA8F079
:1050BC00070AD8B42FEFA8F0010AD8B43AEFA8F039
:1050CC0068EFA8F0D1B46DEFA8F06FEFA8F0DBEFAC
:1050DC00A8F0D1A474EFA8F076EFA8F06FEFA8F0C9
:1050EC0038ECCEF0B5EFA8F00B0E06010F6FD8EF31
:1050FC00A8F00D0E06010F6FD8EFA8F00E0E0601EA
:10510C000F6FD8EFA8F00A0E06010F6FD8EFA8F0BA
:10511C00010E0B6F9D0E0C6FFC0E0D6F010E99ECBA
:10512C00C9F0010E09010B6FE10E0C6FFC0E0D6F37
:10513C00020E99ECC9F0520E0901106F2B0E0F6F75
:10514C00000EE82EFED70F2FFCD7102FFAD700F049
:10515C0038ECCEF0000E06010F6FD8EFA8F0060168
:10516C00645109010F6F106B1051000AD8B4C1EFD4
:10517C00A8F0D8EFA8F00F51010AD8B47AEFA8F034
:10518C00030AD8B47FEFA8F0010AD8B484EFA8F0D2
:10519C00070AD8B489EFA8F0010AD8B48EEFA8F0AA
:1051AC00D8EFA8F0010E0601646F12003EC750F94B
:1051BC003FC751F940C752F941C753F940C950F99B
:1051CC0041C951F942C952F943C953F9810E090138
:1051DC00446FFF0E456F50C946F951C947F952C982
:1051EC0048F953C949F9180E01EFA9F0D890493381
:1051FC00483347334633E82EFCEFA8F0465144259C
:10520C004E6F000E45214F6F4FBF16EFA9F04F5157
:10521C0009E1170E4E5DD8A016EFA9F018EFA9F012
:10522C0022EFA9F040C940F941C941F942C942F9FC
:10523C0043C943F9E6EFA9F04FBF27EFA9F029EFD7
:10524C00A9F09AEFA9F04EC944F9FF0E456FFF0E75
:10525C00466F7F0E476F000E486F446738EFA9F01A
:10526C0040EFA9F048354833473346334533442F94
:10527C0033EFA9F045C94AF946C94BF947C94CF96E
:10528C0048C94DF909014A515015446F4B515115FC
:10529C00456F4C515215466F4D515315476F445144
:1052AC00451146114711D8A45EEFA9F060EFA9F0A3
:1052BC0062EFA9F018EFA9F050C944F951C945F9AA
:1052CC0052C946F953C947F9200E72EFA9F0D8908C
:1052DC004733463345334433E82E6DEFA9F0445140
:1052EC00451146114711D8B47EEFA9F080EFA9F013
:1052FC0088EFA9F04A5150274B5151234C5152235E
:10530C004D5153234A1D446F4B1D456F4C1D466F29
:10531C004D1D476F44515017455151174651521767
:10532C0047515317DEEFA9F050C944F951C945F95B
:10533C0052C946F953C947F9200EAAEFA9F0D890E3
:10534C004733463345334433E82EA5EFA9F0445197
:10535C00451146114711D8A4B6EFA9F0B8EFA9F042
:10536C00C2EFA9F0000E506F000E516F000E526F7D
:10537C00000E536FDEEFA9F0D8905035446F5135C5
:10538C00456F5235466F5335476F445145114611A1
:10539C004711D8B4D4EFA9F0D6EFA9F0DEEFA9F0FD
:1053AC00000E506F000E516F800E526FBF0E536F78
:1053BC0050C940F951C941F952C942F953C943F98D
:1053CC0012003EC711F53FC712F540C713F541C790
:1053DC0014F501C511F502C512F503C513F504C585
:1053EC0014F5810E056EFF0E066E11C507F512C57C
:1053FC0008F513C509F514C50AF5180E0BEFAAF03C
:10540C00D8900A32093208320732E82E06EFAAF099
:10541C00075005240F6E000E0620106E10BE20EFF4
:10542C00AAF0105009E1170E0F5CD8A020EFAAF0DB
:10543C0022EFAAF02CEFAAF001C501F502C502F586
:10544C0003C503F504C504F5EFEFAAF010BE31EF68
:10545C00AAF033EFAAF0A3EFAAF00FC505F5FF0EE3
:10546C00066EFF0E076E7F0E086E000E096E056647
:10547C0042EFAAF04AEFAAF0093409320832073297
:10548C000632052E3DEFAAF006C50BF507C50CF547
:10549C0008C50DF509C50EF50B501114056E0C5011
:1054AC001214066E0D501314076E0E501414086E61
:1054BC000550061007100810D8A467EFAAF069EF82
:1054CC00AAF06BEFAAF022EFAAF011C505F512C5F0
:1054DC0006F513C507F514C508F5200E7BEFAAF0E9
:1054EC00D8900832073206320532E82E76EFAAF051
:1054FC000550061007100810D8B487EFAAF089EFF2
:10550C00AAF091EFAAF00B5011260C5012220D505C
:10551C0013220E5014220B1C056E0C1C066E0D1C57
:10552C00076E0E1C086E0550111606501216075009
:10553C00131608501416E7EFAAF011C505F512C59D
:10554C0006F513C507F514C508F5200EB3EFAAF040
:10555C00D8900832073206320532E82EAEEFAAF0A8
:10556C000550061007100810D8A4BFEFAAF0C1EF21
:10557C00AAF0CBEFAAF0000E116E000E126E000E08
:10558C00136E000E146EE7EFAAF0D8901134056E6E
:10559C001234066E1334076E1434086E0550061060
:1055AC0007100810D8B4DDEFAAF0DFEFAAF0E7EF90
:1055BC00AAF0000E116E000E126E800E136EBF0E4E
:1055CC00146E11C501F512C502F513C503F514C50A
:1055DC0004F51200010E09010B6F160E0C6FFF0E75
:1055EC000D6F010E99ECC9F04F0E0901AD6F070E4E
